:100000000C94FA270C9417280C9417280C94172892
:100010000C9417280C9417280C9417280C94172864
:100020000C9417280C9417280C9417280C94172854
:100030000C9417280C9417280C9417280C94172844
:100040000C94152F0C9417280C9417280C9417282F
:100050000C9417280C9417280C9417280C94172824
:100060000C9417280C9417280C9417280C94172814
:100070006E616E00696E66006175746820726571EC
:1000800075697265640A00617574682072657175BE
:10009000697265640A006661696C65640A0066617C
:1000A000696C65640A004F6B0A004F6B0A0061754A
:1000B000746800657869740071756974002F7463E1
:1000C000702E7368746D6C0025213A202F6865616D
:1000D0006465722E68746D6C0A3C68313E544350FE
:1000E00020636F6E6E656374696F6E733C2F683149
:1000F0003E0A3C703E0A20203C7461626C653E0AF8
:1001000020203C7472206267636F6C6F723D226CBA
:100110006967687467726579223E3C74643E4C6F0F
:1001200063616C3C2F74643E3C74643E52656D6F39
:1001300074653C2F74643E3C74643E537461746512
:100140003C2F74643E3C74643E52657472616E73FD
:100150006D697373696F6E733C2F74643E3C746495
:100160003E54696D65723C2F74643E3C74643E4637
:100170006C6167733C2F74643E3C2F74723E0A2599
:1001800021207463702D636F6E6E0A20203C2F74E3
:1001900061626C653E0A3C2F703E0A0A20202020D6
:1001A0003C2F6469763E0A20203C2F626F64793EC2
:1001B0000A3C2F68746D6C3E0A002F73746174736F
:1001C0002E7368746D6C0025213A202F6865616478
:1001D00065722E68746D6C0A3C68313E495020543B
:1001E0007261666669633C2F68313E0A3C703E0A64
:1001F00020203C7461626C653E0A202020203C7403
:10020000723E0A2020202020203C74643E0A2020D8
:100210002020202020203C7072653E495020202064
:10022000202020202020205061636B657473207291
:10023000656365697665640A2020202020202020DF
:10024000202020205061636B6574732073656E7489
:100250000A20202020202020202020202050616300
:100260006B6574732064726F707065640A2020205F
:100270002020202020202020200A49502065727252
:100280006F727320202049502076657273696F6EFB
:100290002F686561646572206C656E6774680A20FA
:1002A00020202020202020202020204950206C6564
:1002B0006E6774682C206869676820627974650AC3
:1002C0002020202020202020202020204950206C89
:1002D000656E6774682C206C6F7720627974650A8C
:1002E000202020202020202020202020495020666F
:1002F0007261676D656E74730A20202020202020B3
:100300002020202020486561646572206368656351
:100310006B73756D0A2020202020202020202020B3
:100320002057726F6E672070726F746F636F6C0A04
:1003300020202020202020202020202057726F6E97
:100340006720686F737420616464726573730A0A4E
:1003500049434D5020202020202020205061636BF5
:100360006574732072656365697665640A20202070
:100370002020202020202020205061636B65747392
:100380002073656E740A2020202020202020202049
:1003900020205061636B6574732064726F707065A8
:1003A000640A202020202020202020202020547992
:1003B0007065206572726F72730A0A544350202070
:1003C000202020202020205061636B6574732072F0
:1003D000656365697665640A20202020202020203E
:1003E000202020205061636B6574732073656E74E8
:1003F0000A2020202020202020202020205061635F
:100400006B6574732064726F707065640A0A54437C
:1004100050206572726F72732020436865636B733E
:10042000756D206572726F72730A20202020202063
:1004300020202020202041434B20776974682077BA
:10044000726F6E672073657175656E6365206E757A
:100450006D6265720A20202020202020202020208C
:10046000205265736574730A2020202020202020EC
:100470002020202052657472616E736D69737369F8
:100480006F6E730A20202020202020202020202092
:100490004E6F20636F6E6E656374696F6E20617658
:1004A000616C6961626C650A202020202020202078
:1004B00020202020436F6E6E2E20617474656D7055
:1004C000747320746F20636C6F73656420706F7237
:1004D00074730A0A55445020202020202020202018
:1004E0005061636B657473207265636569766564DA
:1004F0000A2020202020202020202020205061635E
:100500006B6574732073656E740A20202020202090
:100510002020202020205061636B6574732064725A
:100520006F707065640A2020202020202020202069
:100530002020436865636B73756D206572726F72FE
:10054000730A2020202020202020202020205772E5
:100550006F6E6720636F6E6E656374696F6E3C2F9C
:100560007072653E0A2020202020203C2F74643EBB
:100570000A2020202020203C74643E0A20202020D5
:10058000202020203C7072653E2521206E65742D50
:100590007374617473203C2F7072653E0A202020B2
:1005A0002020203C2F74643E0A202020203C2F7401
:1005B000723E0A20203C2F7461626C653E0A3C2F1B
:1005C000703E0A0A202020203C2F6469763E0A20D3
:1005D000203C2F626F64793E0A3C2F68746D6C3E3C
:1005E000002F696F5F68656C702E7368746D6C00A6
:1005F00025213A202F6865616465722E68746D6CE0
:100600000A0A3C68313E492F4F20636F6D6D616E61
:1006100064733C2F68313E0A3C703E0A20205468C7
:100620006520492F4F20636F6D6D616E6473206389
:100630006F6E6669677572652074686520492F4F13
:10064000206C696E65732C207175657279207468F1
:1006500065207374617475730A20206F6620696E5B
:100660007075747320616E6420736574207468659E
:100670002076616C7565206F66206F757470757477
:10068000732E0A3C2F703E0A3C703E0A20204361C4
:100690006C6C2074686520696F20636F6D6D616E8E
:1006A00064732076696120736F636B657420636F78
:1006B0006E6E656374696F6E206F6E20706F7274FA
:1006C000203233202874656C6E657429206F722087
:1006D0007669610A202055524C3A20687474703A49
:1006E0002F2F69702D616464726573732F696F3F7A
:1006F0003C623E636F6D6D616E643C2F623E2E0AFC
:100700003C2F703E0A3C703E3C7072653E0A436F5F
:100710006D6D616E647320746861742061666665D6
:10072000637420616C6C20706F72742070696E73DA
:100730003A0A642C444443434242414120205365D9
:100740007420646972656374696F6E206F662061DE
:100750006C6C20706F72742070696E732C206869E5
:1007600067683D6F75747075742C206C6F773D6988
:100770006E7075740A702C444443434242414120D8
:1007800020436F6E6669677572652070756C6C2D9D
:100790007570207265736973746F72732C20686949
:1007A00067683D6F6E2C206C6F773D6F66660A6FD1
:1007B0002C444443434242414120204F757470759C
:1007C000742064617461206F6E20616C6C20706FA6
:1007D00072742070696E730A692020202020202006
:1007E00020202020526561642066726F6D20616C4C
:1007F0006C20706F72742070696E730A0A436F6D9B
:100800006D616E64732074686174206166666563EF
:1008100074206F6E6520706F72743A0A6450422CB7
:100820007878202020202020536574206469726528
:100830006374696F6E206F6620706F727420420A55
:100840007050422C7878202020202020436F6E6644
:1008500069677572652070756C6C2D757020726596
:10086000736973746F7273206F6620706F72742077
:10087000420A6F50422C78782020202020204F758B
:10088000747075742064617461206F6E20706F7273
:100890007420420A6950422020202020202020205D
:1008A000526561642066726F6D20706F72742042B1
:1008B0000A0A436F6D6D616E647320746861742001
:1008C00061666665637420612073696E676C65207C
:1008D000706F72742070696E3A0A645042302C3125
:1008E0002020202020205365742064697265637481
:1008F000696F6E206F6620706F727420422070697D
:100900006E203020746F20696E707574202830203E
:100910006F7220693D696E7075742C2031206F7282
:10092000206F3D6F7574707574290A705042302CB9
:1009300031202020202020456E61626C652070757A
:100940006C6C2D7570207265736973746F7273208F
:100950006F6620706F727420422070696E203020A4
:100960002830206F7220643D64697361626C656435
:100970002C2031206F7220653D656E61626C65646C
:10098000290A6F5042302C312020202020204F7522
:10099000747075742068696768206F6E20706F725C
:1009A0007420422070696E2030202830206F722021
:1009B0006C3D6C6F772C2031206F7220683D686928
:1009C0006768290A695042302020202020202020FA
:1009D000526561642066726F6D20706F7274204280
:1009E0002070696E20300A0A416E616C6F67206961
:1009F0006E707574733A0A7256434320202020208B
:100A00002020205573652056434320617320726572
:100A1000666572656E636520283556290A72312E27
:100A200031562020202020202055736520696E74C7
:100A300065726E616C20312E31562072656665726A
:100A4000656E63650A72322E3536562020202020CE
:100A50002055736520696E7465726E616C20322E4C
:100A6000353656207265666572656E63650A724535
:100A700058542020202020202020557365206578A0
:100A80007465726E616C207265666572656E636511
:100A90000A61332020202020202020202052656160
:100AA000642066726F6D20616E616C6F6720706983
:100AB0006E20330A0A787820616E642044444343F0
:100AC00042424141206172652068657861646563D6
:100AD000696D616C206E756D626572732E0A4F6E62
:100AE000206D6F64756C65732077697468206D6F15
:100AF0007265207468616E203420706F7274732C7C
:100B000020796F752063616E20616C736F2075733F
:100B10006520363420626974206E756D626572736B
:100B20000A696E20666F726D6174204848474746B7
:100B300046454544444343424241412E0A0A4269E4
:100B40006E61727920616E642068657861646563A6
:100B5000696D616C206469676974732063616E20DC
:100B6000626520676976656E20696E2075707065B4
:100B70007220616E64206C6F7765722063617365AB
:100B80002E0A496E7374656164206F6620222C22E0
:100B900020796F752063616E20616C736F20656EC4
:100BA00074657220223D222E3B0A3C2F7072653EF6
:100BB0003C2F703E0A3C703E0A2020466F72206532
:100BC00078616D706C652C203C6120687265663DB3
:100BD00022696F3F6F5043302C30223E6F504330BC
:100BE0002C303C2F613E20737769746368657320F5
:100BF00074686520677265656E204C4544206F6E91
:100C000020696620746869732070696E0A20206903
:100C10006620636F6E6669677572656420666F72C1
:100C2000206F757470757420646972656374696F80
:100C30006E2E0A3C2F703E0A0A202020203C2F6492
:100C400069763E0A20203C2F626F64793E0A3C2F71
:100C500068746D6C3E0A0A002F696E6465782E73A5
:100C600068746D6C0025213A202F68656164657297
:100C70002E68746D6C0D0A3C703E0D0A202054687D
:100C800065736520706167657320617265207365A7
:100C900072766564206279206120736D616C6C20CE
:100CA000656D6265646465642077656273657276FC
:100CB00065722077697468204156522D524953431A
:100CC0002070726F636573736F722E0D0A3C2F7004
:100CD0003E0D0A3C703E0D0A20203C7461626C653A
:100CE0003E0D0A202020203C74723E3C74643E0D70
:100CF0000A20202020202048617264776172653AC2
:100D0000204372756D623634342D4E455420667220
:100D10006F6D203C6120687265663D226874747056
:100D20003A2F2F7777772E6368697034352E636F8B
:100D30006D223E7777772E6368697034352E636F46
:100D40006D3C2F613E0D0A202020203C2F74643E14
:100D50003C2F74723E0D0A202020203C74723E3CD1
:100D600074643E0D0A20202020202045746865729E
:100D70006E6574206472697665723A205374656694
:100D8000616E205065727A626F726E203C612068DD
:100D90007265663D22687474703A2F2F7777772ECC
:100DA0007065727A626F726E2E6E65742F223E7756
:100DB00077772E7065727A626F726E2E6E65743CF4
:100DC0002F613E0D0A202020203C2F74643E3C2FD2
:100DD00074723E0D0A202020203C74723E3C7464E4
:100DE0003E0D0A2020202020205443502F4950201F
:100DF000737461636B3A204164616D2044756E6B5E
:100E0000656C73203C6120687265663D226874746D
:100E1000703A2F2F7777772E736963732E73652F50
:100E20007E6164616D2F7569702F223E7549502077
:100E30005443502F495020737461636B3C2F613EC3
:100E40000D0A202020203C2F74643E3C2F74723EFB
:100E50000D0A202020203C74723E3C74643E0D0A32
:100E6000202020202020416C6C206F746865722047
:100E700070617274733A2053746566616E204672B5
:100E8000696E6773203C6120687265663D226874F4
:100E900074703A2F2F6D65696E656D756C6C656D3C
:100EA0006175732E6465223E6D65696E656D756C46
:100EB0006C656D6175732E64653C2F613E0D0A2073
:100EC0002020203C2F74643E3C2F74723E0D0A207B
:100ED000203C2F7461626C653E0D0A3C2F703E0D04
:100EE0000A3C703E0D0A20204C61726765737420C5
:100EF00066726565206D656D6F727920626C6F63D7
:100F00006B3A20252120667265656D656D206279DA
:100F10007465730D0A20203C62723E0D0A20204445
:100F2000484350205374617475733A20252120641E
:100F30006863702D7374617475730D0A20203C62B0
:100F4000723E0D0A20204D41432061646472657336
:100F5000733A202521206765746D61630D0A202096
:100F60003C62723E0D0A2020495020616464726523
:100F700073733A2025212063757272656E746970EF
:100F8000202F2025212063757272656E746D617348
:100F90006B202C206761746577617920252120639F
:100FA000757272656E7467770D0A3C2F703E0D0A7C
:100FB0000D0A202020203C2F6469763E0D0A202057
:100FC0003C2F626F64793E0D0A3C2F68746D6C3E55
:100FD000002F636F6E6669672E7368746D6C0025F1
:100FE000213A202F6865616465722E68746D6C0A01
:100FF0000A3C68313E495020436F6E6669677572DE
:101000006174696F6E3C2F68313E0A0A3C666F72EC
:101010006D206D6574686F643D2267657422206180
:101020006374696F6E3D22636F6E6669672E7368C5
:10103000746D6C223E0A20203C703E0A2020202045
:101040004448435020436C69656E740A2020202078
:101050003C73656C656374206E616D653D226468E8
:101060006370223E0A2020202020203C6F7074698B
:101070006F6E2076616C75653D2230223E64697327
:1010800061626C65643C2F6F7074696F6E3E0A20FC
:1010900020202020203C6F7074696F6E2076616C78
:1010A00075653D22312220252120646863707365B7
:1010B0006C203E656E61626C65643C2F6F70746974
:1010C0006F6E3E0A202020203C2F73656C65637490
:1010D0003E0A20203C2F703E0A20203C703E0A2011
:1010E0002020203C7461626C653E0A202020202074
:1010F000203C74723E0A20202020202020203C74B6
:10110000643E49502D416464726573733C2F74646E
:101110003E0A20202020202020203C74643E3C6990
:101120006E70757420747970653D227465787422D0
:10113000206E616D653D226970222076616C756557
:101140003D2225212063757272656E7469702220BC
:1011500073697A653D22313622206D61786C656E47
:101160006774683D223136223E3C2F74643E0A206B
:1011700020202020203C2F74723E0A202020202096
:10118000203C74723E0A20202020202020203C7425
:10119000643E4E65746D61736B3C2F74643E0A202F
:1011A000202020202020203C74643E3C696E707515
:1011B0007420747970653D227465787422206E61A4
:1011C0006D653D226D61736B222076616C75653DA6
:1011D0002225212063757272656E746D61736B22B6
:1011E0002073697A653D22313622206D61786C6505
:1011F0006E6774683D223136223E3C2F74643E0A8D
:101200002020202020203C2F74723E0A2020202005
:1012100020203C74723E0A20202020202020203CE8
:1012200074643E476174657761793C2F74643E0A4B
:1012300020202020202020203C74643E3C696E70D9
:10124000757420747970653D227465787422206EFF
:10125000616D653D226777222076616C75653D2260
:1012600025212063757272656E7467772220736919
:101270007A653D22313622206D61786C656E677427
:10128000683D223136223E3C2F74643E0A202020E5
:101290002020203C2F74723E0A202020203C2F74F6
:1012A00061626C653E0A20203C2F703E0A20203C83
:1012B00070207374796C653D2225212063616E6115
:1012C00075746820223E0A20202020202041757459
:1012D00068656E7469636174696F6E203C696E70D5
:1012E000757420747970653D227465787422206E5F
:1012F000616D653D2261757468222076616C75654B
:101300003D22252120676574617574682220736908
:101310007A653D22323022206D61786C656E67748B
:10132000683D223230223E3C62723E0A202020205C
:10133000202028696E20666F726D61742075736558
:10134000726E616D653A70617373776F7264290AAA
:1013500020203C2F703E0A20203C703E0A20202096
:10136000203C696E70757420747970653D227375C8
:10137000626D6974223E0A20203C2F703E0A3C2F89
:10138000666F726D3E0A3C703E0A202053746F7285
:1013900065642073657474696E67733A3C62723E6B
:1013A0000A2020495020616464726573733A2025D5
:1013B00021206765746970202F20252120676574BE
:1013C0006D61736B202C20676174657761792025CE
:1013D000212067657467770A0A202020203C2F644B
:1013E00069763E0A20203C2F626F64793E0A3C2FCA
:1013F00068746D6C3E002F66696C65732E7368743B
:101400006D6C0025213A202F6865616465722E6835
:10141000746D6C0A3C68313E485454502046696CE7
:1014200065733C2F68313E0A3C7461626C653E0A0C
:101430002020202025212066696C652D737461743D
:10144000730A3C2F7461626C653E0A0A20202020DA
:101450003C2F6469763E0A20203C2F626F64793EFF
:101460000A3C2F68746D6C3E0A0A002F696F2E7358
:1014700068746D6C0025213A202F6865616465727F
:101480002E68746D6C0A0A3C7363726970743E0A4C
:101490000A66756E6374696F6E20616A61785F7247
:1014A0006571756573742875726C29207B0A20201C
:1014B000747279207B0A2020202076617220726568
:1014C0007175657374203D2077696E646F772E584F
:1014D0004D4C4874747052657175657374203F206B
:1014E0006E657720584D4C487474705265717565FF
:1014F00073742829203A206E6577204163746976D9
:1015000065584F626A65637428224D53584D4C32BA
:101510002E584D4C485454502E332E3022293B0A1D
:1015200020202020726571756573742E6F70656E52
:101530002822474554222C2075726C2C2066616C41
:101540007365293B0A2020202072657175657374CC
:101550002E73656E64286E756C6C293B0A20202002
:101560002072657475726E20726571756573742E64
:10157000726573706F6E7365546578743B0A2020D2
:101580007D0A2020636174636820286529207B0A16
:1015900020202020616C6572742822414A41582025
:1015A00072657175657374206661696C65643A5C17
:1015B0006E222B65293B0A202020207265747572EB
:1015C0006E2022223B0A20207D0A7D0A0A66756E63
:1015D0006374696F6E20657865637574652829206A
:1015E0007B0A202076617220696E70757466696569
:1015F0006C643D646F63756D656E742E67657445CC
:101600006C656D656E74427949642822696E7075E7
:10161000746669656C6422293B0A20207661722019
:101620006F75747075746669656C643D646F63751D
:101630006D656E742E676574456C656D656E74427C
:1016400079496428226F75747075746669656C6475
:1016500022293B0A202076617220726573756C74B2
:101660003D616A61785F726571756573742822697E
:101670006F3F222B696E7075746669656C642E7697
:10168000616C7565293B0A20206F757470757466EE
:1016900069656C642E76616C75653D726573756CF9
:1016A000743B0A7D0A0A3C2F7363726970743E0AA8
:1016B0000A3C68313E492F4F205374617475733C66
:1016C0002F68313E0A3C703E0A2020506F72742011
:1016D0004120697320252120706F727473746174C6
:1016E00075733F410A20203C62723E0A2020506FF1
:1016F0007274204220697320252120706F727473E8
:1017000074617475733F420A20203C62723E0A2065
:1017100020506F7274204320697320252120706F40
:1017200072747374617475733F430A20203C627253
:101730003E0A2020506F72742044206973202521B6
:1017400020706F72747374617475733F440A202043
:101750003C62723E0A2020506F72742045206973EB
:1017600020252120706F72747374617475733F4506
:101770000A20203C62723E0A2020506F727420467C
:1017800020697320252120706F72747374617475E1
:10179000733F460A20203C62723E0A2020506F723E
:1017A00074204720697320252120706F7274737430
:1017B000617475733F470A20203C62723E0A202004
:1017C000506F7274204820697320252120706F7239
:1017D000747374617475733F480A3C2F703E0A3C01
:1017E000703E0A2020414443203020697320252187
:1017F000206164637374617475733F300A20203C08
:1018000062723E0A20204144432031206973202522
:1018100021206164637374617475733F310A202001
:101820003C62723E0A2020414443203220697320EA
:101830002521206164637374617475733F320A20DB
:10184000203C62723E0A20204144432033206973C9
:10185000202521206164637374617475733F330ABA
:1018600020203C62723E0A202041444320342069FB
:1018700073202521206164637374617475733F3430
:101880000A20203C62723E0A202041444320352039
:101890006973202521206164637374617475733FDB
:1018A000350A20203C62723E0A2020414443203603
:1018B00020697320252120616463737461747573DA
:1018C0003F360A20203C62723E0A202041444320D9
:1018D00037206973202521206164637374617475F6
:1018E000733F370A3C2F703E0A3C703E0A2020545A
:1018F000686520666F6C6C6F77696E6720666F72C3
:101900006D20657865637574657320492F4F20637A
:101910006F6D6D616E647320766961204A617661D6
:101920005363726970743A0A20203C666F726D20AE
:10193000616374696F6E3D226A6176617363726977
:1019400070743A657865637574652829223E0A20AB
:101950002020203C7461626C653E0A2020202020FB
:10196000203C74723E0A20202020202020203C743D
:10197000643E436F6D6D616E643A3C2F74643E0A41
:1019800020202020202020203C74643E3C696E7082
:1019900075742069643D22696E7075746669656C42
:1019A000642220747970653D2274657874222073F6
:1019B000697A653D223230223E3C696E7075742032
:1019C000747970653D227375626D69742220766149
:1019D0006C75653D224F6B223E3C2F74643E0A209D
:1019E00020202020203C2F74723E0A20202020201E
:1019F000203C74723E0A20202020202020203C74AD
:101A0000643E526573756C743A3C2F74643E0A20D0
:101A1000202020202020203C74643E3C696E70759C
:101A2000742069643D226F75747075746669656CA5
:101A3000642220747970653D227465787422207365
:101A4000697A653D2232302220726561646F6E6C66
:101A5000793E3C2F74643E0A2020202020203C2F19
:101A600074723E0A202020203C2F7461626C653E17
:101A70000A20203C2F666F726D3E0A3C2F703E0A92
:101A80003C703E0A2020546865207374617475733D
:101A900020646973706C61792061626F7665207271
:101AA0006566726573686573206F6E6C7920776800
:101AB000656E20796F7520636C69636B206F6E2093
:101AC0007468652072656C6F616420627574746FF0
:101AD0006E2E0A3C2F703E0A0A202020203C2F64E4
:101AE00069763E0A20203C2F626F64793E0A3C2FC3
:101AF00068746D6C3E0A0A002F3430342E68746DA1
:101B00006C003C68746D6C3E0A20203C626F647906
:101B1000206267636F6C6F723D227768697465221B
:101B20003E0A202020203C63656E7465723E0A20C8
:101B300020202020203C68313E343034202D206687
:101B4000696C65206E6F7420666F756E643C2F68DB
:101B5000313E0A2020202020203C68333E476F2061
:101B60003C6120687265663D222F223E6865726581
:101B70003C2F613E20696E73746561642E3C2F6852
:101B8000333E0A202020203C2F63656E7465723E30
:101B90000A20203C2F626F64793E0A3C2F68746DE6
:101BA0006C3E002F6865616465722E68746D6C0010
:101BB0003C21444F43545950452048544D4C2050EB
:101BC00055424C494320222D2F2F5733432F2F446A
:101BD00054442048544D4C20342E30312F2F454E44
:101BE000223E0A3C68746D6C3E0A20203C686561A8
:101BF000643E0A202020203C7469746C653E427566
:101C000074746572666C7920492F4F204669726D35
:101C10007761726520322E382E313C2F7469746CD6
:101C2000653E0A202020203C6D657461206E616D48
:101C3000653D22617574686F722220636F6E7465F2
:101C40006E743D2253746566616E204672696E67DC
:101C500073223E0A202020203C6D65746120687448
:101C600074702D65717569763D22636F6E74656E53
:101C7000742D747970652220636F6E74656E743D87
:101C800022746578742F68746D6C3B206368617290
:101C90007365743D7574662D38223E0A202020201D
:101CA0003C6D65746120687474702D65717569761A
:101CB0003D22507261676D612220636F6E74656EA4
:101CC000743D226E6F2D6361636865223E0A202099
:101CD00020203C6D65746120687474702D65717589
:101CE00069763D2243616368652D436F6E74726F40
:101CF0006C2220636F6E74656E743D226E6F2D636F
:101D000061636865223E0A202020203C7374796C50
:101D10006520747970653D22746578742F637373E0
:101D2000223E0A20202020202020200A626F647991
:101D3000207B0A2020636F6C6F723A626C61636B68
:101D40003B0A20206261636B67726F756E642D6958
:101D50006D6167653A75726C287261737465722E75
:101D6000706E67293B0A2020706F736974696F6E0B
:101D70003A6162736F6C7574653B0A20206C65660E
:101D8000743A303B0A2020746F703A303B0A2020AE
:101D900070616464696E673A303B0A20206D61723D
:101DA00067696E3A303B0A7D0A0A7461626C65208D
:101DB0007B0A20206261636B67726F756E642D63AE
:101DC0006F6C6F723A77686974653B0A2020626FA6
:101DD000726465722D636F6C6C617073653A636FCA
:101DE0006C6C617073653B0A2020626F726465726F
:101DF0002D7374796C653A646F747465643B0A2062
:101E000020626F726465722D77696474683A31700C
:101E1000783B0A2020626F726465722D636F6C6F6D
:101E2000723A626C61636B3B0A7D0A0A7464207BC0
:101E30000A202070616464696E673A302E35656DE2
:101E40003B0A2020626F726465722D7374796C6531
:101E50003A646F747465643B0A2020626F72646533
:101E6000722D77696474683A3170783B0A20206279
:101E70006F726465722D636F6C6F723A626C61632E
:101E80006B3B0A7D0A0A6469762E6C696E6B73205F
:101E90007B0A202070616464696E672D746F703AEC
:101EA00031656D3B0A202070616464696E672D6C3A
:101EB0006566743A302E35656D3B0A20207061648A
:101EC00064696E672D72696768743A302E35656D86
:101ED0003B0A202070616464696E672D626F7474C0
:101EE0006F6D3A302E35656D3B0A20206D6172674B
:101EF000696E3A303B0A2020706F736974696F6EA7
:101F00003A66697865643B0A202077696474683AA8
:101F10003130656D3B0A2020666C6F61743A6C65E8
:101F200066743B0A7D0A0A6469762E72656368747A
:101F300073207B0A202077696474683A3130656DBC
:101F40003B0A2020666C6F61743A72696768743B63
:101F50000A20206D617267696E3A303B0A2020705A
:101F6000616464696E673A302E35656D3B0A7D0A9F
:101F70000A6469762E696E68616C74207B0A202081
:101F8000636F6C6F723A6E6176793B0A20206D61E7
:101F90007267696E2D6C6566743A3131656D3B0A06
:101FA00020206D617267696E2D72696768743A31BD
:101FB00031656D3B0A20206D617267696E2D746F0B
:101FC000703A303B0A20206D617267696E2D626F36
:101FD00074746F6D3A303B0A202070616464696EDE
:101FE000673A302E35656D3B0A20206D696E2D777E
:101FF000696474683A3230656D3B0A20206D6178FF
:102000002D77696474683A3630656D3B0A7D0A0A3B
:102010006831207B0A2020666F6E742D73697A65A3
:102020003A313430253B0A7D0A0A6832207B0A2087
:1020300020666F6E742D73697A653A313230253BB4
:102040000A7D0A0A6469762E6E6176696761746931
:102050006F6E207B0A20206261636B67726F756E02
:10206000642D636F6C6F723A234330433043303BCF
:102070000A202070616464696E673A302E32656DA3
:102080003B0A20206D617267696E2D746F703A3063
:102090002E35656D3B0A20206D617267696E2D6279
:1020A0006F74746F6D3A302E35656D3B0A20206673
:1020B0006F6E742D7765696768743A626F6C643B04
:1020C0000A7D0A0A6469762E6E61766967617469B1
:1020D0006F6E2061207B0A2020646973706C6179C7
:1020E0003A20626C6F636B3B0A2020746578742D14
:1020F0006465636F726174696F6E3A6E6F6E653B93
:102100000A2020636F6C6F723A626C61636B3B0AEA
:102110002020626F726465722D7374796C653A6EFB
:102120006F6E653B0A20206F75746C696E652D7348
:1021300074796C653A6E6F6E653B0A7D0A0A646954
:10214000762E6E617669676174696F6E20612E61AB
:102150006374697665207B0A2020666F6E742D7724
:1021600065696768743A626F6C643B0A2020636F2C
:102170006C6F723A7265643B0A7D0A0A6469762E56
:102180006E617669676174696F6E20613A686F7617
:102190006572207B0A20206261636B67726F756EC7
:1021A000642D636F6C6F723A233830383038303BAF
:1021B0000A7D0A0A0A6469762E6E6176696761741F
:1021C000696F6E20756C207B0A20206261636B67EB
:1021D000726F756E642D636F6C6F723A2346304672
:1021E0003046303B0A20206C6973742D7374796C0F
:1021F000653A6E6F6E653B0A202070616464696E9B
:10220000672D6C6566743A31656D3B0A20207061FC
:102210006464696E672D72696768743A303B0A209E
:102220002070616464696E672D746F703A31656DFA
:102230003B0A202070616464696E672D626F74745C
:102240006F6D3A31656D3B0A20206D617267696E72
:102250003A303B0A2020666F6E742D776569676897
:10226000743A6E6F726D616C3B0A2020666F6E74FB
:102270002D73697A653A3830253B0A7D0A0A64690C
:10228000762E6E617669676174696F6E20756C2059
:10229000756C207B0A202070616464696E672D7400
:1022A0006F703A303B0A202070616464696E672D5C
:1022B000626F74746F6D3A303B0A2020666F6E74E3
:1022C0002D73697A653A3939253B0A7D0A0A6469B2
:1022D000762E6E617669676174696F6E20756C2EFB
:1022E00068696464656E207B0A2020646973706C81
:1022F00061793A6E6F6E653B0A7D0A0A6469762ED3
:102300006E617669676174696F6E20756C2E76698F
:102310007369626C65207B0A2020646973706C614C
:10232000793A626C6F636B3B0A7D0A0A6469762EA8
:102330006E617669676174696F6E206C69207B0AD3
:1023400020206D617267696E2D746F703A302E3483
:10235000656D3B0A20206D617267696E2D626F7436
:10236000746F6D3A302E34656D3B0A20206C6973B2
:10237000742D7374796C653A206E6F6E653B0A7DBF
:102380000A0A3C2F7374796C653E0A3C7363726968
:1023900070743E0A0A2F2A2041637469766174655D
:1023A000207468652063757272656E7420646F6353
:1023B000756D656E7420696E20746865206E617637
:1023C00069676174696F6E20646976202A2F0A66D6
:1023D000756E6374696F6E206E6176695F61637498
:1023E00069766174655F63757272656E742869647D
:1023F00029207B0A20207661722064657374696EDF
:102400006174696F6E3D646F63756D656E742E6780
:102410006574456C656D656E7442794964286964BC
:10242000293B0A202076617220726571756573748C
:1024300065723D646F63756D656E742E6C6F63615C
:1024400074696F6E2E687265663B0A202076617231
:1024500020616C6C654C697374656E3D6465737462
:10246000696E6174696F6E2E676574456C656D6524
:102470006E747342795461674E616D652822756C84
:1024800022293B0A2020666F7220286A3D303B20BB
:102490006A3C616C6C654C697374656E2E6C656E1C
:1024A0006774683B206A2B2B29207B0A2020202080
:1024B000766172206C697374653D616C6C654C6902
:1024C0007374656E5B6A5D3B0A2020202076617222
:1024D00020616C6C6545696E7472616567653D6C01
:1024E000697374652E676574456C656D656E74738C
:1024F00042795461674E616D6528226C6922293BDF
:102500000A20202020666F7220286B3D303B206B14
:102510003C616C6C6545696E7472616567652E6CB3
:10252000656E6774683B206B2B2B29207B0A20206B
:10253000202020207661722065696E747261673D8B
:10254000616C6C6545696E7472616567655B6B5D36
:102550003B0A20202020202076617220616C6C656F
:102560004C696E6B733D65696E747261672E676549
:1025700074456C656D656E747342795461674E6124
:102580006D6528226122293B0A2020202020206618
:102590006F722028693D303B20693C616C6C654C52
:1025A000696E6B732E6C656E6774683B20692B2BAC
:1025B00029207B0A202020202020202076617220E4
:1025C0006C696E6B3D616C6C654C696E6B735B69BD
:1025D0005D3B0A2020202020202020696620286CD6
:1025E000696E6B2E687265663D3D726571756573C7
:1025F00074657229207B0A202020202020202020A2
:10260000202F2F20666F756E6420746865206C69BA
:102610006E6B20616E642074686520706172656EF7
:1026200074206C697374206974656D20616E642018
:1026300074686520706172656E74206C6973740AC9
:10264000202020202020202020206C696E6B2E630B
:102650006C6173734E616D653D226163746976656B
:10266000223B0A202020202020202020206C69737B
:1026700074652E636C6173734E616D653D2276697E
:102680007369626C65223B0A2020202020202020D4
:1026900020202F2F2066696E64207468652064698D
:1026A00072656374207375622D6C69737473206135
:1026B0006E64206D616B65207468656D2061637464
:1026C0006976650A202020202020202020207661A5
:1026D0007220616C6C654B696E6465723D65696EF4
:1026E000747261672E6368696C644E6F6465733BD6
:1026F0000A20202020202020202020666F72202801
:102700006C3D303B206C3C616C6C654B696E646564
:10271000722E6C656E6774683B206C2B2B29207BB6
:102720000A202020202020202020202020766172D6
:10273000206B696E643D616C6C654B696E6465729B
:102740005B6C5D3B0A2020202020202020202020C0
:1027500020696620286B696E642E7461674E616D16
:1027600065213D6E756C6C202626206B696E642E8B
:102770007461674E616D652E746F4C6F776572433F
:1027800061736528293D3D22756C2229207B0A2032
:10279000202020202020202020202020206B696E57
:1027A000642E636C6173734E616D653D227669734F
:1027B00069626C65223B0A202020202020202020F6
:1027C0002020207D0A202020202020202020207D65
:1027D0000A20202020202020207D0A2020202020C8
:1027E000207D0A202020207D0A20207D0A7D0A0AE3
:1027F0002F2A2068616E646C65206B6C69636B20A6
:102800006576656E7473206F6E206120666F6C64F0
:10281000657220696E20746865206E6176696761F3
:1028200074696F6E206469762A2F0A66756E637408
:10283000696F6E206E6176695F6B6C69636B5F6652
:102840006F6C64657228696429207B0A2020766198
:1028500072206C697374653D646F63756D656E7429
:102860002E676574456C656D656E744279496428A0
:102870006964293B0A2020696620286C69737465A5
:102880002E636C6173734E616D653D3D22686964B2
:1028900064656E22290A202020206C697374652EDD
:1028A000636C6173734E616D653D22766973696215
:1028B0006C65223B0A2020656C73650A202020206D
:1028C0006C697374652E636C6173734E616D653DE5
:1028D0002268696464656E223B0A7D0A0A3C2F7394
:1028E00063726970743E0A0A3C2F686561643E0A2F
:1028F0003C626F6479206F6E6C6F61643D226E6123
:1029000076695F61637469766174655F637572721D
:10291000656E7428276E617669676174696F6E27CA
:1029200029223E0A0A3C64697620636C6173733D18
:10293000226C696E6B73223E0A20203C646976200B
:10294000636C6173733D226E617669676174696F50
:102950006E222069643D226E617669676174696FD9
:102960006E223E0A2020202020204E617669676179
:1029700074696F6E0A2020202020203C756C3E0A6E
:1029800020202020202020203C6C693E3C612068D3
:102990007265663D22696E6465782E7368746D6C2D
:1029A000223E46726F6E7420706167653C2F613EF7
:1029B0003C2F6C693E0A20202020202020203C6CE7
:1029C000693E3C6120687265663D22636F6E666990
:1029D000672E7368746D6C223E495020436F6E669B
:1029E000696775726174696F6E3C2F613E3C2F6C34
:1029F000693E0A20202020202020203C6C693E3C9B
:102A00006120687265663D2265636F6E6669672E38
:102A10007368746D6C223E654D61696C2041707005
:102A20003C2F613E3C2F6C693E0A20202020202054
:102A300020203C6C693E3C6120687265663D226ADC
:102A40006176617363726970743A6E6176695F6B07
:102A50006C69636B5F666F6C646572282773746161
:102A600074732729223E53746174697374696373A4
:102A70003C2F613E3C756C2069643D227374617427
:102A8000732220636C6173733D2268696464656EB0
:102A9000223E0A2020202020202020202020203C10
:102AA0006C693E3C6120687265663D227374617496
:102AB000732E7368746D6C223E49502054726166A7
:102AC0006669633C2F613E3C2F6C693E0A202020E2
:102AD0002020202020202020203C6C693E3C6120CA
:102AE000687265663D227463702E7368746D6C2223
:102AF0003E54435020436F6E6E656374696F6E730E
:102B00003C2F613E3C2F6C693E0A20202020202073
:102B10002020202020203C6C693E3C6120687265AA
:102B2000663D2266696C65732E7368746D6C223E17
:102B3000485454502046696C653C2F613E3C2F6CD4
:102B4000693E0A2020202020202020202020203C18
:102B50006C693E3C6120687265663D22736D7470DD
:102B600073746174732E7368746D6C223E534D548C
:102B70005020436F756E746572733C2F613E3C2F1D
:102B80006C693E0A202020202020202020203C2F7D
:102B9000756C3E0A20202020202020203C2F6C69CC
:102BA0003E0A20202020202020203C6C693E3C61F1
:102BB00020687265663D22696F2E7368746D6C22A1
:102BC0003E492F4F205374617475733C2F613E3C16
:102BD0002F6C693E0A20202020202020203C6C6998
:102BE0003E3C6120687265663D22696F5F68656C76
:102BF000702E7368746D6C223E492F4F20436F6DA9
:102C00006D616E64733C2F613E3C2F6C693E0A20FF
:102C100020202020203C2F756C3E0A202020203CC4
:102C20002F6469763E0A3C2F6469763E0A0A3C644A
:102C3000697620636C6173733D2272656368747397
:102C4000223E0A202020203C696D67207372633D7C
:102C5000226372756D623634346E65742E6A7067E5
:102C6000223E0A3C2F6469763E0A0A3C646976205B
:102C7000636C6173733D22696E68616C74223E0AF5
:102C8000002F65636F6E6669672E7368746D6C00E4
:102C900025213A202F6865616465722E68746D6C19
:102CA0000A0A3C68313E654D61696C204170706C68
:102CB00069636174696F6E3C2F68313E0A0A54681B
:102CC0006520654D61696C206170706C6963617429
:102CD000696F6E206D6F6E69746F727320746865B2
:102CE0002070696E73206F6620506F7274204420CC
:102CF000616E642073656E647320616E20654D6142
:102D0000696C207768656E20610A70696E2063685F
:102D1000616E6765732066726F6D204C6F772074EB
:102D20006F20486967682E204F6E6C7920534D5490
:102D300050207365727665727320776974686F7559
:102D4000742061757468656E7469636174696F6E0F
:102D5000206F72200A776974682041555448204CCE
:102D60004F47494E2061757468656E74696361747C
:102D7000696F6E2061726520737570706F72746513
:102D8000642E0A0A3C703E0A3C7461626C653E0A1D
:102D900020203C74723E0A202020203C74643E496E
:102DA000502D41646472657373206F6620534D54D7
:102DB00050207365727665723A3C2F74643E0A2027
:102DC0002020203C74643E0A2020202020203C66E5
:102DD0006F726D206D6574686F643D226765742243
:102DE00020616374696F6E3D2265636F6E6669670B
:102DF0002E7368746D6C223E0A2020202020202033
:102E0000203C696E70757420747970653D2274651C
:102E1000787422206E616D653D22736D7470497007
:102E2000222076616C75653D22252120736D7470BA
:102E30004970222073697A653D22313622206D6106
:102E4000786C656E6774683D223136223E0A202018
:102E50002020202020203C696E70757420747970C9
:102E6000653D227375626D6974222076616C7565AB
:102E70003D224F6B223E0A2020202020203C2F663E
:102E80006F726D3E0A202020203C2F74643E0A2081
:102E9000203C2F74723E0A20203C74723E0A20208F
:102EA00020203C74643E534D545020757365726EFF
:102EB000616D653A3C2F74643E0A202020203C74EA
:102EC000643E0A2020202020203C666F726D206D19
:102ED0006574686F643D226765742220616374695C
:102EE0006F6E3D2265636F6E6669672E7368746DE1
:102EF0006C223E0A20202020202020203C696E7079
:102F0000757420747970653D227465787422206E22
:102F1000616D653D22736D74705573657222207604
:102F2000616C75653D22252120736D747055736544
:102F300072222073697A653D22333022206D6178D8
:102F40006C656E6774683D223330223E0A20202073
:102F500020202020203C696E707574207479706583
:102F60003D227375626D6974222076616C75653DD2
:102F7000224F6B223E0A2020202020203C2F666F0B
:102F8000726D3E0A202020203C2F74643E0A2020CF
:102F90003C2F74723E0A20203C74723E0A2020208E
:102FA000203C74643E534D54502070617373776FAE
:102FB00072643A3C2F74643E0A202020203C7464E2
:102FC0003E0A2020202020203C666F726D206D6517
:102FD00074686F643D226765742220616374696F51
:102FE0006E3D2265636F6E6669672E7368746D6CE3
:102FF000223E0A20202020202020203C696E70756F
:103000007420747970653D227465787422206E6135
:103010006D653D22736D74705077222076616C75FA
:10302000653D22252120736D7470507722207369CD
:103030007A653D22333022206D61786C656E67744D
:10304000683D223330223E0A2020202020202020EC
:103050003C696E70757420747970653D2273756279
:103060006D6974222076616C75653D224F6B223E3E
:103070000A2020202020203C2F666F726D3E0A20FF
:103080002020203C2F74643E0A20203C2F74723E86
:103090000A20203C74723E0A202020203C74643EAA
:1030A00046726F6D3A3C2F74643E0A202020203C0B
:1030B00074643E0A2020202020203C666F726D2020
:1030C0006D6574686F643D22676574222061637466
:1030D000696F6E3D2265636F6E6669672E736874F3
:1030E0006D6C223E0A20202020202020203C696E8A
:1030F00070757420747970653D227465787422202F
:103100006E616D653D2266726F6D222076616C7511
:10311000653D2225212066726F6D222073697A65D4
:103120003D22333022206D61786C656E6774683D96
:10313000223830223E0A20202020202020203C69F6
:103140006E70757420747970653D227375626D6957
:1031500074222076616C75653D224F6B223E0A20F9
:1031600020202020203C2F666F726D3E0A202020F8
:10317000203C2F74643E0A20203C2F74723E0A20AB
:10318000203C74723E0A202020203C74643E546F20
:103190003A3C2F74643E0A202020203C74643E0A8E
:1031A0002020202020203C666F726D206D657468A1
:1031B0006F643D226765742220616374696F6E3DA0
:1031C0002265636F6E6669672E7368746D6C223E4C
:1031D0000A20202020202020203C696E7075742059
:1031E000747970653D227465787422206E616D6516
:1031F0003D22746F222076616C75653D2225212069
:10320000746F222073697A653D22333022206D610C
:10321000786C656E6774683D223830223E0A202043
:103220002020202020203C696E70757420747970F5
:10323000653D227375626D6974222076616C7565D7
:103240003D224F6B223E0A2020202020203C2F666A
:103250006F726D3E0A202020203C2F74643E0A20AD
:10326000203C2F74723E0A3C2F7461626C653E0AEA
:103270003C703E0A4D657373616765732073656EBC
:1032800074206173207375626A6563743A0A3C70D6
:103290003E0A3C666F726D206D6574686F643D22F6
:1032A0006765742220616374696F6E3D2265636F88
:1032B0006E6669672E7368746D6C223E0A2020501A
:1032C00044303A203C696E70757420747970653DA5
:1032D000227465787422206E616D653D2274657874
:1032E0007430222076616C75653D2225212074653D
:1032F000787430222073697A653D22363022206D41
:1033000061786C656E6774683D223830223E3C6996
:103310006E70757420747970653D227375626D6985
:1033200074222076616C75653D224F6B223E0A3C0B
:103330002F666F726D3E0A3C666F726D206D65740C
:10334000686F643D226765742220616374696F6EE3
:103350003D2265636F6E6669672E7368746D6C22BB
:103360003E0A20205044313A203C696E707574202A
:10337000747970653D227465787422206E616D6584
:103380003D227465787431222076616C75653D222A
:103390002521207465787431222073697A653D2275
:1033A000363022206D61786C656E6774683D223816
:1033B00030223E3C696E70757420747970653D22D0
:1033C0007375626D6974222076616C75653D224F5C
:1033D0006B223E0A3C2F666F726D3E0A3C666F722E
:1033E0006D206D6574686F643D226765742220618D
:1033F0006374696F6E3D2265636F6E6669672E73D5
:1034000068746D6C223E0A20205044323A203C6998
:103410006E70757420747970653D227465787422BD
:10342000206E616D653D227465787432222076616C
:103430006C75653D222521207465787432222073D5
:10344000697A653D22363022206D61786C656E6741
:1034500074683D223830223E3C696E707574207469
:103460007970653D227375626D6974222076616C96
:1034700075653D224F6B223E0A3C2F666F726D3E92
:103480000A3C666F726D206D6574686F643D2267DB
:1034900065742220616374696F6E3D2265636F6E8F
:1034A0006669672E7368746D6C223E0A2020504452
:1034B000333A203C696E70757420747970653D22D2
:1034C0007465787422206E616D653D227465787430
:1034D00033222076616C75653D2225212074657844
:1034E0007433222073697A653D22363022206D6163
:1034F000786C656E6774683D223830223E3C696E98
:1035000070757420747970653D227375626D69748D
:10351000222076616C75653D224F6B223E0A3C2F5E
:10352000666F726D3E0A3C666F726D206D657468E1
:103530006F643D226765742220616374696F6E3D1C
:103540002265636F6E6669672E7368746D6C223EC8
:103550000A20205044343A203C696E7075742074FF
:103560007970653D227465787422206E616D653DC9
:10357000227465787434222076616C75653D22254D
:1035800021207465787434222073697A653D22366F
:103590003022206D61786C656E6774683D2238302A
:1035A000223E3C696E70757420747970653D22739B
:1035B00075626D6974222076616C75653D224F6B72
:1035C000223E0A3C2F666F726D3E0A3C666F726D3A
:1035D000206D6574686F643D2267657422206163A5
:1035E00074696F6E3D2265636F6E6669672E7368DE
:1035F000746D6C223E0A20205044353A203C696E9E
:1036000070757420747970653D2274657874222019
:103610006E616D653D227465787435222076616C2B
:1036200075653D22252120746578743522207369E3
:103630007A653D22363022206D61786C656E677444
:10364000683D223830223E3C696E70757420747972
:1036500070653D227375626D6974222076616C75A8
:10366000653D224F6B223E0A3C2F666F726D3E0A0B
:103670003C666F726D206D6574686F643D2267658E
:10368000742220616374696F6E3D2265636F6E669C
:1036900069672E7368746D6C223E0A202050443690
:1036A0003A203C696E70757420747970653D22749F
:1036B00065787422206E616D653D2274657874367C
:1036C000222076616C75653D222521207465787411
:1036D00036222073697A653D22363022206D61786A
:1036E0006C656E6774683D223830223E3C696E70AE
:1036F000757420747970653D227375626D697422EA
:103700002076616C75653D224F6B223E0A3C2F6628
:103710006F726D3E0A3C666F726D206D6574686FE6
:10372000643D226765742220616374696F6E3D2277
:1037300065636F6E6669672E7368746D6C223E0AEE
:1037400020205044373A203C696E7075742074799B
:1037500070653D227465787422206E616D653D222E
:103760007465787437222076616C75653D22252159
:10377000207465787437222073697A653D2236306B
:1037800022206D61786C656E6774683D2238302246
:103790003E3C696E70757420747970653D22737556
:1037A000626D6974222076616C75653D224F6B22D3
:1037B0003E0A3C2F666F726D3E0A3C703E0A4E6FA9
:1037C00074653A20446570656E64696E67206F6E3B
:1037D00020746865206861726477617265206C612D
:1037E000796F75742C20736F6D652050494E277367
:1037F000206F6620706F7274204420636F756C6454
:1038000020626520726573657276656420666F72EA
:10381000207370656369616C2066756E6374696F8F
:103820006E73200A0A202020203C2F6469763E0A0D
:1038300020203C2F626F64793E0A3C2F68746D6CC7
:103840003E002F6372756D623634346E65742E6A75
:10385000706700FFD8FFE000104A464946000101AA
:1038600000000100010000FFDB004300030202032F
:10387000020203030303040303040508050504040B
:10388000050A070706080C0A0C0C0B0A0B0B0D0E99
:1038900012100D0E110E0B0B10161011131415151E
:1038A000150C0F171816141812141514FFDB00430B
:1038B0000103040405040509050509140D0B0D1485
:1038C00014141414141414141414141414141414B8
:1038D00014141414141414141414141414141414A8
:1038E0001414141414141414141414141414141498
:1038F00014FFC000110800470064030122000211F8
:1039000001031101FFC4001D0000020301010101B8
:10391000010000000000000000000806070904057F
:10392000030102FFC4003910000201030302050372
:10393000020305090000000001020304051100064E
:10394000120721081322315141617114321523A14C
:10395000334281829109243462637273B1C1FFC41E
:103960000019010002030100000000000000000037
:10397000000000000301020405FFC400261100023C
:103980000201040201040300000000000000010223
:103990000011030412213122415171A1C1F013140D
:1039A00081FFDA000C03010002110311003F00D572
:1039B0003D1A5CFC50788ADCBD17BF5AEDD68B757A
:1039C00004B4D5F4A66155568EEC1C390CA00651F2
:1039D000D8703DF3EFA56AFF00E2F3AA17D2CAFB45
:1039E00089EDF136709430C70E3F0C1797F5D45C13
:1039F000A1602697BBAC6A59982A819249C01A8A5D
:103A00005EFAB7B2B6E72171DD569A675F78CD5A94
:103A1000338FF2824FF4D26F62F0D7D55EACD8E824
:103A2000AF376DE10C9455D0254C06B6E13D43B25D
:103A3000BAF25ED8207B8FAF6F8D4DB68F80FA04BF
:103A4000A489F70EE8AB9AAB1FCD86DB1AC6AA7E17
:103A500003B8627F3C47E34A3944B72633DB2B7F08
:103A6000EDFEA25BA6AFDBB728EE7490CA6092446D
:103A7000565E2E0038C3007D88EFEDA90E97DF0C4F
:103A8000DB65BA3B06F1DBF7AB9C51538BC33D03BF
:103A900055CA88CF188D413F4CF60ADF60C06BDBFA
:103AA000EABF8A1DB5D3AB6524D40F05F6B6A2B123
:103AB000A8FF004E2730888A9656766E07D219489E
:103AC000EC3BFB8D5D5C103990481DCB9F46952BE0
:103AD000E7897DFCD533C74B6CB2D144958D443812
:103AE000739A50FC39A33162178B023D813F4C031E
:103AF000AF5E9BC51D7DFE9A46A6868EDD1B2ABB4A
:103B00004B23287A63C5792932BAA31E5E67B1F6C2
:103B1000C7D7519322E216F2BFC8BEA32DAF94D5EA
:103B20003153A3BCB2A46B1AF376660028F93F6E3A
:103B3000C749FEE3F11177A29C9BF5D604A59A052F
:103B4000496DF4B51E54B223F98010A80B21F70477
:103B5000E32085C8D43A3EA94FD44AE6B7C15AC932
:103B600036390AB97CC49E4521C842CE7B80338C4D
:103B700063B9F7EFD907502AC0E22CE623A531F448
:103B80008E459503A30746190CA720EBFAD40FA482
:103B900097C15F625A52D5522AA89A09AB028796FA
:103BA000360093E9F827EDD986A79AD08DB96E39FA
:103BB0005B70B868D1A3579688F7FB41AB0D3EF513
:103BC000D9F44E70B5F6CAA960FA92F4F247CD471F
:103BD000E52A0B1FFC7A55692A682112BD5C324E1A
:103BE00078FF002D564E2397DFB671F8D3D7E3AB9D
:103BF000A4974EA1D8B62DDEC76EADB95C6C97BF49
:103C0000E7434109964347342F1CFE91DFDB88CF01
:103C1000DF59E5B92BA92C324C973AB8E95A9E46A0
:103C20008A405B20303820E3D8E47D75047110FDB4
:103C3000CD0DF083D5EB34BD178E8AF779A2B74945
:103C400065A87A5E55D509103137AD082C476F53FA
:103C50002FF97535BEF8AAE986DD92449373435A6D
:103C6000E3DA3A28DE6C9FB328E3FD7590B74EBBCC
:103C70006D9B66628AAA5AB71DB8C2B907F073FF76
:103C800000CD46AB3C405430268AC73C51E0FAEAAE
:103C9000988503E72389D28E024DCB07204D01EB97
:103CA0002F887D9DBE377C55D68A5BBC34D344219A
:103CB000AA95FCA8B938C8570B872D818CFA90902B
:103CC000A0646AB3EAF598DB7635156C1542E26AB2
:103CD00098D52D48117A2504B795E6924E5B327A35
:103CE0004B23371EC1CE06927BE7582F9FAA31C7C0
:103CF0005029F1EA5E03DC7CFD7E9FE1A7936C43D3
:103D000036E4F0F36A8A4A94ACBA456DA6B9532AF0
:103D1000BA49292E8A648C2B7ACB311DD0725C492A
:103D2000FD991A465C6315308A6E583192AB356541
:103D30005EE5D9F67B95AE696086EF4F1C49515C14
:103D4000AACAF554EA1D1830FF00B641C8904610C3
:103D5000100039F6368DFE9E46B8436EF2E22163BE
:103D6000BA471AA404C7139E350849E4EBC5D59B8E
:103D7000F6BE321B863DD173E27AF9B32C15FB57A0
:103D80006EAD34B678AB5E586BA672AEC01200044E
:103D900004380091DB1907B81EC26FE14BA97B976D
:103DA00074F566D924FF00EF36E99268AAA1A481D0
:103DB0001800CBD8E5C316F505EC093F51DC69F9CD
:103DC000E8E3B6E242820DC657AE3B3AE32494F5EF
:103DD0005151C6F7A8E512BB35742AA237EFC4BB10
:103DE00098C1C37B2AAFC855C9EF13D9B63DD16B73
:103DF000DDD66AAA9A4A08E80F3F30C72B48CABCEA
:103E00004B06F522FB388FDB23BEA5BBB2B0592889
:103E1000112E2E2EF4D1CC92C34D5312F27A858BF3
:103E2000CB5978E3B3150A4FA9BD89F73A885BAE41
:103E3000F7C8256AF8EE0F3CB28E6D1CC9CE37FB71
:103E400001DB88C9FA63FF0059E521764DABD41E2A
:103E5000DEC24687A15BDA3B35D5A2A96A4A414F4B
:103E600039899A4918CB2C4C48C28F6C0383DBB735
:103E7000A47B7D5AF072323DB59D7D26EA1CF06E22
:103E8000C2F70ADBE4533AB24989126448DF1C6383
:103E90008814C20ECA40C1C852739EFA79FA5DBA3C
:103EA000A9B766D4827A63371A7634F8A9004B85AD
:103EB000FDA5B1F5E38EFF0039D6CD331168DDC322
:103EC0001781D9725DA3468D6F9AE725D64961B6F1
:103ED000D4C904427992366488B710EC07619C1CFF
:103EE00064FD7075929D42F081D56EB5EE4BA5656F
:103EF000A368534343577292AD3F8BD4A470C61945
:103F000098E46486703963217B8EFAD7397F61D556
:103F1000575D4F73B2D5D73B5453252BBB796812ED
:103F200047F467B0203A8538F8C8FB7D35CCD7AE6A
:103F3000A8A2FF00514137ECD7EFDFE905281BCEDF
:103F4000623757BC34EFFE92DE6ED6BBB2524D2DB7
:103F5000B72D514D65AFA5E51A71E41CC4B279A126
:103F60000A90D9641D8E4EAA9B75B5DE1491A9E204
:103F7000862219BCF96A0CAE71EFE9538EDF8FA16E
:103F8000D6B9F887D93B5EF3BA2DDBBABF6AD1DC6C
:103F90006B24AC8ADD573C14921AAF226468470147
:103FA0001CB18662CC8B97E5D9FEC0692CA0E91EB6
:103FB000DFB06E7BE5B2EB63AD26CB54B52D154D6E
:103FC0006C712D1C0D3AF3E714DDE4668D800B183F
:103FD000639392AC3B6B4A6A3226351957CE85D72C
:103FE000CFB99CB02FB565127A7974A9B5545DE646
:103FF000B0EE06B5D2A0696E15140F0D32A92117C7
:10400000D7839C92A077F723E74FFF0049ACD557A1
:10401000AE8E6CDA9ABBED35B2956921B74D155568
:1040200077E951A111A0284F1FDBC56139CFA8B393
:104030001E20FA9FC8ADABBB50EE3B6C0374CBB8EF
:104040006C559098D61F21161988426288F2C7983D
:104050001D5410E15B3D88527B2C0635B49B3452D5
:10406000DD16926AD88085A69DE12731B607A98B17
:10407000211E9FA161F9D623932EA14834083F58F1
:10408000D231EEA3C8FCC905A3C37ECAB4EECA38B8
:10409000A92D9433D4DCAB27B3C73DC8994BB541A8
:1040A0006862916368D465566494712C07153CF975
:1040B000615BDDD8BB9E97A75D2BBDCD1BC28F6119
:1040C000B98A3B7C31C0ACDE7C81E7F31588CAF746
:1040D0008C7718380304630D0AEB5EFF00A7D95BE9
:1040E0008B646E3A5AA64A687CAAAA6A7492478B75
:1040F000CD88A10416F7C085412A5B0703B0C01420
:10410000455758EAAE54372B3DA6D970BA9FD70A07
:1041100098228603FCCF75E7F38E0CC076F7D49C0B
:104120002CE393C71F98232AAD5475FAC36BDBDBCE
:104130009778D551C370BED5DE2DA569D45BCAF181
:104140004CC708E5231279BFA14F7423D64E4939D5
:10415000D56F71B36EAD92B6A9E2717BB6D771FD22
:104160003C94A087F5314E2E9DC762A41218118F82
:10417000DA31A8BF4FEFDBB4DFA83735CA89E8E6EC
:10418000BD99296A16E937E957CD880224959B889D
:104190004CA9271FF22000938D5E5B621B852B6E5E
:1041A000182E54B4344F6DAA712A5138901CB7663A
:1041B00004E0E1999D4640390C08FAE93B8E25F070
:1041C000E62F23AED2CBDCF7F65581526B4DB52BE3
:1041D000E0A192AA6E4F5F51C50F9F8CB31620804D
:1041E0003030010C3B2839D343D3292DBB2B7041F0
:1041F0006EA7DC12DDA1B9A845F3E065669147EF33
:10420000F33015B3903E72DA579ADB502B67A7ABA9
:104210006682B69E8CD7AA44BD847C03794738C990
:10422000CF63D8F71F5D5B949BFB744D55640D4EB7
:10423000B6BDB8D4E85E968A815529DCB10A017111
:10424000C97B713907B1CF7D463DCA77B77138DC7C
:10425000B020F71ADD1AE1B1DC0DD6CD435A78E66D
:10426000A214972872A7201C823DC7C1F8D1AEE0E6
:10427000362E6D9DA464635E35E2C30DC2360626FC
:10428000627E0EBDAD1AB0352A45CA3B7974F16520
:10429000A7A880D1CCD0CCB83CF054104329FF0063
:1042A000065539FB6B383AD7B48EDDEB05D2868ADA
:1042B0001692AAEAC2B6182004C8F952DFB4039EC7
:1042C000EA4FE06B60AED4E2A2958633DB59F3D5BA
:1042D0001EADDBACFD4B31D4EDD9AAEB2DECF46A6D
:1042E000E020C48B9380E49E2BFDA1CF0272DF01FE
:1042F00040CF9010C1916EF88B22B895F74D629324
:1043000070F4B6C90D7455747536AB84B022CB4EBB
:1043100049E014360A6090079CAA548190C47CEB53
:10432000B6FF00D0FDB515E6F7555B46D7DAC852A3
:104330002A832C92BBC5286629C52362A30386075E
:1043400015C630704633D951D60DDD2DA1D2C9B175
:10435000E9EDB47E6A440D524B32B8E2139061E548
:10436000212232700A9F6FAEB826A6EAB5E6AAF9F6
:104370004D0D54F433D26237A7B64290CCAE58A953
:1043800020C2A0BE081FDE2358CE8B2E462CE6AFDF
:10439000D026A24D7CFDA48EF5D3BA7BADB22B7D89
:1043A0005586DC96A4B609A292A69966A786A0C5F2
:1043B00080092117D2E58F7EC57031927516826B08
:1043C0000ED54DA0CF7BB7C2F6C9A47ACA4B6CA854
:1043D000C92B86E51A914C19880320A9F7098EC3C9
:1043E0003A925AFC23EFCDDB754A9ADA6AEAC26840
:1043F0005658AB6B4FBCCC88DC1CC84B02A4B293A4
:10440000F63F3AB2F697805B8816592E953474EBD6
:104410004F1BFEAA9D9DA5E52169006523DB08C908
:10442000DBE41F9D35741893927F7FD9344FCCA065
:1044300069B7F6D0B0580DB69A86E37845B809B991
:1044400034602F26014465E66662B9E39CC5FDDF52
:104450006F71AEFA8EA96E3BBBDD67B3ED0A50F308
:104460003209A4AB32D4C55529CB28703CB41FB453
:104470009031EE093CB074E2ED0F053B5F6F53D015
:104480008ACAF9EB2A28EADAB126862589998F0F9C
:104490004B1EFC8031E47C723F3AB3AC7D0AD956A6
:1044A00018A68E0B2C52A4D2096459D8B86719C328
:1044B00060F6CFA8FF00AEB50C3897A12463238027
:1044C0000088B5058FAC7BA6E1530C978FE0F045D3
:1044D000188E5A7A511533AB642F66853CCEDF6750
:1044E000CFBFB76D4EF67F826ADDCF596CAADD7BF8
:1044F0008EBAE7340985A89A192A73C972DEB99869
:104500009539CFB7D49F9D3C14967A1A0FF86A3824
:10451000203F291807FD75D9A6501D08D09F267287
:10452000DAADD15A2D747414E38C14B0A4118F85B4
:10453000550A3FA0D1AEAD1A2361A3468D109F8CC2
:10454000A19483EC7509ACE9258AAEF6D745A78A14
:1045500096A9DC4924B4F0223CAC083976C65BB895
:104560001EFF001A346890403DCFAD0F48B6AD1421
:10457000650DAA3A952DCC8A926405BE707B6A4F70
:10458000496AA2A018A6A48601FF004E303468D163
:104590000000EA75E8D1A3449868D1A34421A3465A
:1045A0008D10868D1A34427FFFD9002F726173748B
:1045B00065722E706E670089504E470D0A1A0A0008
:1045C00000000D49484452000000080000000801A6
:1045D00003000000FEC12CC80000000173524742D6
:1045E00000AECE1CE900000006504C5445F0F0F03F
:1045F000FAFAFA75CF021F000000097048597300DB
:10460000000B1300000B1301009A9C180000000718
:1046100074494D4507D8031F08113006704BFF0041
:1046200000001B49444154081D011000EFFF000029
:10463000007F007F007F007F007F007F007F185F8A
:10464000037A1923D7750000000049454E44AE4255
:104650006082002F736D747073746174732E73684D
:10466000746D6C0025213A202F6865616465722E97
:1046700068746D6C0A3C68313E534D545020436F52
:10468000756E746572733C2F68313E0A3C703E0A49
:1046900020203C7461626C653E0A202020203C741E
:1046A000723E0A2020202020203C74643E0A2020F4
:1046B0002020202020203C7072653E456D61696C91
:1046C000732073656E740A54696D656F75740A455D
:1046D000484C4F20636F6D6D616E64206661696C3C
:1046E00065640A61757468656E7469636174696F85
:1046F0006E206661696C65640A73656E646572201C
:1047000072656A65637465640A7265636970696578
:104710006E742072656A65637465640A636F6E7493
:10472000656E742072656A65637465643C2F70728F
:10473000653E0A2020202020203C2F74643E0A2061
:1047400020202020203C74643E0A202020202020AD
:1047500020203C7072653E252120736D74702D738E
:1047600074617473203C2F7072653E0A20202020F3
:1047700020203C2F74643E0A202020203C2F74729D
:104780003E0A20203C2F7461626C653E0A3C2F700B
:104790003E0A0A202020203C2F6469763E0A202011
:1047A0003C2F626F64793E0A3C2F68746D6C3E004A
:1047B000696F0066696C652D7374617473006E6552
:1047C000742D7374617473007463702D636F6E6EF7
:1047D00000667265656D656D00646863702D737445
:1047E00061747573006468637073656C00676574E9
:1047F0006970006765746D61736B006765746777D6
:1048000000676574617574680063757272656E74B3
:1048100069700063757272656E746D61736B0063AD
:10482000757272656E74677700636F6E6669672E66
:104830007368746D6C006765746D616300706F728E
:1048400074737461747573006164637374617475F7
:10485000730063616E6175746800556E6B6E6F777F
:104860006E2066756E6374696F6E2025732C2070E0
:104870006172616D733D25730A003C74723E3C7435
:10488000643E003C2F74643E3C74643E2535753CA8
:104890002F74643E3C2F74723E0A002535750A253C
:1048A00035750A2535750A0A2535750A2535750ABF
:1048B0002535750A2535750A2535750A2535750A94
:1048C0002535750A0A2535750A2535750A25357584
:1048D0000A2535750A0A2535750A2535750A2535DF
:1048E000750A0A2535750A2535750A2535750A258F
:1048F00035750A2535750A2535750A0A2535750A6F
:104900002535750A2535750A2535750A253575004D
:104910003C74723E3C74643E25643C2F74643E3C9F
:1049200074643E25752E25752E25752E25753A2520
:10493000753C2F74643E3C74643E00636C6F736519
:10494000640073796E2D726376640073796E2D73D3
:10495000656E740065737461626C69736865640088
:1049600066696E2D776169742D310066696E2D77E9
:104970006169742D3200636C6F73696E67007469CE
:104980006D652D77616974006C6173742D61636B63
:10499000003C2F74643E3C74643E25753C2F746467
:1049A0003E3C74643E25753C2F74643E3C74643E0A
:1049B00025632025633C2F74643E3C2F74723E0AAD
:1049C00000253575006E6F742073746172746564B0
:1049D0000073656E7420646973636F766572006F2F
:1049E00066666572207265636569766564007365E5
:1049F0006E74207265717565737400636F6E66699D
:104A000067207265636569766564006E616B20720C
:104A1000656365697665640074696D656F757400BA
:104A200073656E7420726566726573680072656680
:104A3000726573682073756363656564656400738C
:104A4000656C65637465640025752E25752E257566
:104A50002E257500646863703D0069703D006D61CE
:104A6000736B3D0067773D00617574683D002530CC
:104A700032783A253032783A253032783A25303259
:104A8000783A253032783A2530327800307825303F
:104A90003258203D20256325632563256325632542
:104AA0006325632563006E2E612E006E2E612E003D
:104AB00030783025303358203D20252E3266205660
:104AC000002564256325642563256425632564002A
:104AD00047455420002F696E6465782E7368746DA5
:104AE0006C00485454502F312E3120323030204F3A
:104AF0004B0D0A436F6E6E656374696F6E3A206387
:104B00006C6F73650D0A002E7368746D6C002F3422
:104B100030342E68746D6C00485454502F312E314F
:104B200020343034204E6F7420666F756E640D0A29
:104B3000436F6E6E656374696F6E3A20636C6F735A
:104B4000650D0A0043616368652D436F6E74726F73
:104B50006C3A206E6F2D63616368650D0A50726157
:104B6000676D613A206E6F2D63616368650D0A0D94
:104B70000A002E68746D6C00436F6E74656E742D40
:104B8000747970653A20746578742F68746D6C0D53
:104B90000A0D0A002E63737300436F6E74656E74A2
:104BA0002D747970653A20746578742F6373730D72
:104BB0000A0D0A002E706E6700436F6E74656E7486
:104BC0002D747970653A20696D6167652F706E6725
:104BD0000D0A0D0A002E67696600436F6E74656EDC
:104BE000742D747970653A20696D6167652F676906
:104BF000660D0A0D0A002E6A706700436F6E7465B9
:104C00006E742D747970653A20696D6167652F6ADD
:104C10007065670D0A0D0A002E6A706567002E74B4
:104C2000787400436F6E74656E742D747970653A94
:104C300020746578742F706C61696E0D0A4361632E
:104C400068652D436F6E74726F6C3A206E6F2D63C2
:104C5000616368650D0D0A507261676D613A206E7F
:104C60006F2D63616368650D0A0D0A004F6B0A00C2
:104C700042616420636F6D6D616E640A00496E76F7
:104C8000616C696420706F72740A00496E76616CA1
:104C900069642070696E0A00496E76616C696420EF
:104CA000686578206E756D6265720A00496E76617E
:104CB0006C696420626F6F6C65616E2076616C75E3
:104CC000650A00496E76616C6964206368616E6E86
:104CD000656C206E756D6265720A00496E76616C56
:104CE0006964207265666572656E6365206E616DCC
:104CF000650A0041444325693D253034580A005077
:104D0000256325693D25690A005025633D2530321C
:104D1000580A00693D253032582530325825303246
:104D200058253032580A00515549540D0A00515542
:104D300049540D0A000D0A2E0D0A000D0A2E0D0A07
:104D40000053656E742062792042757474657266D2
:104D50006C7920492F4F206669726D77617265000A
:104D600053656E7420627920427574746572666C46
:104D70007920492F4F206669726D77617265000D49
:104D80000A0D0A000D0A0D0A003E0D0A5375626AEB
:104D90006563743A20003E0D0A5375626A65637458
:104DA0003A20003E0D0A546F3A203C003E0D0A5452
:104DB0006F3A203C0046726F6D3A203C0046726F9D
:104DC0006D3A203C00444154410D0A004441544195
:104DD0000D0A000D0A000D0A005243505420544F92
:104DE0003A20005243505420544F3A20000D0A00FC
:104DF0000D0A004D41494C2046524F4D3A20004D7E
:104E000041494C2046524F4D3A20000D0A000D0AF0
:104E1000000D0A000D0A0041555448204C4F4749E7
:104E20004E0D0A0041555448204C4F47494E0D0A3B
:104E30000045484C4F20627574746572666C790D3C
:104E40000A0045484C4F20627574746572666C792F
:104E50000D0A0065636F6E6669672E7368746D6C0A
:104E600000736D74702D737461747300736D74705E
:104E7000497000736D74705573657200736D747052
:104E800050770066726F6D007465787430007465D9
:104E90007874310074657874320074657874330006
:104EA000746578743400746578743500746578744A
:104EB0003600746578743700746F002535750A25DF
:104EC00035750A2535750A2535750A2535750A257E
:104ED00035750A253575002671756F743B00266798
:104EE000743B00266C743B0026616D703B000040F3
:104EF0007A10F35A00A0724E18090010A5D4E800E9
:104F000000E87648170000E40B54020000CA9A3B00
:104F1000000000E1F5050000809698000000404286
:104F20000F000000A0860100000010270000000014
:104F3000E803000000006400000000000A00000018
:104F400000000100000000002C76D888DC674F08C4
:104F500023DFC1DFAE59E1B1B796E5E3E453C63ACA
:104F6000E651997696E8E6C28426EB898C9B62ED41
:104F7000407C6FFCEFBC9C9F40F2BAA56FA5F490FB
:104F8000055A2AF75C936B6CF9676DC11BFCE0E472
:104F90000D47FEF520E6B500D0ED902E03009435C8
:104FA00077050080841E080000204E0A000000C81B
:104FB0000C333333330F986E12831141EF8D21146C
:104FC000893BE65516CFFEE6DB18D1844B381BF73C
:104FD0007C1D901DA4BBE424203284725E228100DB
:104FE000C9F124ECA1E53D276364696E6F707375A8
:104FF00078585B0011241FBECFEFD0E1DEBFCDBFDC
:1050000012E0A0E0B1E0EEE5FDED02C005900D92EA
:10501000AA3DB107D9F71EE0AAEDB2E001C01D928A
:10502000AE32B107E1F70E94D25A0C94AD6E0C94E7
:105030000000A1E1B0E0EFE1F8E20C946B6E3C01FE
:105040007F876E876A01FC0117821682838181FD4A
:1050500003C06FEF7FEF71C39E012F5F3F4F398B0E
:10506000288BF3012381EE85FF8523FD859123FFA6
:105070008191FF87EE87882309F45CC3853251F460
:10508000EE85FF8523FD859123FF8191FF87EE87C4
:10509000853229F490E0B3010E94766AE2CF982F1E
:1050A00010E0882499241032B0F49B3269F09C32CD
:1050B00028F4903251F0933271F40BC09D3239F0E4
:1050C000903349F4116028C01260146025C0186044
:1050D00023C0106121C017FD2AC0892F80538A3058
:1050E00078F416FF06C0FAE09F9E902C1124980ECB
:1050F00013C03AE0839E802C1124880E10620CC0ED
:105100009E3221F416FD16C3106406C09C3611F4BD
:10511000106802C0983659F4EE85FF8523FD9591FD
:1051200023FF9191FF87EE87992309F0BCCF892F48
:105130008554833020F4812F8061905E07C0892FD1
:105140008556833008F0A1C1812F8F7E86FD02C075
:1051500076E0972E6FE3F62EF822953619F4F0E4F8
:10516000FF2A07C0963619F420E8F22A02C09110EF
:105170009A94F7FE0BC03BE3391520F427E05CE37B
:10518000B52E0EC0B92CB39427E00AC047E04915EC
:1051900028F427E0BB2447E0942E02C0292DBB242D
:1051A000C60104969D878C87F6016081718182819A
:1051B0009381AE014F5F5F4F0B2D0E94D2686C014F
:1051C0000981202E332400FF04C003FD02C01DE22C
:1051D00009C0F1FE02C01BE205C0F2FC02C010E0F3
:1051E00001C010E2C1018C709070892BB9F11123BC
:1051F00011F483E001C084E0881510F088240AC00F
:10520000881AF3FC07C080E290E0B3010E94766A3E
:105210008A94C9F7112329F0812F90E0B3010E94ED
:10522000766A23FE03C000E710E00EC004E710E03A
:105230000BC0E114F10409F0805290E0B3010E9428
:10524000766A0F5F1F4F05C0EF2CFF24F0E1EF22BD
:10525000FF24F8018491882361F714C1F7FE12C07E
:10526000BC0C24FE04C08A81813309F4BA941B1457
:105270001CF0BB24B3942DC0F8E0FB1550F538E0CA
:10528000B32E27C0F6FC25C0892D90E08C159D0516
:105290004CF02CEFC2162FEFD20624F030E8F32AA0
:1052A00001C09A94992049F0E2E0F0E0EC0FFD1F74
:1052B000E90DF11D80818033A1F3F7FE0AC0B92CFE
:1052C000B394892D90E0C816D90614F0992401C032
:1052D0009C18F7FC03C025E030E009C01C141D0435
:1052E0001CF021E030E003C096012F5F3F4F1123F7
:1052F00011F02F5F3F4F992029F0892D90E0019602
:10530000280F391F882D90E02817390714F08824BA
:1053100001C0821A4F2C5524C20189709070892BCC
:1053200039F008C080E290E0B3010E94766A8A9466
:105330008820C1F7112329F0812F90E0B3010E944A
:10534000766A43FE07C008C080E390E0B3010E9484
:10535000766A8A948820C1F7F7FE46C08601D7FE98
:1053600002C000E010E076010894E11CF11CE01A94
:10537000F10A41E050E04C0F5D1FE40EF51E2601DE
:105380004B185108892D90E0AA24BB24A81AB90A09
:105390005FEF0F3F150729F48EE290E0B3010E9402
:1053A000766AC016D10634F0401651061CF4F70197
:1053B000808101C080E3015010400894E11CF11C81
:1053C0000A151B052CF090E0B3010E94766AE0CF2D
:1053D0000C151D0539F49A81963318F4953311F4A0
:1053E00024FE81E390E04BC08A81813309F00F7E77
:1053F00090E0B3010E94766A9920A1F08EE290E0DD
:10540000B3010E94766A12E0E1E0F0E0EC0FFD1FCC
:10541000E10FF11D1F5F808190E0B3010E94766A69
:105420009A9491F744FC03C085E690E002C085E4BD
:1054300090E0B3010E94766AD7FC05C0C114D10484
:1054400041F404FF06C0D094C194D108D3948DE2F6
:1054500001C08BE290E0B3010E94766A80E305C050
:105460008F5F26EF3FEFC20ED31E3AE0C316D10482
:10547000BCF790E0B3010E94766AC601C096B30102
:105480000E94766ACC84DD8452C1933631F0933722
:1054900099F0933509F059C023C0F60180818983C2
:1054A0005E010894A11CB11C22E030E0C20ED31EA4
:1054B00021E0E22EF12C12C0F601A080B18016FD91
:1054C00003C06FEF7FEF02C0692D70E022E030E093
:1054D000C20ED31EC5010E94586A7C011F7713C0FB
:1054E000F601A080B18016FD03C06FEF7FEF02C010
:1054F000692D70E022E030E0C20ED31EC5010E948B
:10550000E9697C01106813FF07C01BC080E290E0CE
:10551000B3010E94766A8A94882D90E0E816F90615
:10552000A8F30FC0F50117FD859117FF81915F0169
:1055300090E0B3010E94766A81108A940894E10891
:10554000F108E114F10471F7F2C0943611F09936C4
:1055500089F517FF08C0F60120813181428153810E
:1055600084E090E00AC0F601808191819C0144278B
:1055700037FD4095542F82E090E0C80ED91E9FE67B
:10558000F92EF12257FF09C050954095309521958D
:105590003F4F4F4F5F4F90E8F92ACA01B901AE0162
:1055A0004F5F5F4F2AE030E00E94116BE82EE889E0
:1055B000EE1A41C0953721F41F7E2AE030E01CC06E
:1055C000197F9F3661F0903720F4983509F0B2C00A
:1055D0000FC0903739F0983709F0ACC004C028E00C
:1055E00030E00AC0106114FD146020E130E004C016
:1055F00014FD166020E132E017FF08C0F60160815B
:1056000071818281938144E050E008C0F60180817D
:105610009181BC0180E090E042E050E0C40ED51ED4
:10562000AE014F5F5F4F0E94116BE82E5889E51A5B
:105630008FE7F82EF122F6FE0BC08EEFF822E91468
:1056400038F4F4FE07C0F2FC05C09FEEF92202C058
:105650001E2D01C0192DF4FE0DC0FE01EE0DF11D31
:105660008081803319F4E9EEFE2208C01F5FF2FE4C
:1056700005C003C08F2D867809F01F5F0F2DF3FC46
:1056800014C0F0FE0FC0181510F09E2C0BC09E2CFD
:10569000980C911A182D06C080E290E0B3010E9488
:1056A000766A1F5F1815C0F304C0181510F4811A2C
:1056B00001C0882404FF0FC080E390E0B3010E9482
:1056C000766A02FF1DC001FD03C088E790E00EC0AE
:1056D00088E590E00BC0802F867891F001FF02C032
:1056E0008BE201C080E2F7FC8DE290E0B3010E9402
:1056F000766A06C080E390E0B3010E94766A9A94CD
:10570000E914C0F3EA94E1E0F0E0EC0FFD1FEE0DC8
:10571000F11D808190E0B3010E94766AEE2091F73E
:1057200006C080E290E0B3010E94766A8A948820E5
:10573000C1F797CCF30166817781CB016196E2E1F5
:105740000C94876E4698439A9FEF91B982B980B1C5
:10575000439880B1449862B980B180B180B180B182
:10576000449862B9449A80B1469A11B808950F934B
:105770001F93282F8B018AE090E0622F0E94A22BBA
:10578000612F772767FD7A958BE090E00E94A22B2E
:105790008CE090E0602F0E94A22B8DE090E061E011
:1057A0000E94A22B1F910F9108950F931F93282FF2
:1057B000192F062F89E090E0622F0E94A22B88E02B
:1057C00090E0612F0E94A22B82E090E0602F0E9467
:1057D000A22B1F910F9108950F931F93282F192F1C
:1057E000062F89E090E0622F0E94A22B88E090E0D3
:1057F000612F0E94A22B84E090E0602F0E94A22BD8
:105800001F910F9108954698439A9FEF91B982B9DD
:1058100080B1439880B111B8459880B180B180B112
:1058200080B180B1459A469A08950F931F93CF9304
:10583000DF9384E590E00E94032C8823D1F789E56B
:1058400090E060E00E94A22B8AE590E060E00E9478
:10585000A22B80E090E0EC012196FE01EC56F74F80
:1058600060810E94EC2BCE01CE30D105A1F7809152
:10587000A2039091A303C79760F013C08E010F5F3E
:105880001F4FF801EC56F74FCE0160810E94EC2BC0
:10589000E8018091A2039091A303C817D90770F380
:1058A00025C0CE012196FE01EC56F74F60810E9483
:1058B000EC2BC633D105A9F70EC08E010F5F1F4F29
:1058C000E091AD03F091AE03E20FF31FCE016081D2
:1058D0000E94EC2BE8019E01265330408091A203E8
:1058E0009091A303C6972817390738F387E590E00E
:1058F0006D2F0E94A22B88E590E06C2F0E94A22BB6
:1059000089E590E060E00E94A22B8AE590E060E0EB
:105910000E94A22B83E590E061E00E94A22BDF9120
:10592000CF911F910F9108950E94152C0895EF9229
:10593000FF920F931F93CF93DF938FE190E00E942C
:10594000032C182F00E080E290E00E94032CE82E48
:10595000FF24E02AF12AC0E0D0E009C081E090E015
:105960000E94032CFE01EB56F74F80832196CE1543
:10597000DF05A0F3C701DF91CF911F910F91FF9039
:10598000EF900895CF93DF9383E690E00E94032C7D
:1059900081FF0AC081E190E061E00E94A22B81E1D9
:1059A00090E060E00E94A22B8DE190E00E94032C29
:1059B00087FF17C08EE190E00E94032C87FF11C083
:1059C00087E190E00E94032C88E190E00E94032C84
:1059D0000E94972CEC0181E190E066E00E94A22BEE
:1059E00002C0C0E0D0E0CE01DF91CF9108951F93B7
:1059F000682F192F89E090E00E94A22B88E090E0A8
:105A0000612F0E94A22B82E090E00E94032C1F9144
:105A100008951F93682F192F89E090E00E94A22B10
:105A200088E090E0612F0E94A22B84E090E00E9429
:105A3000032C1F910895CF93DF9388E690E060E0F8
:105A40000E94A22B89E690E060E00E94A22BC6E7AC
:105A5000D3E005C085E090E00E94032C899383E0A9
:105A6000C23AD807B9F7DF91CF910895FF920F930B
:105A70001F93182F092FF62EF89487E690E065EA19
:105A80000E94A22B87E690E061EF0E94A22B88E69D
:105A900090E0612F0E94A22B89E690E0602F0E9487
:105AA000A22B86E090E06F2D0E94A22B78948BE7CA
:105AB00090E00E94032C83FDFACF1F910F91FF907D
:105AC0000895CF93DF93F89487E690E065EA0E940B
:105AD000A22B87E690E061EF0E94A22B88E690E07F
