:100000000C94D00F0C94ED0F0C941C100C94ED0F6D
:100010000C94ED0F0C94ED0F0C94ED0F0C94ED0F70
:100020000C94ED0F0C94ED0F0C94ED0F0C94ED0F60
:100030000C94ED0F0C94ED0F0C94ED0F0C94ED0F50
:100040000C94EF0F0C94ED0F0C94ED0F0C94ED0F3E
:100050000C94ED0F0C94ED0F0C94ED0F0C94ED0F30
:100060000C94ED0F0C94ED0F0C94ED0F0C94ED0F20
:100070001B5B500023000D0A72656164792E200D10
:100080000A00696E697420435032323030202E2EBF
:100090002E0048454C5000646F6E65200A0D0043E9
:1000A0005032323030207265736574202E2E2E004F
:1000B00043505245534554004E45544D41534B0017
:1000C00049500020200D0A0020204E45544D415338
:1000D0004B203C7878782E7878782E7878782E783F
:1000E00078783E2020202F2F20646973706C61790E
:1000F000202F20736574206E65746D61736B0D0A1B
:100100000020204950203C7878782E7878782E7816
:1001100078782E7878783E20202020202020202FEC
:100120002F20646973706C6179202F2073657420AF
:10013000495020616464726573730D0A0020204386
:10014000505245534554202020202020202020209C
:1001500020202020202020202020202F2F207265EA
:10016000696E697469616C697A6520657468657225
:100170006E657420636F6E74726F6C6C6572200DA7
:100180000A0020436F6D6D616E64733A200D0A00A2
:100190002073657269616C3A2031393230302062E7
:1001A00061756420384E31200D0A00202A2A2A2049
:1001B000656D61696C3A2073746566616E40706547
:1001C000727A626F726E2E6E6574200D0A00202A9C
:1001D0002A2A207765623A207777772E7065727ABF
:1001E000626F726E2E6E6574200D0A00202A2A2A14
:1001F0002076657273696F6E20312E2061646170A4
:1002000074656420627920532E5065727A626F7231
:100210006E205B32332E30312E323030395D202A61
:100220002A2A200D0A000D0A4164616D2044756E72
:100230006B656C73207549502077656273657276C3
:100240006572206578616D706C6520666F72204301
:1002500072756D623634342D4E45540D0A000D0A08
:10026000002E000D0A002E00206279746573200DA7
:100270000A00617661696C61626C652052414D20B3
:100280006D656D6F72793A0074696D656F75740D87
:100290000A0074696D656F75740D0A000A0D000A15
:1002A0000D4D41433A004350323230302062756682
:1002B0006665722066756C6C0D0A004C45443D30D5
:1002C0000D0A004C45443D310D0A00666F756E64A1
:1002D00020696F2E7368746D6C0D0A00666F756E01
:1002E00064203F0D0A000D0A534352495054002F19
:1002F00070726F6365737365732E7368746D6C00D1
:1003000025213A202F6865616465722E68746D6CD2
:100310000A3C68313E53797374656D2070726F6367
:1003200065737365733C2F68313E3C62723E3C746A
:1003300061626C652077696474683D2231303025D4
:10034000223E0A3C74723E3C74683E49443C2F7421
:10035000683E3C74683E4E616D653C2F74683E3C5F
:1003600074683E5072696F726974793C2F74683E8C
:100370003C74683E506F6C6C2068616E646C657292
:100380003C2F74683E3C74683E4576656E74206808
:10039000616E646C65723C2F74683E3C74683E50BC
:1003A000726F6373746174653C2F74683E3C2F7484
:1003B000723E0A25212070726F6365737365730A3C
:1003C00025213A202F666F6F7465722E68746D6CEC
:1003D000002F3430342E68746D6C003C68746D6C82
:1003E0003E0A20203C626F6479206267636F6C6F05
:1003F000723D227768697465223E0A202020203CE5
:1004000063656E7465723E0A2020202020203C68BF
:10041000313E343034202D2066696C65206E6F7457
:1004200020666F756E643C2F68313E0A20202020C4
:1004300020203C68333E476F203C6120687265662F
:100440003D222F223E686572653C2F613E20696E19
:1004500073746561642E3C2F68333E0A202020208F
:100460003C2F63656E7465723E0A20203C2F626FDC
:1004700064793E0A3C2F68746D6C3E002F66696C8F
:1004800065732E7368746D6C0025213A202F6865A2
:10049000616465722E68746D6C0A3C68313E466911
:1004A0006C6520737461746973746963733C2F683D
:1004B000313E0A3C63656E7465723E0A3C7461624B
:1004C0006C652077696474683D22333030223E0ABF
:1004D0003C74723E3C74643E3C6120687265663DCB
:1004E000222F696E6465782E68746D6C223E2F69C8
:1004F0006E6465782E68746D6C3C2F613E3C2F7481
:10050000643E0A3C74643E25212066696C652D7347
:1005100074617473202F696E6465782E68746D6CD5
:100520000A3C2F74643E3C74643E3C696D672073E2
:1005300072633D222F666164652E706E67222068AB
:1005400065696768743D31302077696474683D255A
:10055000212066696C652D7374617473202F696E38
:100560006465782E68746D6C0A3E203C2F74643E7E
:100570003C2F74723E0A3C74723E3C74643E3C6193
:1005800020687265663D222F66696C65732E7368FC
:10059000746D6C223E2F66696C65732E7368746D82
:1005A0006C3C2F613E3C2F74643E0A3C74643E25D3
:1005B000212066696C652D7374617473202F6669E0
:1005C0006C65732E7368746D6C0A3C2F74643E3CCA
:1005D00074643E3C696D67207372633D222F6661CF
:1005E00064652E706E6722206865696768743D31A6
:1005F000302077696474683D25212066696C652D1B
:100600007374617473202F66696C65732E736874DC
:100610006D6C0A3E203C2F74643E3C2F74723E0A7F
:100620003C74723E3C74643E3C6120687265663D79
:10063000222F7463702E7368746D6C223E2F746366
:10064000702E7368746D6C3C2F613E3C2F74643E59
:100650000A3C74643E25212066696C652D737461C3
:100660007473202F7463702E7368746D6C0A3C2F42
:1006700074643E3C74643E3C696D67207372633DF4
:10068000222F666164652E706E6722206865696737
:1006900068743D31302077696474683D2521206697
:1006A000696C652D7374617473202F7463702E737D
:1006B00068746D6C0A3E203C2F74643E3C2F74724B
:1006C0003E0A3C74723E3C74643E3C612068726534
:1006D000663D222F73746174732E7368746D6C227F
:1006E0003E2F73746174732E7368746D6C3C2F614C
:1006F0003E3C2F74643E0A3C74643E2521206669AA
:100700006C652D7374617473202F73746174732E10
:100710007368746D6C0A3C2F74643E3C74643E3C98
:10072000696D67207372633D222F666164652E7068
:100730006E6722206865696768743D31302077698B
:100740006474683D25212066696C652D737461743D
:1007500073202F73746174732E7368746D6C0A3E0A
:10076000203C2F74643E3C2F74723E0A3C74723EEF
:100770003C74643E3C6120687265663D222F737450
:10078000796C652E637373223E2F7374796C652EBA
:100790006373733C2F613E3C2F74643E0A3C746467
:1007A0003E25212066696C652D7374617473202F5A
:1007B0007374796C652E6373730A3C2F74643E3CCA
:1007C00074643E3C696D67207372633D222F6661DD
:1007D00064652E706E6722206865696768743D31B4
:1007E000302077696474683D25212066696C652D29
:1007F0007374617473202F7374796C652E637373D3
:100800000A3E203C2F74643E3C2F74723E0A3C74B6
:10081000723E3C74643E3C6120687265663D222FE6
:100820003430342E68746D6C223E2F3430342E6890
:10083000746D6C3C2F613E3C2F74643E0A3C7464C2
:100840003E25212066696C652D7374617473202FB9
:100850003430342E68746D6C0A3C2F74643E3C74E2
:10086000643E3C696D67207372633D222F6661644C
:10087000652E706E6722206865696768743D313047
:100880002077696474683D25212066696C652D7345
:1008900074617473202F3430342E68746D6C0A3E8A
:1008A000203C2F74643E3C2F74723E0A3C74723EAE
:1008B0003C74643E3C6120687265663D222F66612F
:1008C00064652E706E67223E2F666164652E706EC1
:1008D000673C2F613E3C2F74643E0A3C74643E25A5
:1008E000212066696C652D7374617473202F6661B5
:1008F00064652E706E670A3C2F74643E3C74643EDF
:100900003C696D67207372633D222F666164652EBA
:10091000706E6722206865696768743D31302077A2
:10092000696474683D25212066696C652D73746166
:100930007473202F666164652E706E670A3E203CDA
:100940002F74643E3C2F74723E0A3C2F7461626CBB
:10095000653E0A3C2F63656E7465723E0A25213A36
:10096000202F666F6F7465722E68746D6C0A002F8D
:10097000666F6F7465722E68746D6C0020203C2F5A
:10098000626F64793E0A3C2F68746D6C3E002F687C
:1009900065616465722E68746D6C003C21444F4340
:1009A000545950452048544D4C205055424C4943D1
:1009B00020222D2F2F5733432F2F445444204854A7
:1009C0004D4C20342E3031205472616E736974693D
:1009D0006F6E616C2F2F454E222022687474703A1E
:1009E0002F2F7777772E77332E6F72672F54522FF2
:1009F00068746D6C342F6C6F6F73652E6474642231
:100A00003E0A3C68746D6C3E0A20203C6865616457
:100A10003E0A202020203C7469746C653E57656C4A
:100A2000636F6D6520746F20746865207549502070
:100A300077656220736572766572213C2F746974E4
:100A40006C653E0A202020203C6C696E6B2072652C
:100A50006C3D227374796C657368656574222074CB
:100A60007970653D22746578742F637373222068F2
:100A70007265663D227374796C652E637373223ED2
:100A800020200A20203C2F686561643E0A20203C1B
:100A9000626F6479206267636F6C6F723D222366B8
:100AA00066666565632220746578743D22626C61B8
:100AB000636B223E0A0A20203C64697620636C61E5
:100AC00073733D226D656E75223E0A20203C646979
:100AD0007620636C6173733D226D656E75626F780D
:100AE000223E3C6120687265663D222F223E46729E
:100AF0006F6E7420706167653C2F613E3C2F6469A6
:100B0000763E0A20203C64697620636C6173733DF5
:100B1000226D656E75626F78223E3C612068726559
:100B2000663D2266696C65732E7368746D6C223E37
:100B300046696C6520737461746973746963733C8E
:100B40002F613E3C2F6469763E0A20203C64697622
:100B500020636C6173733D226D656E75626F7822E0
:100B60003E3C6120687265663D2273746174732E29
:100B70007368746D6C223E4E6574776F726B207370
:100B80007461746973746963733C2F613E3C2F64B4
:100B900069763E0A20203C64697620636C61737339
:100BA0003D226D656E75626F78223E3C61206872F1
:100BB00065663D227463702E7368746D6C223E4EC0
:100BC0006574776F726B0A2020636F6E6E65637455
:100BD000696F6E733C2F613E3C2F6469763E0A203C
:100BE000203C62723E0A20203C2F6469763E0A2037
:100BF000200A20203C64697620636C6173733D2277
:100C0000636F6E74656E74626C6F636B223E0A0074
:100C10002F696E6465782E68746D6C003C21444FBA
:100C200043545950452048544D4C205055424C494E
:100C30004320222D2F2F5733432F2F445444204835
:100C4000544D4C20342E3031205472616E736974CF
:100C5000696F6E616C2F2F454E222022687474706C
:100C60003A2F2F7777772E77332E6F72672F545264
:100C70002F68746D6C342F6C6F6F73652E647464A1
:100C8000223E0D0A3C68746D6C3E0D0A20203C68C3
:100C90006561643E0D0A202020203C7469746C65F7
:100CA0003E57656C636F6D6520746F2074686520B6
:100CB0007549502077656220736572766572213CB4
:100CC0002F7469746C653E0D0A202020203C6C69ED
:100CD0006E6B2072656C3D227374796C6573686508
:100CE00065742220747970653D22746578742F6371
:100CF00073732220687265663D227374796C652E69
:100D0000637373223E20200D0A20203C2F6865610A
:100D1000643E0D0A20203C626F6479206267636F35
:100D20006C6F723D2223666666656563222074657A
:100D300078743D22626C61636B223E0D0A0D0A20BD
:100D4000203C64697620636C6173733D226D656E2F
:100D500075223E0D0A20203C64697620636C617325
:100D6000733D226D656E75626F78223E3C6120682E
:100D70007265663D222F223E46726F6E742070614E
:100D800067653C2F613E3C2F6469763E0D0A0D0A73
:100D900020203C64697620636C6173733D226D652D
:100DA0006E75626F78223E3C6120687265663D22F6
:100DB00066696C65732E7368746D6C223E46696C4F
:100DC0006520737461746973746963733C2F613E49
:100DD0003C2F6469763E0D0A20203C6469762063CE
:100DE0006C6173733D226D656E75626F78223E3C57
:100DF0006120687265663D2273746174732E736836
:100E0000746D6C223E4E6574776F726B20737461E3
:100E1000746973746963733C2F613E3C2F64697617
:100E20003E0D0A20203C64697620636C6173733D3B
:100E3000226D656E75626F78223E3C612068726536
:100E4000663D227463702E7368746D6C223E4E652D
:100E500074776F726B20636F6E6E656374696F6E0B
:100E6000733C2F613E3C2F6469763E0D0A093C6459
:100E7000697620636C6173733D226D656E75626F78
:100E800078223E3C6120687265663D22696F2E7350
:100E900068746D6C223E494F3C2F613E3C2F646963
:100EA000763E0D0A20203C62723E0D0A20203C2F27
:100EB0006469763E0D0A0D0A20203C646976206341
:100EC0006C6173733D22636F6E74656E74626C6FD8
:100ED000636B223E0D0A20203C703E0D0A53746560
:100EE00066616E205065727A626F726E277320435E
:100EF00072756D623634342D4E45542057656273D9
:100F00006572766572206578616D706C65207631EA
:100F10002E332E3C62723E5468657365207765629D
:100F200020706167657320617265207365727665F4
:100F300064206279206120736D616C6C207765623A
:100F4000207365727665722072756E6E696E6720A9
:100F50006F6E20746F70206F6620746865203C612E
:100F600020687265663D22687474703A2F2F777717
:100F7000772E736963732E73652F7E6164616D2FA5
:100F80007569702F223E75495020656D62656464F5
:100F90006564205443502F495020737461636B3C47
:100FA0002F613E2E3C62723E0D0A506F7274656472
:100FB00020746F204372756D623634342D4E455463
:100FC000206D6F64756C652062792053746566616D
:100FD0006E205065727A626F726E203C612068727A
:100FE00065663D22687474703A2F2F7777772E707C
:100FF00065727A626F726E2E6E6574223E28777704
:10100000772E7065727A626F726E2E6E6574293CEF
:101010002F610D0A20203C2F703E0D0A20203C70CD
:101020003E0D0A2020436C69636B206F6E2074684C
:1010300065206C696E6B732061626F766520666FE8
:1010400072207765622073657276657220736572AF
:101050007669636520616E6420737461746973746A
:101060006963732E0D0A20203C2F703E0D0A20204C
:101070003C2F626F64793E0D0A3C2F68746D6C3EA4
:101080000D0A002F7374796C652E637373006831D9
:10109000200A7B0A2020746578742D616C69676E64
:1010A0003A2063656E7465723B0A2020666F6E7429
:1010B0002D73697A653A313470743B0A2020666F6B
:1010C0006E742D66616D696C793A617269616C2C20
:1010D00068656C7665746963613B0A2020666F6E93
:1010E000742D7765696768743A626F6C643B0A2097
:1010F0002070616464696E673A313070783B200A11
:101100007D0A0A626F64790A7B0A0A2020626163A1
:101110006B67726F756E642D636F6C6F723A20230C
:101120006666666565633B0A2020636F6C6F723A82
:10113000626C61636B3B0A0A2020666F6E742D73CC
:10114000697A653A3870743B0A2020666F6E742D98
:1011500066616D696C793A617269616C2C68656C65
:101160007665746963613B0A7D0A0A2E6D656E754A
:101170000A7B0A20206D617267696E3A20347078AC
:101180003B0A202077696474683A3730253B0A09A6
:101190000A202070616464696E673A323070783B6F
:1011A0000A090A2020626F726465723A20736F6CBC
:1011B0006964203170783B0A20206261636B67723A
:1011C0006F756E642D636F6C6F723A20236666666E
:1011D0006364323B0A2020746578742D616C696702
:1011E0006E3A6C6566743B0A20200A2020666F6E9A
:1011F000742D73697A653A3970743B0A2020666FE2
:101200006E742D66616D696C793A617269616C2CDE
:1012100068656C7665746963613B20200A7D0A0A03
:101220006469762E6D656E75626F780A7B0A202080
:1012300077696474683A203230253B0A090A202015
:10124000626F726465723A20303B0A2020666C6FD0
:1012500061743A206C6566743B0A746578742D611C
:101260006C69676E3A2063656E7465723B0A7D0A2D
:101270000A2E636F6E74656E74626C6F636B0A7BAB
:1012800020200A20206D617267696E3A20347078E0
:101290003B0A202077696474683A3730253B0A0A94
:1012A000202070616464696E673A323070783B0A5E
:1012B0000A2020626F726465723A2031707820646F
:1012C0006F747465643B0A20206261636B67726FA0
:1012D000756E642D636F6C6F723A20776869746500
:1012E0003B0A0A2020666F6E742D73697A653A385E
:1012F00070743B0A2020666F6E742D66616D696C98
:10130000793A617269616C2C68656C7665746963A1
:10131000613B20200A0A7D0A0A702E696E74726F82
:101320000A7B0A20206D617267696E2D6C65667498
:101330003A323070783B0A20206D617267696E2DF9
:1013400072696768743A323070783B0A0A20206606
:101350006F6E742D73697A653A313070743B0A2F61
:101360002A2020666F6E742D7765696768743A620B
:101370006F6C643B202A2F0A2020666F6E742D66E6
:10138000616D696C793A617269616C2C68656C7623
:1013900065746963613B20200A7D0A0A702E636CC4
:1013A000696E6B0A7B0A2020666F6E742D73697AF2
:1013B000653A313270743B0A2020666F6E742D6678
:1013C000616D696C793A636F75726965722C6D6FC6
:1013D0006E6F73706163653B20200A20207465780E
:1013E000742D616C69676E3A63656E7465723B0A51
:1013F0007D0A0A702E636C696E6B390A7B0A2020A5
:10140000666F6E742D73697A653A3970743B0A2081
:1014100020666F6E742D66616D696C793A636F75C5
:10142000726965722C6D6F6E6F73706163653B20BE
:10143000200A2020746578742D616C69676E3A63A8
:10144000656E7465723B0A7D0A0A0A700A7B0A207F
:101450002070616464696E672D6C6566743A313022
:1014600070783B0A7D0A0A702E72696768740A7B7D
:101470000A2020746578742D616C69676E3A726910
:101480006768743B200A7D0A002F7463702E7368AE
:10149000746D6C0025213A202F6865616465722E99
:1014A00068746D6C0A3C68313E43757272656E7487
:1014B00020636F6E6E656374696F6E733C2F683165
:1014C0003E3C62723E3C7461626C65207769647474
:1014D000683D2231303025223E0A3C74723E3C7415
:1014E000683E4C6F63616C3C2F74683E3C74683E90
:1014F00052656D6F74653C2F74683E3C74683E5352
:10150000746174653C2F74683E3C74683E52657427
:1015100072616E736D697373696F6E733C2F74685B
:101520003E3C74683E54696D65723C2F74683E3C65
:1015300074683E466C6167733C2F74683E3C2F7440
:10154000723E0A2521207463702D636F6E6E656391
:1015500074696F6E730A25213A202F666F6F746568
:10156000722E68746D6C0A0A002F666164652E70B5
:101570006E670089504E470D0A1A0A0000000D4997
:10158000484452000000040000000A080200000065
:101590001C996859000000097048597300000B132A
:1015A00000000B1301009A9C180000000774494DBD
:1015B0004507D60608141B39AF5BC0E30000001DC9
:1015C00074455874436F6D6D656E74004372656148
:1015D0007465642077697468205468652047494DB4
:1015E00050EF64256E0000003A4944415408D77515
:1015F0008C3112001010C42E379E4065FDFF83F41D
:101600000A1C8D549BC9CC9A3D9073716791D47418
:1016100036A95501F82958C8BF48C481740BA30FD7
:101620007CDB04E84005DFA1F3FC73000000004907
:10163000454E44AE426082002F73746174732E7302
:1016400068746D6C0025213A202F686561646572AD
:101650002E68746D6C0A3C68313E4E6574776F720B
:101660006B20737461746973746963733C2F6831A0
:101670003E0A3C63656E7465723E0A3C7461626C3E
:10168000652077696474683D223330302220626FB0
:10169000726465723D2230223E0A3C74723E3C7494
:1016A000643E3C7072653E0A495020202020202074
:1016B00020202020205061636B6574732072656365
:1016C00065697665640A20202020202020202020C3
:1016D0002020205061636B6574732073656E740AFB
:1016E0000920202020205061636B65747320647290
:1016F0006F707065640A4950206572726F72732052
:1017000020202049502076657273696F6E2F6865BE
:1017100061646572206C656E6774680A2020202001
:101720002020202020202020204950206C656E673A
:1017300074682C206869676820627974650A2020C3
:1017400020202020202020202020204950206C65AF
:101750006E6774682C206C6F7720627974650A203C
:1017600020202020202020202020202049502066DA
:101770007261676D656E74730A202020202020201E
:101780002020202020204865616465722063686500
:10179000636B73756D0A20202020202020202020DC
:1017A00020202057726F6E672070726F746F636FA6
:1017B0006C0A49434D500920202020205061636B62
:1017C0006574732072656365697665640A202020FC
:1017D000202020202020202020205061636B657471
:1017E000732073656E740A20202020202020202082
:1017F000202020205061636B6574732064726F70C9
:101800007065640A20202020202020202020202015
:101810002054797065206572726F72730A54435058
:10182000202020202020202020205061636B657420
:10183000732072656365697665640A202020202024
:1018400020202020202020205061636B65747320AD
:1018500073656E740A202020202020202020202064
:1018600020205061636B6574732064726F707065C3
:10187000640A202020202020202020202020204317
:101880006865636B73756D206572726F72730A2081
:10189000202020202020202020202020446174614E
:1018A000207061636B65747320776974686F7574F9
:1018B0002041434B730A202020202020202020207C
:1018C0002020205265736574730A20202020202078
:1018D0002020202020202052657472616E736D6973
:1018E0007373696F6E730A0920202020204E6F20C9
:1018F000636F6E6E656374696F6E206176616C698B
:1019000061626C650A092020202020436F6E6E659D
:101910006374696F6E20617474656D707473207484
:101920006F20636C6F73656420706F7274730A3C10
:101930002F7072653E3C2F74643E3C74643E3C7074
:1019400072653E2521206E65742D73746174730A6F
:101950003C2F7072653E3C2F7461626C653E0A3CA0
:101960002F63656E7465723E0A25213A202F666FDB
:101970006F7465722E68746D6C0A002F696F2E7318
:1019800068746D6C003C21444F43545950452048C5
:10199000544D4C205055424C494320222D2F2F5757
:1019A00033432F2F4454442048544D4C20342E3080
:1019B00031205472616E736974696F6E616C2F2F80
:1019C000454E222022687474703A2F2F7777772E35
:1019D00077332E6F72672F54522F68746D6C342FCB
:1019E0006C6F6F73652E647464223E0A3C68746D7C
:1019F0006C3E0A20203C686561643E0A202020205D
:101A00003C7469746C653E556970205765627365F6
:101A100072766572206F75747075742064656D6F71
:101A20003C2F7469746C653E0A202020203C6C6950
:101A30006E6B2072656C3D227374796C657368659A
:101A400065742220747970653D22746578742F6303
:101A500073732220687265663D227374796C652EFB
:101A6000637373223E20200A20203C2F6865616446
:101A70003E0A20203C626F6479206267636F6C6F5E
:101A8000723D2223666666656563222074657874FC
:101A90003D22626C61636B223E0A0A20203C64692D
:101AA0007620636C6173733D226D656E75223E0A0C
:101AB00020203C64697620636C6173733D226D6500
:101AC0006E75626F78223E3C6120687265663D22C9
:101AD0002F223E46726F6E7420706167653C2F61E5
:101AE0003E3C2F6469763E0A20203C646976206380
:101AF0006C6173733D226D656E75626F78223E3C3A
:101B00006120687265663D2266696C65732E736834
:101B1000746D6C223E46696C6520737461746973E0
:101B2000746963733C2F613E3C2F6469763E0A20E2
:101B3000203C64697620636C6173733D226D656E31
:101B400075626F78223E3C6120687265663D227343
:101B5000746174732E7368746D6C223E4E65747775
:101B60006F726B20737461746973746963733C2F53
:101B7000613E3C2F6469763E0A20203C64697620F1
:101B8000636C6173733D226D656E75626F78223E82
:101B90003C6120687265663D227463702E736874C0
:101BA0006D6C223E4E6574776F726B20636F6E6E44
:101BB000656374696F6E733C2F613E3C2F64697678
:101BC0003E0A093C64697620636C6173733D226D43
:101BD000656E75626F78223E3C6120687265663D75
:101BE00022696F2E7368746D6C223E494F203C2F22
:101BF000613E3C2F6469763E0A20203C62723E0AB8
:101C000020203C2F6469763E0A20203C64697620BF
:101C1000636C6173733D22636F6E74656E74626C86
:101C20006F636B223E0A093C68313E5377697463E7
:101C300068204C45443C2F68313E0A093C702073B3
:101C400074796C653D22666F6E742D66616D696C8A
:101C5000793A417269616C2C73616E732D73657290
:101C600069663B20666F6E742D73697A653A31350B
:101C700070783B20636F6C6F723A626C7565223EC0
:101C80000A09095B3C6120687265663D222F696F15
:101C90002E7368746D6C3F4C4544313D31223E6774
:101CA0007265656E204C4544204F4E3C2F613E5D71
:101CB0003C62723E0A093C2F703E0A093C703E0AA3
:101CC00009093C70207374796C653D22666F6E74EF
:101CD0002D66616D696C793A417269616C2C736132
:101CE0006E732D73657269663B20666F6E742D731B
:101CF000697A653A313570783B20636F6C6F723A60
:101D0000626C7565223E0A09095B3C612068726558
:101D1000663D222F696F2E7368746D6C3F4C45448D
:101D2000313D30223E677265656E204C4544204F40
:101D300046463C2F613E5D3C62723E0A20203C2FAD
:101D4000703E0A20203C2F626F64793E0A3C2F6867
:101D5000746D6C3E0A00687474703A2F2F00323034
:101D600030200033303120003330322000474554DA
:101D70002000485454502F312E3000485454502FD6
:101D8000312E3100636F6E74656E742D74797065D9
:101D90003A2000746578742F68746D6C006C6F6302
:101DA0006174696F6E3A2000686F73743A20000D99
:101DB0000A002F696E6465782E68746D6C002F348C
:101DC00030342E68746D6C00526566657265723AC7
:101DD00000485454502F312E3020323030204F4B99
:101DE0000D0A5365727665723A207549502F312E6F
:101DF0003020687474703A2F2F7777772E73696369
:101E0000732E73652F7E6164616D2F7569702F0D60
:101E10000A436F6E6E656374696F6E3A20636C6F10
:101E200073650D0A00485454502F312E3020343041
:101E300034204E6F7420666F756E640D0A536572A0
:101E40007665723A207549502F312E3020687474AF
:101E5000703A2F2F7777772E736963732E73652F00
:101E60007E6164616D2F7569702F0D0A436F6E6E10
:101E7000656374696F6E3A20636C6F73650D0A0059
:101E8000436F6E74656E742D747970653A20746555
:101E900078742F706C61696E0D0A0D0A00436F6EC5
:101EA00074656E742D747970653A20746578742F3A
:101EB00068746D6C0D0A0D0A00436F6E74656E7464
:101EC0002D747970653A20746578742F6373730D7F
:101ED0000A0D0A00436F6E74656E742D7479706517
:101EE0003A20746578742F746578740D0A0D0A00B1
:101EF000436F6E74656E742D747970653A20696DE8
:101F00006167652F706E670D0A0D0A00436F6E746E
:101F1000656E742D747970653A20696D6167652FFF
:101F20006769660D0A0D0A00436F6E74656E742D45
:101F3000747970653A20696D6167652F6A706567AD
:101F40000D0A0D0A00436F6E74656E742D747970FE
:101F5000653A206170706C69636174696F6E2F6F90
:101F6000637465742D73747265616D0D0A0D0A00DA
:101F70002E68746D6C002E7368746D6C002E68741E
:101F80006D002E637373002E706E67002E67696696
:101F9000002E6A7067002E747874002E74787400B6
:101FA00011241FBECFEFD0E1DEBFCDBF13E0A0E014
:101FB000B1E0ECE3FCE602C005900D92A23AB10755
:101FC000D9F71BE0A2EAB3E001C01D92A43EB1071D
:101FD000E1F70E9424140C941C360C9400001F920C
:101FE0000F920FB60F9211248F939F938091A303AA
:101FF00081508093A3038823C1F48BE48093A303CF
:1020000080915B0490915C04019690935C048093B2
:102010005B048091A203882329F4419881E0809396
:10202000A20303C0419A1092A2039F918F910F9037
:102030000FBE0F901F9018951F920F920FB60F9220
:10204000112428980F900FBE0F901F901895109292
:10205000C50080E48093C40088E18093C10086E0DD
:102060008093C2001092C0000895FC018091C000CE
:1020700085FFFCCF84918093C60080E090E00895B6
:10208000982F8091C00085FFFCCF9093C60080E020
:1020900090E00895FC0107C08091C00085FFFCCF4F
:1020A0009093C600319690819923B1F70895FC0171
:1020B00008C08091C00085FFFCCF84918093C6004A
:1020C000319684918823A9F708958091C00087FFF5
:1020D000FCCF8091C6000895DC01443010F420E06C
:1020E0000AC0872F82958F708A3010F0895C01C0FA
:1020F000805D8C9321E0433078F0872F8F70E22F42
:10210000F0E08A3020F0EA0FFB1F895C03C0EA0F81
:10211000FB1F805D80832F5F4230A8F0CB01807F62
:10212000907034E0959587953A95E1F7E22FF0E0CD
:102130008A3020F0EA0FFB1F895C03C0EA0FFB1F07
:10214000805D80832F5F442371F06F70E22FF0E099
:102150006A3020F0EA0FFB1F695C03C0EA0FFB1F27
:10216000605D60832F5FA20FB11D1C920895F894EB
:1021700082E084BD95E095BD90E897BD80936E00A8
:102180007894089580915B0490915C040895FC011B
:1021900007C08091C00085FFFCCF9093C6003196A8
:1021A00090819923B1F70895E6E2F2E008C08091AA
:1021B000C00085FFFCCF84918093C6003196849146
:1021C0008823A9F7ECEEF1E008C08091C00085FFFC
:1021D000FCCF84918093C600319684918823A9F71F
:1021E000EEECF1E008C08091C00085FFFCCF849147
:1021F0008093C600319684918823A9F7EBEAF1E039
:1022000008C08091C00085FFFCCF84918093C600F8
:10221000319684918823A9F7E0E9F1E008C0809124
:10222000C00085FFFCCF84918093C60031968491D5
:102230008823A9F7E2E8F1E008C08091C00085FF9B
:10224000FCCF84918093C600319684918823A9F7AE
:10225000EDE3F1E008C08091C00085FFFCCF8491E0
:102260008093C600319684918823A9F7E1E0F1E0DC
:1022700008C08091C00085FFFCCF84918093C60088
:10228000319684918823A9F7E8ECF0E008C08091AA
:10229000C00085FFFCCF84918093C6003196849165
:1022A0008823A9F7E3ECF0E008C08091C00085FF27
:1022B000FCCF84918093C600319684918823A9F73E
:1022C00084EF91E028E833E1F9013197F1F70197C4
:1022D000D9F70895CF92DF92EF92FF920F931F9359
:1022E000DF93CF93CDB7DEB72E970FB6F894DEBF4E
:1022F0000FBECDBF8C018091F8059091F9059A83AE
:1023000089838091FA059091FB059C838B836E01F4
:102310000894C11CD11CF8018081882319F0C801E0
:10232000FF2468C04AE050E0BE016B5F7F4F8981A7
:1023300090E00E94E932FC0107C08091C00085FF57
:10234000FCCF9093C600319690819923B1F78E010E
:102350000F5F1F4F55E0E52EF12CEC0EFD1E44E003
:10236000C42ED12CCC0EDD1E27C08091C00085FF6D
:10237000FCCF84918093C600319684918823A9F77D
:102380004AE050E0B701F801818190E00E94E93213
:10239000FC0107C08091C00085FFFCCF9093C60070
:1023A000319690819923B1F70F5F1F4F0C151D05D2
:1023B00019F4EEE5F2E00BC0E1E6F2E0DECF809149
:1023C000C00085FFFCCF84918093C6003196849134
:1023D0008823A9F733C02E3259F4F80110820E94E5
:1023E0003432F601EF0DF11D8083F394C80101969C
:1023F0000F5F1F4FF8012081222319F0F3E0FF1532
:1024000050F7F80110820E943432F601EF0DF11DF1
:102410008083F601928180E0438150E0482B592B64
:10242000218130E0908180E0282B392B3093F80512
:102430002093F9055093FA054093FB052E960FB6AD
:10244000F894DEBF0FBECDBFCF91DF911F910F91EA
:10245000FF90EF90DF90CF900895CF92DF92EF92B0
:10246000FF920F931F93DF93CF93CDB7DEB72E97D5
:102470000FB6F894DEBF0FBECDBF8C018091FC0576
:102480009091FD059A8389838091FE059091FF05C7
:102490009C838B836E010894C11CD11CF801808140
:1024A000882319F0C801FF2468C04AE050E0BE014B
:1024B0006B5F7F4F898190E00E94E932FC0107C089
:1024C0008091C00085FFFCCF9093C600319690812B
:1024D0009923B1F78E010F5F1F4F75E0E72EF12CA6
:1024E000EC0EFD1E64E0C62ED12CCC0EDD1E27C0E6
:1024F0008091C00085FFFCCF84918093C600319607
:1025000084918823A9F74AE050E0B701F80181815E
:1025100090E00E94E932FC0107C08091C00085FF75
:10252000FCCF9093C600319690819923B1F70F5F4D
:102530001F4F0C151D0519F4E3E6F2E00BC0E6E6AB
:10254000F2E0DECF8091C00085FFFCCF84918093C4
:10255000C600319684918823A9F733C02E3259F4EE
:10256000F80110820E943432F601EF0DF11D8083D4
:10257000F394C80101960F5F1F4FF80120812223B9
:1025800019F0F3E0FF1550F7F80110820E94343281
:10259000F601EF0DF11D8083F601928180E0438109
:1025A00050E0482B592B218130E0908180E0282B8E
:1025B000392B3093FC052093FD055093FE05409385
:1025C000FF052E960FB6F894DEBF0FBECDBFCF919C
:1025D000DF911F910F91FF90EF90DF90CF900895C2
:1025E000EF92FF920F931F93DF93CF93CDB7DEB798
:1025F000C05AD0400FB6F894DEBF0FBECDBFAC01BD
:10260000DE01119690E0EE24FF2401C09F5FFA01E5
:10261000E90FF11D2081822F81508032B8F311968D
:10262000FC93EE930894E11CF11C222311F41AC0D0
:102630009F5F292F30E0BA01620F731FFB01808179
:10264000813218F4882339F40DC0FA018081280FF3
:10265000311D232B69F7FB0110821296FAE0EF1669
:10266000F104A1F619810A81812F902F0E94DF3297
:1026700060EC70E0812F902F0E946632892BA9F4C4
:10268000A12FB02FFD0101900020E9F73397EA1741
:10269000FB0759F481E0E816F10419F08B819C8165
:1026A00002C080E091E00E942D1268EB70E0812F63
:1026B000902F0E946632892BA9F4A12FB02FFD0123
:1026C00001900020E9F73897EA17FB0759F4E1E099
:1026D000EE16F10419F08B819C8102C080E091E03C
:1026E0000E946A1160EB70E0812F902F0E94663289
:1026F000892B41F5A12FB02FFD0101900020E9F7B2
:102700003897EA17FB07F1F4EFE9F0E008C0809191
:10271000C00085FFFCCF84918093C60031968491E0
:102720008823A9F70E945819E7E9F0E008C08091D2
:10273000C00085FFFCCF84918093C60031968491C0
:102740008823A9F762E970E0812F902F0E946632FA
:10275000892B61F4A12FB02FFD0101900020E9F732
:102760003597EA17FB0711F40E94D410C056DF4FCB
:102770000FB6F894DEBF0FBECDBFCF91DF911F9192
:102780000F91FF90EF900895EF92FF920F931F9398
:10279000DF93CF93CDB7DEB72A970FB6F894DEBF9D
:1027A0000FBECDBFE0EAEE2EEFE0FE2EC7010E9485
:1027B0003231009741F486EF9FEFE80EF91EE114E5
:1027C000F104A1F702C00E94DC31E2E7F2E008C0A8
:1027D0008091C00085FFFCCF84918093C600319624
:1027E00084918823A9F74AE050E08E010F5F1F4FC4
:1027F000B801C7010E94E932F80107C08091C0000A
:1028000085FFFCCF9093C600319690819923B1F754
:10281000E8E6F2E008C08091C00085FFFCCF84911B
:102820008093C600319684918823A9F7C7012A9620
:102830000FB6F894DEBF0FBECDBFCF91DF911F91D1
:102840000F91FF90EF9008953F924F925F926F9299
:102850007F928F929F92AF92BF92CF92DF92EF9230
:10286000FF920F931F93DF93CF93CDB7DEB7C85579
:10287000D0400FB6F894DEBF0FBECDBF11B88FEFBA
:1028800084B987B912B815B887EF88B9459A449AC0
:1028900043984698479A1092C50080E48093C400FC
:1028A00088E18093C10086E08093C2001092C0004E
:1028B0000E94D4100E94C41384EF91E028E833E111
:1028C000F9013197F1F70197D9F7F89488E08093EF
:1028D000690082E08DBB7894E2E8F0E008C0809166
:1028E000C00085FFFCCF84918093C600319684910F
:1028F0008823A9F784E690E028E833E1F9013197CD
:10290000F1F70197D9F70E94581980E091E00E94F1
:102910002D12F89482E084BD95E095BD90E897BDB6
:1029200080936E00789464EF71E0CE0101960E946E
:10293000192460E177E2CE0105960E941924E6E7AA
:10294000F0E008C08091C00085FFFCCF84918093A7
:10295000C600319684918823A9F784E690E028E8A0
:1029600033E1F9013197F1F70197D9F70E94263049
:102970000E941E250E94F219EE24FF244E010894A5
:10298000811C911C8AE6482E84E0582E07E1602EB7
:1029900005E0702E15E0A12EB12CAC0EBD1EBAE0E4
:1029A0003B2EA9E0CA2ED12CCC0EDD1E0E94DD18D4
:1029B00090935E0480935D04892B89F100910C064D
:1029C00010910D0680E098E00E941826081719075C
:1029D00079F40E940E2E81E00E94402680915D04D1
:1029E00090915E04892B09F451C00E94F82E14C006
:1029F00000910C0610910D0686E098E00E941826C2
:102A00000817190709F042C00E94422E80915D0408
:102A100090915E04892BD1F10E94091737C0C4013F
:102A20000E94F723892B91F1C4010E94ED2350925B
:102A300069044092680482E00E94402680915D040F
:102A400090915E04892B21F00E94F82E0E940917B4
:102A5000709269046092680482E00E94402680912E
:102A60005D0490915E04892B21F00E94F82E0E9453
:102A70000917C5010E94F723892B29F0C5010E947F
:102A8000ED230E94F92FF2E0EF2EF12C8091C0008F
:102A900087FF8CCF0091C6008091C00085FFFCCFDE
:102AA0000093C6000D30F1F48091C00085FFFCCF8B
:102AB0003092C600EC0CFD1CF7011082C6010E948A
:102AC000F012E4E7F0E008C08091C00085FFFCCF81
:102AD00084918093C600319684918823A9F7EE24CF
:102AE000FF241DC00830B1F4E114F10409F45ECFF5
:102AF000E0E7F0E008C08091C00085FFFCCF849142
:102B00008093C600319684918823A9F70894E10840
:102B1000F1084CCFFEE4EF16F1040CF047CFF601BC
:102B2000EE0DFF1D00830894E11CF11C3FCF439A7A
:102B30003FEF31B929E022B94398449882B9449AC9
:102B400082B911B8439A31B988E082B94398449860
:102B500092B9449A92B911B8439A31B984E082B9D2
:102B6000439811B8459880B180B180B180B180B1EF
:102B7000459A0895439A3FEF31B929E022B9439825
:102B8000449882B9449A82B911B8439A31B988E01D
:102B900082B94398449892B9449A92B911B8439A29
:102BA00031B984E082B94398449862B9449A62B9D1
:102BB00011B80895439A3FEF31B929E022B94398FB
:102BC000449882B9449A82B911B8439A31B988E0DD
:102BD00082B94398449892B9449A92B911B8439AE9
:102BE00031B982E082B9439811B8459880B180B17B
:102BF00080B180B180B1459A0895439A3FEF31B9D1
:102C000029E022B94398449882B9449A82B911B80C
:102C1000439A31B988E082B94398449892B9449A6A
:102C200092B911B8439A31B982E082B94398449875
:102C300062B9449A62B911B80895439A9FEF91B965
:102C40008FE182B9439811B8459880B180B180B1C5
:102C500080B180B1459A382F20E0439A91B980E243
:102C600082B9439811B8459880B180B180B180B1E4
:102C700080B1459A482F50E0422B532B20E030E0A2
:102C80006FEF91E012C0439A61B992B9439811B8BD
:102C9000459880B180B180B180B180B1459AF90189
:102CA000E050FA4F80832F5F3F4F2417350758F3CA
:102CB000CA0108950F931F93CF93DF932FEF94E5ED
:102CC000439A3FEF21B992B9439811B8459880B122
:102CD00080B180B180B180B1459A882389F7439A49
:102CE00031B989E582B94398449812B8449A12B828
:102CF00011B8439A31B98AE582B94398449812B819
:102D0000449A12B811B880E090E0EC012196FC01E1
:102D1000E050FA4F60810E94BA15CE01CE30D10545
:102D2000A1F780915D0490915E04C79760F013C095
:102D30008E010F5F1F4FFE01E050FA4F6081CE0100
:102D40000E94BA15E80180915D0490915E04C81755
:102D5000D90770F325C0CE012196FC01E050FA4F4F
:102D600060810E94BA15C633D105A9F70EC08E0145
:102D70000F5F1F4FE0916604F0916704E20FF31FAD
:102D80006081CE010E94BA15E8019E0126533040B1
:102D900080915D0490915E04C6972817390738F337
:102DA000439A9FEF91B987E582B943984498D2B985
:102DB000449AD2B911B8439A91B988E582B9439837
:102DC0004498C2B9449AC2B911B8439A91B989E5F5
:102DD00082B94398449812B8449A12B811B8439AE9
:102DE00091B98AE582B94398449812B8449A12B8C6
:102DF00011B8439A91B983E582B94398449881E028
:102E000082B9449A82B911B8DF91CF911F910F9185
:102E100008950E945A160895439A9FEF91B982B976
:102E20004398449862B9449A62B911B80895439A94
:102E30009FEF91B982B9439811B8459880B180B19C
:102E400080B180B180B1459A0895439A4FEF41B95E
:102E50009AE092B94398449882B9449A82B911B8D9
:102E6000272F332727FD3A95439A41B98BE082B942
:102E70004398449822B9449A22B911B8439A41B967
:102E80008CE082B94398449862B9449A62B911B807
:102E9000439A41B98DE082B94398449881E082B960
:102EA000449A82B911B808950F931F93439A9FEFE4
:102EB00091B983E682B9439811B8459880B180B141
:102EC00080B180B180B1459A439A91B985E782B9C2
:102ED0004398449884E082B9449A82B911B82FEF9C
:102EE00093E6439A4FEF21B992B9439811B84598A8
:102EF00080B180B180B180B180B1459A85FFF1CFBA
:102F0000439A41B989E782B9439844988EEF82B9D0
:102F1000449A82B911B8439A41B998E792B9439853
:102F2000449812B8449A12B811B820E533ECF9016C
:102F30003197F1F7439A41B98FE782B9439811B8B5
:102F4000459880B180B180B180B180B1459A439AF3
:102F500041B992B94398449880E882B9449A82B9B9
:102F600011B8F9013197F1F7439A41B992B94398F1
:102F7000449880EE82B9449A82B911B88EEE92E0FC
:102F800028E833E1F9013197F1F70197D9F728EBF8
:102F90003BE07FEF6FE740E553EC05C0CA010197C6
:102FA000F1F721503040439A71B962B9439811B892
:102FB000459880B180B180B180B180B1459A80FDE3
:102FC00004C02115310551F702C0232B21F482E9F9
:102FD00092E00E94571028EB3BE07FEF68E740E566
:102FE00053EC05C0CA010197F1F721503040439AD4
:102FF00071B962B9439811B8459880B180B180B178
:1030000080B180B1459A80FD04C02115310551F78A
:1030100002C0232B21F488E892E00E94571063EB52
:1030200070E481E00E94251765E170E082E00E9473
:10303000251762E17CE083E00E9425176EEE75E0C3
:1030400085E00E942517439A1FEF11B988E682B9DF
:10305000439844988AEF82B9449A82B911B8439A46
:1030600011B989E682B9439844988FE182B9449AAC
:1030700082B911B8439A11B905E002B9439811B861
:10308000459880B180B180B180B180B1459A90E01F
:10309000439A11B902B9439811B8459820B120B1AB
:1030A00020B120B120B1459A722F60E0682B792BB6
:1030B00082E10E942517439A11B902B9439811B8C9
:1030C000459880B180B180B180B180B1459A90E0DF
:1030D000439A11B902B9439811B8459820B120B16B
:1030E00020B120B120B1459A722F60E0682B792B76
:1030F00081E10E942517439A11B902B9439811B88A
:10310000459880B180B180B180B180B1459A90E09E
:10311000439A11B902B9439811B8459820B120B12A
:1031200020B120B120B1459A722F60E0682B792B35
:1031300080E10E942517439A11B980E782B943982C
:1031400044988CE082B9449A82B911B861E070E089
:1031500080E00E942517439A11B984E682B943980A
:10316000449883E082B9449A82B911B8439A11B95C
:103170008DE782B94398449812B8449A12B811B8AE
:10318000439A11B983E682B9439811B8459880B142
:1031900080B180B180B180B1459A439A11B98FE76F
:1031A00082B9439811B8459880B180B180B180B19F
:1031B00080B1459A1F910F9108951F93439A1FEF75
:1031C00011B983E682B9439811B8459880B180B1AE
:1031D00080B180B180B1459A8093A40381FF18C06B
:1031E00086EA92E00E945710439A11B991E192B990
:1031F0004398449881E082B9449A82B911B8439ABD
:1032000011B992B94398449812B8449A12B811B8B7
:103210001092A403439A1FEF11B98DE182B943982C
:1032200011B8459880B180B180B180B180B1459A24
:1032300087FF39C0439A11B98EE182B9439811B81A
:10324000459880B180B180B180B180B1459A87FF47
:103250002AC0289A439A11B987E182B9439811B8D4
:10326000459880B180B180B180B180B1459A439AD0
:1032700011B988E182B9439811B8459880B180B1FD
:1032800080B180B180B1459A0E941D169C01439A7D
:1032900011B981E182B94398449886E082B9449A91
:1032A00082B911B802C020E030E0C9011F91089531
:1032B000CF92DF92EF92FF920F931F93DF93CF9302
:1032C000CDB7DEB760970FB6F894DEBF0FBECDBFA7
:1032D0000E945417439A9FEF91B988E682B94398A8
:1032E00044988AEF82B9449A82B911B8439A91B945
:1032F00089E682B9439844988FE182B9449A82B9A9
:1033000011B88FE992E00E9457108E010F5F1F4F96
:10331000CC24CA9425E0D22E97E0E92EF12CEC0EB5
:10332000FD1E439AC1B8D2B8439811B8459880B1F0
:1033300080B180B180B160B1459AF80161938F018D
:1033400042E070E0C7010E946C10C7010E944A1061
:103350000E151F0531F78CE992E00E945710898104
:103360008093BD038A818093BE038B818093BF03CA
:103370008C818093C0038D818093C1038E81809363
:10338000C2038FEF9FEF9093F9058093F8058FEFBD
:1033900090E09093FB058093FA0520EC38EA309397
:1033A000FD052093FC0582EB9EE09093FF05809342
:1033B000FE053093C9052093C80582EB91E09093F8
:1033C000CB058093CA0560960FB6F894DEBF0FBE9A
:1033D000CDBFCF91DF911F910F91FF90EF90DF90C4
:1033E000CF90089580E090E50E94E32508950F9323
:1033F0001F93CF93DF938C01EB01FC0186899789A2
:10340000893E910509F47DC08A3E910588F48F3D7F
:10341000910541F1803E910518F4892BF1F0CDC062
:10342000843E9105D1F1873E910509F0C6C053C095
:103430008D3E910509F491C08E3E910528F48B3E96
:10344000910509F0BAC073C08F3E910509F49BC085
:10345000813F910509F0B1C0A3C08FED90E0F80164
:10346000978B868BCE010E947632AC01BE01C801DB
:1034700046960E947923882309F4A4C06EE270E086
:10348000C80180599F4F0E94D432EC01009769F423
:1034900084EE90E0F801978B868B85E49FE10E9493
:1034A0007632AC0165E47FE182C045E050E060E740
:1034B0007FE10E947F32892B49F046E050E066E7C9
:1034C0007FE1CE010E947F32892B69F487EE90E084
:1034D000F801978B868B8DE99EE10E947632AC01D4
:1034E0006DE97EE164C044E050E062E87FE1CE0136
:1034F0000E947F32892B69F489EE90E0F801978B66
:10350000868B89EB9EE10E947632AC0169EB7EE10D
:103510004EC044E050E067E87FE1CE010E947F3278
:10352000892B69F48BEE90E0F801978B868B80EF06
:103530009EE10E947632AC0160EF7EE138C044E04B
:1035400050E06CE87FE1CE010E947F32892B69F464
:103550008DEE90E0F801978B868B8CE09FE10E94C6
:103560007632AC016CE07FE122C044E050E061E9DA
:103570007FE1CE010E947F32892B69F48FEE90E0CB
:10358000F801978B868B88E29FE10E947632AC012E
:1035900068E27FE10CC081EF90E0F801978B868BA9
:1035A00080E89EE10E947632AC0160E87EE1C801CD
:1035B00046960E947923882329F0F801178A168AF3
:1035C00082E001C080E0DF91CF911F910F910895BB
:1035D000CF93DF93EC018E899F89009721F0833789
:1035E000910549F504C083E790E09F8B8E8BAE0177
:1035F00068EE7DE1CE0146960E94AB228823F1F071
:10360000FE01E957FF4FC757DF4F208131814881C5
:103610005981C958D040241B350B31832083FE01CA
:10362000EB57FF4F80819181840F951F9183808399
:1036300012161306C4F21F8A1E8A82E0DF91CF9110
:103640000895EF92FF920F931F93CF93DF93EC01B6
:1036500089819A8121E08E319207A1F0A1E08F311A
:103660009A0718F4892B51F0BFC0B1E084329B0750
:10367000F9F08753914009F0B7C054C08EE191E052
:103680009A83898360E2CE0101960E9403218823F8
:1036900009F4ACC044E050E06DE67DE1CE018F96C8
:1036A0000E947F32892B89F484E291E09A83898396
:1036B0008E010F5F1F4F60E2C8010E940321882323
:1036C00009F494C08FA58F3221F080E180936504C6
:1036D0008BC088A920E7E22EF12CEC0EFD1E803273
:1036E00041F444E150E062EB7DE1C7010E948D327C
:1036F0000FC0C8010E94E520FE01E80FF91F16A6C1
:10370000BE01615D7F4F44E150E0C7010E94C532B8
:10371000CC57DF4F81E08883C458D04087E391E0E5
:103720009A8389837E010894E11CF11C6AE0C70139
:103730000E940321882309F459C08E01015D1F4FA7
:1037400048E050E068EC7DE1C8010E947F32892B9F
:1037500029F7C7010E94E520FE01E80FF91F15A611
:10376000C8010E944A1081E091E00E944A10F801CD
:1037700000E010E002C00F5F1F4F8081882371F2CC
:1037800031968F33C1F7BAC18BEC92E00E9457108B
:1037900078010894E11CF11C005D1F4F46E050E0E9
:1037A00064E071E0CE01800F911F0E94B732009754
:1037B00029F4409883EC92E00E9457108FE290E049
:1037C000E80EF91E46E050E06BE071E0CE018E0D90
:1037D0009F1D0E94B732009709F0A0CF409A8BEB53
:1037E00092E00E9457109ACF1A821982CC57DF4F6D
:1037F0008881C458D040813009F092C18BA59CA526
:10380000A1E081309A0709F46EC1B1E082309B07D4
:1038100038F40097A1F08050914009F06CC12BC0A2
:10382000F1E08C309F0709F456C021E08031920707
:1038300009F459C18550914009F05DC12BC08E013A
:103840000B571F4F90E7E92EF12CEC0EFD1EB8012F
:10385000C7010E940820892BC9F4B8018EEB9DE1B5
:103860000E9454206EEB7DE1C7010E946F3280E020
:1038700091E09CA78BA765E27EE1CE010E94F7193B
:10388000882309F44DC181E091E02BC185E091E0EE
:103890009CA78BA761ED7DE1CE010E94F7198823DB
:1038A00009F43EC16EE270E0CE0180599F4F0E9444
:1038B000AC32009709F413C146E050E066E77FE1BF
:1038C0000E947F32892B09F00AC11EA61DA68CE03A
:1038D00091E09CA78BA78DA59EA58F3A910509F431
:1038E0003DC0803B910518F4892B51F0F5C0823B17
:1038F000910509F43BC0813D910509F0EDC0ACC0D4
:1039000086EE92E00E945710DDC0DE01AB57BF4F3C
:10391000ED91FC9111978491853209F05DC031964B
:1039200084913197813209F057C0C557DF4F3396E4
:10393000E993F9932350304039832883CD58D04000
:103940003197849132978A3369F4BD01CF0104968F
:103950000E9454208FEA90E09EA78DA7CE010E947E
:10396000E81A12C082EB90E09EA78DA78E01055742
:103970001F4FF801808191810E941E1EFC01D80119
:103980006D917C91CE010995882309F4C9C08BE81B
:10399000E82EF12CEC0EFD1EF701008111816AE08A
:1039A00070E0C8010E945B320196FE01E357FF4FB1
:1039B000081B190B20813181020F131F1183008313
:1039C000D7018D939C93CB57DF4F8993999319839C
:1039D0000883C758D04076C0E0906804F09069042E
:1039E000F70182899389FE01E757FF4F82179307FA
:1039F00018F49183808302C031832083CB57DF4F3B
:103A000008811981C558D040F8018491853229F484
:103A100065E270E0C801019603C065E270E0C8018C
:103A20000E945B320097A1F08017910789F0801BFC
:103A3000910BFE01E757FF4F91838083D701529688
:103A40002D913C9153978217930710F03183208377
:103A500081ED90E09EA78DA78E899F89009721F028
:103A600087389105A9F404C087E890E09F8B8E8B7E
:103A7000C757DF4F48815981249768817981C5589C
:103A8000D040CE0146960E947923882309F448C08D
:103A90001F8A1E8AFE01EB57FF4FC757DF4F8081F9
:103AA000918128813981C958D040820F931F918319
:103AB0008083FE01E957FF4F80819181821B930B28
:103AC00091838083C957DF4F28813981C758D040FF
:103AD000121613060CF419CF1EA61DA609C080E10C
:103AE00091E09CA78BA7CE010E94E81A8823C1F021
:103AF00080E1809365041CA61BA612C08CED92E0A9
:103B00000E945710C801879648E050E062E171E0DA
:103B10008C0F9D1F0E94B732009709F0FFCD34CE65
:103B2000DF91CF911F910F91FF90EF900895EF9249
:103B3000FF920F931F93CF93DF93C0916804D091AE
:103B400069049091650494FD3CC095FD3AC097FDD1
:103B500038C03CE1E32EF12CEC0EFD1E96FF1BC09D
:103B60008E01055B1F4F40E450E0B801CE014D9639
:103B70000E94D12140E450E0B801CE01C2960E94DB
:103B8000D121C95BDF4F19821882C75ADF4F1882D3
:103B9000C05AD0400EC0E114F10481F093FF09C077
:103BA0008C8D8F5F8C8F843128F080E28093650448
:103BB00001C01C8EC7010E94211B03C080E28093BC
:103BC0006504DF91CF911F910F91FF90EF900895C1
:103BD0000F931F93DC01A957BF4F2D913C91119773
:103BE000A758B040E0916804F091690482899389F4
:103BF000FD01E757FF4F8217930718F491838083E5
:103C000002C0318320838D0107571F4FF801408187
:103C10005181AB57BF4F6D917C918091660490911B
:103C200067040E945232F801808191811F910F91A7
:103C30000895FC01178A168A82E00895EF92FF9298
:103C40000F931F93CF93DF937C0101E811E015C020
:103C500088819981DC01FD0101900020E9F731970D
:103C6000EA1BFB0BAF01B7010E947F32892B19F4CD
:103C70002A813B8109C00E5F1F4FF801C081D181AD
:103C8000209731F729E13EE1C901DF91CF911F91E2
:103C90000F91FF90EF900895CF93DF93EC018E8901
:103CA0009F89009721F0843C910529F50BC0C157ED
:103CB000DF4F19821882CF58D04015C084EC90E0B5
:103CC0009F8B8E8BAE0168EC7EE1CE0146960E9402
:103CD000AB22882399F0FE01E157FF4F808191814B
:103CE000019691838083C157DF4F88819981CF5896
:103CF000D040469718F31F8A1E8A82E0DF91CF9149
:103D00000895CF93DF93EC018E899F89009721F06E
:103D10008C3A9105B9F51CC0C157DF4F1982188242
:103D2000CF58D04026C08DEA90E0289FF001299F0F
:103D3000F00D389FF00D1124E659FB4F818D90E076
:103D40008F709070892B69F08CEA90E09F8B8E8B3E
:103D5000AE0160EF7EE1CE0146960E94AB22882341
:103D6000A1F0FE01E157FF4F80819181019691837F
:103D70008083C157DF4F28813981CF58D04022300E
:103D8000310588F21F8A1E8A82E0DF91CF91089563
:103D9000FC01E157FF4F0190F081E02DEE0FFF1F76
:103DA000E453FA4F808191819F938F938BE191E04F
:103DB0009F938F9386EA95E09F938F9380916604FB
:103DC000909167049F938F930E9412332DB73EB753
:103DD000285F3F4F0FB6F8943EBF0FBE2DBF08952A
:103DE0002F923F924F925F926F927F928F929F920B
:103DF000AF92BF92CF92DF92EF92FF920F931F93F9
:103E0000DF93CF9300D000D0CDB7DEB7FC01E157F0
:103E1000FF4F208131818DEA90E0289FA001299FEA
:103E2000500D389F500D112446595B4F5C834B83D6
:103E3000DA0159968C91E82FF0E084FD05C020E26C
:103E400030E03A83298304C041E250E05A83498339
:103E5000AB81BC8150968D919C915197892B21F417
:103E600030E2232E312C03C02AE2222E312CAB81EA
:103E7000BC815A96AC905A97BB245B96CC905B97CA
:103E8000DD24EF70F070EE0FFF1FE757FE4F6080EC
:103E9000718016968D919C9117970E9418264C015F
:103EA000EB81FC81828193810E9418268C01AB8179
:103EB000BC8112968D919C9113970E941826592EC1
:103EC000EB81FC81808191810E9418267C01AB816D
:103ED000BC818D919C910E941826492EEB81FC811A
:103EE000848195810E94182629813A813F932F93DE
:103EF0003F922F92BF92AF92DF92CF927F926F92BA
:103F00009F928F9210701F930F93252D30E03F9357
:103F10002F933FEFE322FF24FF92EF92242D30E016
:103F20003F932F939F938F9380E291E09F938F9382
:103F300086EA95E09F938F93809166049091670441
:103F40009F938F930E9412334DB75EB7445E5F4FCD
:103F50000FB6F8945EBF0FBE4DBF0F900F900F903D
:103F60000F90CF91DF911F910F91FF90EF90DF9015
:103F7000CF90BF90AF909F908F907F906F905F9009
:103F80004F903F902F900895CF93DF93EC019B01CA
:103F90008E899F89009721F083369105A9F404C08A
:103FA00083E690E09F8B8E8B60E270E0C9010E94F7
:103FB000AC32AC014F5F5F4F6AEE7FE1CE014696B7
:103FC0000E94AB22882319F01F8A1E8A82E0DF91AB
:103FD000CF9108950E94AC209F938F938DE791E03D
:103FE0009F938F9386EA95E09F938F9380916604C9
:103FF000909167049F938F930E9412332DB73EB721
:10400000285F3F4F0FB6F8943EBF0FBE2DBF0895F7
:10401000EF92FF920F931F93CF93DF937C018B015D
:10402000C6E8D2E040E050E02CC06A817B8190E09D
:10403000A92FB0E0FB01EA0FFB1F2491222359F0C6
:10404000AE0DBF1D8C918D3031F08A3021F082177A
:1040500021F59F5FEDCF8C819D81F8019183808355
:104060008E819F8193838283FA01EE0FFF1FE955B2
:10407000FC4F8081918101969183808321E030E023
:1040800004C0209791F620E030E0C901DF91CF9184
:104090001F910F91FF90EF9008954F5F5F4F8881C0
:1040A00099819C01E901EDCF0F931F93CF93DF938B
:1040B0008C01EB01A6E8B2E040E050E032C012967D
:1040C0006D917C91139720E0822F90E0FB01E80F27
:1040D000F91F3491332361F0800F911FFC0184910B
:1040E0008D3031F08A3021F0831729F52F5FECCF26
:1040F00014968D919C9115979983888316968D912E
:104100009C9117979B838A83FA01EE0FFF1FE95555
:10411000FC4F8081918101969183808321E030E082
:1041200004C0109761F620E030E0C901DF91CF9123
:104130001F910F9108954F5F5F4F8C9111969C9145
:104140009C01D901EECFE7EAF3E01192119283E0EE
:10415000ED3BF807D1F708950F931F93CF93DF93AB
:104160008C0126E832E0C0E0D0E01EC0F901628197
:10417000738190E0A92FB0E0FB01EA0FFB1F44918F
:10418000442359F0A00FB11F8C918D3031F08A304B
:1041900021F08417A1F49F5FEDCFCC0FDD1FC9552F
:1041A000DC4F2881398105C021153105F9F620E061
:1041B00030E0C901DF91CF911F910F9108952196B1
:1041C000F901808191819C01EFCFFC012289338923
:1041D00080899189281B390BC9010895FC018485C8
:1041E0009585892B11F081E008958489823021F42E
:1041F00083E0848B80E008958091650490E096953B
:10420000879581700895DC0112968D919C9113978A
:10421000009729F08755914009F0BDC01DC0529606
:104220002D913C91539718968D919C9119971F96BB
:104230009C938E931E9751963C932E9350971C9669
:104240008D919C911D97892B09F060C087E591E0C5
:1042500013969C938E9312971C968D919C911D970B
:10426000892B69F454968C915497823021F483E021
:1042700054968C938EC08091650481FF8AC082E041
:1042800054968C9354978091660490916704179686
:104290009C938E93169780915D0490915E041D9679
:1042A0009C938E931C9732C01696ED91FC911797B4
:1042B00020811E96ED91FC911F97208316968D917B
:1042C0009C911797019617969C938E9316971E961E
:1042D0008D919C911F9701961F969C938E931E978C
:1042E0001C968D919C911D9701971D969C938E9382
:1042F0001C9750968D919C915197019751969C9344
:104300008E935097261711F482E02FC050968D910E
:104310009C915197892B31F01C968D919C911D9702
:10432000892B11F61C968D919C911D97892BA9F4D0
:1043300080E01BC01696ED91FC911797819121505A
:1043400030401D963C932E931C971796FC93EE934A
:104350001697861711F483E008C01C962D913C91A6
:104360001D972115310531F781E081FF68CF529605
:104370002D913C91539750968D919C915197281770
:10438000390749F454961C92549713961C921E9226
:10439000129780E0089513961C921E92129782E065
:1043A0000895FC01148A1586148671876087538BE3
:1043B000428B77876687518B408B118210821382E4
:1043C00012820895CF93DF93EC018A819B8100973D
:1043D00029F08257914009F08EC010C02A893B898C
:1043E000888599859F878E87398B288B8C859D85BD
:1043F000892B01F582E791E09B838A838C859D85DB
:10440000892B51F48C89823019F483E08C8B71C034
:104410008091650481FF6DC082E08C8B8091660481
:10442000909167049F838E8380915D0490915E04D8
:104430009D878C87EC85FD8528893989E217F307EC
:10444000F0F46E817F81AF018E859F850E949C3242
:104450008E859F852C853D85820F931F9F878E8734
:1044600088899989821B930B998B888B8E819F8178
:10447000820F931F9F838E831D861C86B7CF8E85E8
:104480009F856E817F81E217F307B1F4AF010E942F
:104490009C328E859F852C853D85820F931F9F873B
:1044A0008E87198A188A8E819F81820F931F9F831E
:1044B0008E831D861C8625C0A9010E949C328E8594
:1044C0009F8528893989820F931F9F878E878C85C6
:1044D0009D85821B930B9D878C878E819F81820F88
:1044E000931F9F838E83198A188A0BC01C8A1B8294
:1044F0001A8280E003C01B821A8282E0DF91CF9192
:1045000008952A893B89888999892817390799F755
:10451000EDCFCF93DF93EC018C89863031F480911D
:10452000650482FD02C080E013C02A853B85E091CE
:104530006804F0916904628973898C819D81621796
:10454000730708F0B9010E941C2686E08C8B81E07D
:10455000DF91CF910895CF92DF92EF92FF921F9358
:10456000CF93DF93EC017B016A018A819B810097E5
:1045700029F08A52914009F056C01EC0611571059C
:1045800021F41B821A8281E051C0CA01FB01099506
:104590009B878A8780916604909167049D838C83B2
:1045A0001C8A8091650482FF03C0C601F70109954A
:1045B0008AE291E09B838A838C89863031F58091F1
:1045C000650480FF22C08A859B85E0916804F09194
:1045D0006904428953892C813D814817590758F451
:1045E000841B950B9B878A8782899389280F391FA3
:1045F0003D832C8306C0280F391F3D832C831B86E7
:104600001A8681E08C8B11E001C010E0CE010E947F
:104610008922182311F480E009C08A859B85892BA3
:1046200009F0BFCF1C8A1B821A8282E0DF91CF91F2
:104630001F91FF90EF90DF90CF9008951F93CF933D
:10464000DF93EC018A819B81009729F0823E9105DE
:1046500009F048C011C04115510521F41B821A828E
:1046600081E043C07D836C835B874A871C8A35C0A9
:1046700082EE90E09B838A838C89863031F580912D
:10468000650480FF22C08A859B85E0916804F091D3
:104690006904428953892C813D814817590758F490
:1046A000841B950B9B878A8782899389280F391FE2
:1046B0003D832C8306C0280F391F3D832C831B8626
:1046C0001A8681E08C8B11E001C010E0CE010E94BF
:1046D0008922182311F480E008C08A859B85892BE4
:1046E00039F61C8A1B821A8282E0DF91CF911F91DA
:1046F00008951F93CF93DF93EC018A819B810097EC
:1047000029F08B50914009F061C011C0411551054D
:1047100021F41B821A8281E05CC07D836C835B87FD
:104720004A871C8A4DC08BE091E09B838A838C89E9
:10473000863031F58091650480FF22C08A859B8593
:10474000E0916804F0916904428953892C813D818C
:104750004817590758F4841B950B9B878A878289D1
:104760009389280F391F3D832C8306C0280F391FDA
:104770003D832C831B861A8681E08C8B11E001C05F
:1047800010E08C89863031F48091650482FD02C08E
:1047900080E014C08A859B85E0916804F0916904EB
:1047A000628973892C813D816817790708F0BC0103
:1047B000C9010E94302686E08C8B81E0812349F07C
:1047C0008A859B85892B09F0AECF1C8A1B821A82B1
:1047D00082E0DF91CF911F910895FC01808191814A
:1047E00022813381820F931F9183808308950F93D9
:1047F0001F938C010E94C21040E050E0F80120811C
:104800003181821B930B228133818217930714F02D
:1048100041E050E0CA011F910F9108950F931F933B
:104820008C010E94C210F801918380831F910F9127
:1048300008950F931F938C01FC01738362830E9480
:10484000C210F801918380831F910F910895909376
:10485000C4038093C3030895FC015381560F509302
:104860006404272F33274281420F40936304A181C0
:10487000A0936204E081E0936104842F90E08217AA
:10488000930748F48A2F8F5F80936204882319F47A
:10489000EF5FE0936104852F90E0707086179707B3
:1048A00090F4842F8F5F80936304882361F4809158
:1048B00062048F5F80936204882329F480916104ED
:1048C0008F5F809361040895FC0161507040680F10
:1048D000791F20E030E00EC0508140E08181DA0194
:1048E000A80FB11D2A0F3B1F2A173B0710F42F5F9B
:1048F0003F4F3296E617F70778F3E617F70749F4C4
:10490000908180E0280F391F2817390710F42F5F96
:104910003F4F832F922F0895EEE0F6E040E050E005
:10492000308120E08181B901680F711D460F571F4A
:104930004617570710F44F5F5F4F329676E0E1322B
:10494000F70770F386E0E132F80751F4908180E0D8
:10495000480F591F4817590718F44F5F5F4F06C09B
:104960004115510519F42FEF3FEF02C0342F252FC9
:10497000C901089590911106692F70E0645170404B
:104980003091100620E0620F731FAB01480F511DDC
:10499000EAE1F6E0308120E08181D901A80FB11D64
:1049A0004A0F5B1F4A175B0710F44F5F5F4F329649
:1049B000B6E0E132FB0770F386E0E132F80749F434
:1049C000908180E0480F591F4817590710F44F5F36
:1049D0005F4F6F5D794FE2E2F6E00EC0308120E07C
:1049E0008181D901A80FB11D4A0F5B1F4A175B07D0
:1049F00010F44F5F5F4F3296E617F70778F3E6172C
:104A0000F70751F4908180E0480F591F4817590764
:104A100018F44F5F5F4F06C04115510519F42FEF91
:104A20003FEF02C0342F252FC901089586E00E9470
:104A3000BA24089581E10E94BA24089580E009C053
:104A4000E82FF0E0EE0FFF1FEC53FA4F11821082B7
:104A50008F5F8230A8F320E04DEA50E00DC0822F36
:104A600090E0849FF001859FF00D949FF00D11243C
:104A7000E659FB4F118E2F5F223088F32093CB0332
:104A800080E094E09093CA038093C9030895CF9384
:104A9000DF93EC014091C9035091CA03BDEA4F5F17
:104AA0005F4F8DE74030580710F040E050E1342F61
:104AB000252FA0E00EC0AB9FF0011124E659FB4F5B
:104AC000818D882329F0848195818217930739F39A
:104AD000AF5FA23081F74093C9035093CA0310928D
:104AE000CB03E0E0F0E020E03DEA1AC0239FD001D4
:104AF0001124A659BB4F59968C915997882321F4BC
:104B00002093CB03FD0110C0873049F4309731F07A
:104B10005A969C915A97828D891708F4FD012F5F50
:104B2000223020F32093CB03309761F182E0818F14
:104B30008091C50384878091C60385878091C703D0
:104B400086878091C803878786EA95E0938B828B5E
:104B5000958B848B81E090E0918B808B138E81E02C
:104B6000828F83E0808F168A80E1878B5483458310
:104B70007783668388819981918380838A819B81F1
:104B800093838283CF01DF91CF910895AC0110927E
:104B9000CB0320E013C0E22FF0E0322F3F5FEE0F97
:104BA000FF1FEC53FA4F808191818417950729F4F8
:104BB0002093CB03118210820895232F223058F3C3
:104BC0002093CB030895AC011092CB0320E012C0D8
:104BD000E22FF0E0322F3F5FEE0FFF1FEC53FA4F52
:104BE00080819181892B29F42093CB0351834083C9
:104BF0000895232F223060F32093CB030895BC0146
:104C0000809168049091690408960E942C24E09198
:104C10006804F09169048091610480878091620446
:104C200081878091630482878091640483870895DB
:104C3000282F892F922F08951616170684F4609353
:104C4000DE0B7093DF0B20915F04309160048217BC
:104C5000930729F0AB01BC01C9010E949C32089561
:104C60001616170664F46093DE0B7093DF0BAB012E
:104C7000BC0180915F04909160040E9452320895BB
:104C80000F931F93CF93DF93C0916804D091690471
:104C900026E336E030936704209366043093600483
:104CA00020935F04833059F4898D8F70833009F02D
:104CB000FDC688899989892B09F0F8C692C082308F
:104CC00009F093C08091C8038F5F8093C803882345
:104CD00099F48091C7038F5F8093C703882361F4A1
:104CE0008091C6038F5F8093C603882329F4809147
:104CF000C5038F5F8093C50310925E0410925D041C
:104D00001092DF0B1092DE0B298D273011F0253029
:104D100041F48A8D8F5F8A8F883709F0C7C6198E54
:104D2000C5C6222309F4C2C688899989892B09F44A
:104D300054C08A8D81508A8F8F5F09F0B7C63B8D32
:104D4000383029F02150223048F4353039F4198EAA
:104D500080E8809365040E94971D4CC5353010F0A3
:104D600080E307C083E090E002C0880F991F3A9566
:104D7000E2F78A8F8B8D8F5F8B8F8091F2059091F8
:104D8000F30501969093F3058093F205898D90E0E9
:104D90008F70907083309105D1F08430910544F488
:104DA0008130910509F408C3029709F07FC60CC051
:104DB0008630910509F4B1C48830910509F4ADC479
:104DC000049709F073C6A9C410922F06F8C284E0B4
:104DD000809365040E94971D42C52F70233009F00F
:104DE00065C688E080936504F9C48091CE059091F2
:104DF000CF0501969093CF058093CE058901085287
:104E0000104080910E068534A9F08091CC059091D8
:104E1000CD0501969093CD058093CC058091D20568
:104E20009091D30501969093D3058093D20580E9A4
:104E300092E01DC09091100680E020911106AC0117
:104E4000420F511D80915D0490915E048417950777
:104E500060F050935E0440935D048091140690E0EE
:104E60008F739070892B31F009C086EB92E00E941D
:104E7000C7101CC6809115068823A9F08091CC0527
:104E80009091CD0501969093CD058093CC058091AE
:104E9000D8059091D90501969093D9058093D805AE
:104EA00085EE92E0E4CF2091FC053091FD052115BF
:104EB000310531F48091FE059091FF05892BE1F0D9
:104EC00080911E0690911F068217930759F4209136
:104ED0002006309121068091FE059091FF0528174C
:104EE000390751F08091CC059091CD0501969093B2
:104EF000CD058093CC05DAC50E948C248F5F9F4F2F
:104F0000A9F08091CC059091CD0501969093CD05A7
:104F10008093CC058091DA059091DB050196909302
:104F2000DB058093DA058BEF92E0A1CF8091170625
:104F3000863009F474C08130A9F08091CC0590913D
:104F4000CD0501969093CD058093CC058091DC052D
:104F50009091DD0501969093DD058093DC058DE051
:104F600093E085CF8091E0059091E10501969093C3
:104F7000E1058093E005809122068830A9F08091B8
:104F8000DE059091DF0501969093DF058093DE05A5
:104F90008091E4059091E50501969093E505809355
:104FA000E40587E293E063CF109222068091240605
:104FB00090912506EFEF873F9E0710F0099601C0FC
:104FC0000896909325068093240680911A06909166
:104FD0001B0690931F0680931E0680911C069091DD
:104FE0001D0690932106809320068091FC059091E8
:104FF000FD0590931B0680931A068091FE05909103
:10500000FF0590931D0680931C068091E205909108
:10501000E30501969093E3058093E2053DC58091F9
:10502000E8059091E90501969093E9058093E805DC
:105030000E9416258F5F9F4FA9F08091E605909101
:10504000E70501969093E7058093E6058091EC05CE
:105050009091ED0501969093ED058093EC058CE31E
:1050600093E005CFCAE6D4E0898D882329F1209109
:105070002406309125068C819D8128173907E1F49B
:1050800020912206309123068E819F8128173907AF
:1050900099F420911A0630911B068881998128176E
:1050A000390751F420911C0630911D068A819B819D
:1050B0002817390709F49CC1C355DF4F25E0C731D4
:1050C000D20791F288F280912F068F73823059F5C2
:1050D00080912406909125069093CE038093CD0372
:1050E0001092CB0313C0E42FF0E0EE0FFF1FEC5340
:1050F000FA4F2091CD033091CE0380819181281702
:10510000390709F483C04F5F4093CB034091CB0331
:10511000423048F38091F6059091F70501969093FF
:10512000F7058093F60580912F0682FDBFC480911C
:10513000F0059091F10501969093F1058093F005AB
:1051400084E1F80181A388E290E090935E0480936B
:105150005D0480E580A39091290680912D06838FC0
:105160003091280680912C06828F368F4091270639
:1051700080912B06818F458F209126062093CB03AB
:1051800080912A06808F248F9F5F978F992361F4E7
:10519000832F8F5F868F882339F4842F8F5F858FCD
:1051A000882311F42F5F248F20912206309123064B
:1051B0003093CE032093CD03809124069091250651
:1051C000F801958B848B378B268B80911A069091F2
:1051D0001B0690931F0680931E0680911C069091DB
:1051E0001D0690932106809320068091FC059091E6
:1051F000FD0590931B0680931A068091FE05909101
:10520000FF0590931D0680931C0600C41092CB03EB
:10521000C0E0D0E04DEA50E03DEA25C0822F90E0AA
:10522000849FF001859FF00D949FF00D1124E659A5
:10523000FB4F818D882339F48DEA289FE0011124EA
:10524000C659DB4F14C0873059F4209721F0928D56
:105250008A8D891728F4239FE0011124C659DB4F5A
:105260002F5F2093CB032091CB032230B8F22097FD
:1052700061F48091F4059091F50501969093F50500
:105280008093F4058FE493E0F2CDD0936904C0934A
:10529000680483E08A8F888F1E8A84E08F8B1B8E40
:1052A00080912406909125069D838C83809122060F
:1052B000909123069F838E8380911A0690911B06FE
:1052C0009983888380911C0690911D069B838A8315
:1052D00081E0898F8091C5038C878091C6038D877B
:1052E0008091C7038E878091C8038F8781E090E00B
:1052F000998B888B809129068B87809128068A87D5
:1053000080912706898780912606888781E090E032
:105310000E94FF2580912E0690E0807F907081355D
:1053200091050CF449C01092CB0334C0F901E05050
:10533000FA4F86A98093CC038823F1F1813021F4C0
:105340004F5F4093CB0326C08230C1F487A98430DD
:10535000A9F430AD20E081AD90E0822B932B9093A7
:10536000CE038093CD03F5E0873A9F0710F086EADD
:1053700095E09B8B8A8B9D8B8C8B1EC09091CB0371
:10538000E92FF0E0E050FA4F87A98823A9F0890FB0
:105390008093CB034091CB03242F30E080912E06E5
:1053A00082958F7090E00597880F991F880F991F3D
:1053B000281739070CF4BACF80E180932F0680912B
:1053C0002F06826080932F0682E08093360684E069
:1053D0008093370685E08093380686EA8093390605
:1053E0008CE290E090935E0480935D0480E6BBC203
:1053F000D0936904C09368041092650480912F06CD
:10540000482F50E082FF07C0198E81E793E00E9489
:10541000C71080E251C280912E0682958F70880F4E
:10542000880F8093CB0320915D0430915E0424515A
:105430003040281B310930935E0420935D04898D30
:105440008F70823029F44F7350704231510509F149
:10545000232B39F480912F0690E083709070892B74
:10546000C1F0909126068885981709F072C2909134
:1054700027068985981709F06CC2909128068A85BD
:10548000981709F066C2909129068B85981709F044
:1054900060C280912F0684FF51C0688979896115A7
:1054A000710509F44BC0CE010C960E942C2420916A
:1054B0002A0680916104281709F040C090912B06BC
:1054C000809162049817D1F590912C068091630425
:1054D0009817A1F590912D0680916404981771F5A5
:1054E0002C87809162048D87809163048E878091E0
:1054F00064048F878B8D8823D1F42E89988D8A8DB3
:10550000981B822F869586958695981B392F320F8A
:105510003E8B8F89282F26952695821B97FD919586
:10552000890F8F8B369536953695830F888F81E05E
:1055300080936504888D8A8F198A188A898D282F0F
:1055400030E0C9018F7090708430910509F4B9C1C1
:10555000853091055CF48230910591F1833091059D
:105560000CF0B1C0019709F0A1C210C086309105BE
:1055700009F4E7C1863091050CF4C3C18730910569
:1055800009F4E7C1089709F091C290C180916504C0
:1055900080FF8CC283E0898F80E480936504198A40
:1055A000188A20915D0430915E042115310509F4BB
:1055B00011C182E480936504C9010E94FF250AC1DC
:1055C0008091650480FF74C080912F068F738231B3
:1055D00009F06EC080912E0690E0807F907081353A
:1055E00091050CF449C01092CB0334C0F901E0508E
:1055F000FA4F86A98093CC038823F1F1813021F4FE
:105600004F5F4093CB0326C08230C1F487A984301A
:10561000A9F430AD20E081AD90E0822B932B9093E4
:10562000CE038093CD0325E0873A920710F086EAF7
:1056300095E09B8B8A8B9D8B8C8B1EC09091CB03AE
:10564000E92FF0E0E050FA4F87A98823A9F0890FED
:105650008093CB034091CB03242F30E080912E0622
:1056600082958F7090E00597880F991F880F991F7A
:10567000281739070CF4BACF83E0898F809126066A
:105680008887809127068987809128068A8780915C
:1056900029068B8781E090E00E94FF2582E48093B9
:1056A0006504198A188A10925E0410925D0492C0F3
:1056B00080E2809365040E94971DE0916804F09158
:1056C0006904118E30CD80912F0680FF2AC024FD01
:1056D00028C088899989892B09F0E8C180915D04E7
:1056E00090915E0401960E94FF2520916504822F0F
:1056F00080618093650480915D0490915E04892BA4
:1057000019F02261209365040E94971D81E090E0CA
:10571000998B888B88E0898F1B8E81E180932F067F
:105720001BC185FF21C060913406362F20E04091D7
:10573000350650E0242B352B809166049091670448
:10574000820F931F9093670480936604962F80E0E6
:10575000842B952B20915D0430915E04281B390B1E
:1057600030935E0420935D0420915D0430915E04CB
:105770002115310559F0898D84FD08C0809165049B
:10578000826080936504C9010E94FF2590913006D4
:1057900080E020913106820F911D9093CE0380937B
:1057A000CD032C893D892817390710F0892B21F466
:1057B0003093CE032093CD038091CD039091CE03FF
:1057C0009B8B8A8B8091650490E083709070892B0D
:1057D00009F46CC11092DF0B1092DE0B0E94971D32
:1057E00080916504282F85FF07C01092DF0B10926F
:1057F000DE0B198E84E192CF84FF0AC01092DF0B7A
:105800001092DE0B81E090E0998B888B84E083CF4F
:105810008091DE0B9091DF0B892B01F120FF02C0FC
:10582000198A188A888999890097A1F42A893B895D
:105830008091DE0B9091DF0B2817390720F430930D
:10584000DF0B2093DE0B8091DE0B9091DF0B998BA9
:10585000888B04C09093DF0B8093DE0B1B8E8091AE
:105860005F04909160049093670480936604809134
:10587000DE0B9091DF0B892B59F08889998900976D
:1058800039F0889690935E0480935D0488E10BC0A4
:105890008091650481FF0AC188E290E090935E04E4
:1058A00080935D0480E180932F065CC08091650445
:1058B00080FFFCC0198E80E1809365040E94971DD3
:1058C000F5C080915D0490915E04009711F00E94F4
:1058D000FF2580912F069091650480FF0BC090FFFB
:1058E00006C087E0898F1A8E198A188A19C086E047
:1058F000898F16C090FF1EC085E0898F198A188A8B
:10590000D5C080915D0490915E04009711F00E94D3
:10591000FF2580912F0680FF0DC087E0898F1A8EAA
:1059200081E090E00E94FF2580E1809365040E9461
:10593000971D0FC080915D0490915E04892B49F4FE
:10594000B5C08091650480FFB1C087E0898F1A8E51
:10595000ADC080E1F80181A388E290E090935E04FD
:1059600080935D0480E580932E06888580932A06C7
:10597000898580932B068A8580932C068B8580935E
:105980002D068C85809326068D85809327068E852F
:10599000809328068F858093290686E080931706DA
:1059A0008C819D8190932306809322068E819F8116
:1059B00090932506809324068091FC059091FD0527
:1059C00090931B0680931A068091FE059091FF0527
:1059D00090931D0680931C068881998190931F06E1
:1059E00080931E068A819B819093210680932006D6
:1059F000898D84FF05C0109231061092300606C0D2
:105A000085E08093300686EA8093310680E48093B7
:105A1000160680915E048093100680915D04809349
:105A20001106109235061092340610923306109229
:105A300032060E94162580959095909333068093A8
:105A4000320685E480930E0610920F06109215061A
:105A5000109214068091C3039091C4030196909311
:105A6000C4038093C303909312068093130610928D
:105A70001906109218060E948C2480959095909398
:105A80001906809318068091EA059091EB0501961E
:105A90009093EB058093EA058091D0059091D10514
:105AA00001969093D1058093D00504C010925E04B6
:105AB00010925D0410926504DF91CF911F910F91B8
:105AC0000895DF92EF92FF920F931F93CF93DF938E
:105AD000DC01062FD72E1092FF03E0E0F0E060E03B
