:100000000C94D60F0C94F30F0C9422100C94F30F55
:100010000C94F30F0C94F30F0C94F30F0C94F30F58
:100020000C94F30F0C94F30F0C94F30F0C94F30F48
:100030000C94F30F0C94F30F0C94F30F0C94F30F38
:100040000C94F50F0C94F30F0C94F30F0C94F30F26
:100050000C94F30F0C94F30F0C94F30F0C94F30F18
:100060000C94F30F0C94F30F0C94F30F0C94F30F08
:100070000C94F30F0C94F30F0C94F30F1B5B5000D4
:1000800023000D0A72656164792E200D0A00696EE5
:10009000697420435032323030202E2E2E004845D5
:1000A0004C5000646F6E65200A0D004350323230B0
:1000B00030207265736574202E2E2E0043505245F9
:1000C000534554004E45544D41534B004950002078
:1000D000200D0A0020204E45544D41534B203C78C2
:1000E00078782E7878782E7878782E7878783E2000
:1000F00020202F2F20646973706C6179202F20736A
:100100006574206E65746D61736B0D0A0020204963
:1001100050203C7878782E7878782E7878782E78F9
:1001200078783E20202020202020202F2F20646956
:1001300073706C6179202F207365742049502061A1
:100140006464726573730D0A002020435052455356
:100150004554202020202020202020202020202046
:10016000202020202020202F2F207265696E6974A6
:1001700069616C697A652065746865726E65742062
:10018000636F6E74726F6C6C6572200D0A00204391
:100190006F6D6D616E64733A200D0A002073657295
:1001A00069616C3A203139323030206261756420E7
:1001B000384E31200D0A00202A2A2A20656D6169F7
:1001C0006C3A2073746566616E407065727A626F16
:1001D000726E2E6E6574200D0A00202A2A2A20775E
:1001E00065623A207777772E7065727A626F726EE9
:1001F0002E6E6574200D0A00202A2A2A2076657248
:1002000073696F6E20312E206164617074656420A3
:10021000627920532E5065727A626F726E205B3263
:10022000332E30312E323030395D202A2A2A200DEB
:100230000A000D0A4164616D2044756E6B656C7334
:100240002075495020776562736572766572206506
:1002500078616D706C6520666F72204372756D6297
:100260003634342D4E45540D0A000D0A002E000D73
:100270000A002E00206279746573200D0A006176F1
:1002800061696C61626C652052414D206D656D6FD6
:1002900072793A0074696D656F75740D0A0074693E
:1002A0006D656F75740D0A000A0D000A0D4D41430E
:1002B0003A004350323230302062756666657220F3
:1002C00066756C6C0D0A004C45443D300D0A004CBF
:1002D00045443D310D0A00666F756E6420696F2ECE
:1002E0007368746D6C0D0A00666F756E64203F0D47
:1002F0000A000D0A53435249505400687474703A0E
:100300002F2F003230302000333031200033303294
:1003100020004745542000485454502F312E3000BF
:10032000485454502F312E3100636F6E74656E74D3
:100330002D747970653A2000746578742F68746D37
:100340006C006C6F636174696F6E3A2000686F7344
:10035000743A20000D0A002F696E6465782E687467
:100360006D6C002F3430342E68746D6C00526566ED
:10037000657265723A00485454502F312E30203245
:100380003030204F4B0D0A5365727665723A2075F6
:1003900049502F312E3020687474703A2F2F7777A0
:1003A000772E736963732E73652F7E6164616D2F81
:1003B0007569702F0D0A436F6E6E656374696F6E99
:1003C0003A20636C6F73650D0A00485454502F3106
:1003D0002E3020343034204E6F7420666F756E647A
:1003E0000D0A5365727665723A207549502F312E89
:1003F0003020687474703A2F2F7777772E73696383
:10040000732E73652F7E6164616D2F7569702F0D7A
:100410000A436F6E6E656374696F6E3A20636C6F2A
:1004200073650D0A00436F6E74656E742D74797078
:10043000653A20746578742F706C61696E0D0A0DD1
:100440000A00436F6E74656E742D747970653A207E
:10045000746578742F68746D6C0D0A0D0A00436F13
:100460006E74656E742D747970653A207465787455
:100470002F6373730D0A0D0A00436F6E74656E74FB
:100480002D747970653A20746578742F746578746A
:100490000D0A0D0A00436F6E74656E742D747970C9
:1004A000653A20696D6167652F706E670D0A0D0AE8
:1004B00000436F6E74656E742D747970653A2069AF
:1004C0006D6167652F6769660D0A0D0A00436F6EDF
:1004D00074656E742D747970653A20696D61676515
:1004E0002F6A7065670D0A0D0A00436F6E74656EA2
:1004F000742D747970653A206170706C69636174F1
:10050000696F6E2F6F637465742D73747265616D9E
:100510000D0A0D0A002E68746D6C002E7368746DE0
:100520006C002E68746D002E637373002E706E67FE
:10053000002E676966002E6A7067002E747874005A
:100540002E747874002F70726F6365737365732EE9
:100550007368746D6C0025213A202F6865616465AD
:10056000722E68746D6C0A3C68313E537973746501
:100570006D2070726F6365737365733C2F68313ED5
:100580003C62723E3C7461626C6520776964746899
:100590003D2231303025223E0A3C74723E3C746864
:1005A0003E49443C2F74683E3C74683E4E616D6524
:1005B0003C2F74683E3C74683E5072696F72697477
:1005C000793C2F74683E3C74683E506F6C6C2068B8
:1005D000616E646C65723C2F74683E3C74683E4585
:1005E00076656E742068616E646C65723C2F746809
:1005F0003E3C74683E50726F6373746174653C2F47
:1006000074683E3C2F74723E0A25212070726F631D
:1006100065737365730A25213A202F666F6F7465C1
:10062000722E68746D6C002F3430342E68746D6CCB
:10063000003C68746D6C3E0A20203C626F64792037
:100640006267636F6C6F723D227768697465223EE2
:100650000A202020203C63656E7465723E0A2020CB
:10066000202020203C68313E343034202D20666923
:100670006C65206E6F7420666F756E643C2F6831F8
:100680003E0A2020202020203C68333E476F203C3B
:100690006120687265663D222F223E686572653C66
:1006A0002F613E20696E73746561642E3C2F683340
:1006B0003E0A202020203C2F63656E7465723E0A3E
:1006C00020203C2F626F64793E0A3C2F68746D6C69
:1006D0003E002F66696C65732E7368746D6C00251F
:1006E000213A202F6865616465722E68746D6C0A0A
:1006F0003C68313E46696C6520737461746973743B
:100700006963733C2F68313E0A3C63656E746572A1
:100710003E0A3C7461626C652077696474683D22AE
:10072000333030223E0A3C74723E3C74643E3C617D
:1007300020687265663D222F696E6465782E687444
:100740006D6C223E2F696E6465782E68746D6C3C0A
:100750002F613E3C2F74643E0A3C74643E25212088
:1007600066696C652D7374617473202F696E64659E
:10077000782E68746D6C0A3C2F74643E3C74643E41
:100780003C696D67207372633D222F666164652E3C
:10079000706E6722206865696768743D3130207724
:1007A000696474683D25212066696C652D737461E8
:1007B0007473202F696E6465782E68746D6C0A3EC0
:1007C000203C2F74643E3C2F74723E0A3C74723E8F
:1007D0003C74643E3C6120687265663D222F666908
:1007E0006C65732E7368746D6C223E2F66696C6540
:1007F000732E7368746D6C3C2F613E3C2F74643EA5
:100800000A3C74643E25212066696C652D73746111
:100810007473202F66696C65732E7368746D6C0A2F
:100820003C2F74643E3C74643E3C696D6720737277
:10083000633D222F666164652E706E6722206865B5
:10084000696768743D31302077696474683D25219B
:100850002066696C652D7374617473202F66696CF2
:1008600065732E7368746D6C0A3E203C2F74643E71
:100870003C2F74723E0A3C74723E3C74643E3C6190
:1008800020687265663D222F7463702E7368746DE4
:100890006C223E2F7463702E7368746D6C3C2F61F4
:1008A0003E3C2F74643E0A3C74643E2521206669F8
:1008B0006C652D7374617473202F7463702E73686C
:1008C000746D6C0A3C2F74643E3C74643E3C696DEC
:1008D00067207372633D222F666164652E706E67B8
:1008E00022206865696768743D31302077696474D7
:1008F000683D25212066696C652D737461747320D1
:100900002F7463702E7368746D6C0A3E203C2F74D4
:10091000643E3C2F74723E0A3C74723E3C74643EEA
:100920003C6120687265663D222F73746174732E7A
:100930007368746D6C223E2F73746174732E7368C8
:10094000746D6C3C2F613E3C2F74643E0A3C7464B1
:100950003E25212066696C652D7374617473202FA8
:1009600073746174732E7368746D6C0A3C2F7464B5
:100970003E3C74643E3C696D67207372633D222F78
:10098000666164652E706E672220686569676874A9
:100990003D31302077696474683D25212066696C9B
:1009A000652D7374617473202F73746174732E7367
:1009B00068746D6C0A3E203C2F74643E3C2F747248
:1009C0003E0A3C74723E3C74643E3C612068726531
:1009D000663D222F7374796C652E637373223E2FEC
:1009E0007374796C652E6373733C2F613E3C2F7476
:1009F000643E0A3C74643E25212066696C652D7353
:100A000074617473202F7374796C652E6373730A29
:100A10003C2F74643E3C74643E3C696D6720737285
:100A2000633D222F666164652E706E6722206865C3
:100A3000696768743D31302077696474683D2521A9
:100A40002066696C652D7374617473202F737479DB
:100A50006C652E6373730A3E203C2F74643E3C2FFA
:100A600074723E0A3C74723E3C74643E3C61206881
:100A70007265663D222F3430342E68746D6C223ED0
:100A80002F3430342E68746D6C3C2F613E3C2F74D3
:100A9000643E0A3C74643E25212066696C652D73B2
:100AA00074617473202F3430342E68746D6C0A3C7A
:100AB0002F74643E3C74643E3C696D6720737263BE
:100AC0003D222F666164652E706E6722206865691D
:100AD0006768743D31302077696474683D25212052
:100AE00066696C652D7374617473202F3430342EF5
:100AF00068746D6C0A3E203C2F74643E3C2F747207
:100B00003E0A3C74723E3C74643E3C6120687265EF
:100B1000663D222F666164652E706E67223E2F66E9
:100B20006164652E706E673C2F613E3C2F74643E9D
:100B30000A3C74643E25212066696C652D737461DE
:100B40007473202F666164652E706E670A3C2F7483
:100B5000643E3C74643E3C696D67207372633D2261
:100B60002F666164652E706E67222068656967680C
:100B7000743D31302077696474683D2521206669B1
:100B80006C652D7374617473202F666164652E70BB
:100B90006E670A3E203C2F74643E3C2F74723E0AFE
:100BA0003C2F7461626C653E0A3C2F63656E746510
:100BB000723E0A25213A202F666F6F7465722E6887
:100BC000746D6C0A002F666F6F7465722E68746D99
:100BD0006C0020203C2F626F64793E0A3C2F6874C1
:100BE0006D6C3E002F6865616465722E68746D6C73
:100BF000003C21444F43545950452048544D4C200B
:100C00005055424C494320222D2F2F5733432F2F2D
:100C10004454442048544D4C20342E3031205472DA
:100C2000616E736974696F6E616C2F2F454E22205F
:100C300022687474703A2F2F7777772E77332E6F60
:100C400072672F54522F68746D6C342F6C6F6F73F2
:100C5000652E647464223E0A3C68746D6C3E0A2002
:100C6000203C686561643E0A202020203C74697441
:100C70006C653E57656C636F6D6520746F2074689A
:100C800065207549502077656220736572766572BC
:100C9000213C2F7469746C653E0A202020203C6C36
:100CA000696E6B2072656C3D227374796C65736834
:100CB0006565742220747970653D22746578742F9F
:100CC0006373732220687265663D227374796C6564
:100CD0002E637373223E20200A20203C2F6865611A
:100CE000643E0A20203C626F6479206267636F6C07
:100CF0006F723D222366666665656322207465789F
:100D0000743D22626C61636B223E0A0A20203C64BF
:100D1000697620636C6173733D226D656E75223E4A
:100D20000A20203C64697620636C6173733D226DF8
:100D3000656E75626F78223E3C6120687265663D23
:100D4000222F223E46726F6E7420706167653C2FC1
:100D5000613E3C2F6469763E0A20203C646976201F
:100D6000636C6173733D226D656E75626F78223EB0
:100D70003C6120687265663D2266696C65732E73FE
:100D800068746D6C223E46696C6520737461746989
:100D900073746963733C2F613E3C2F6469763E0A2D
:100DA00020203C64697620636C6173733D226D651D
:100DB0006E75626F78223E3C6120687265663D22E6
:100DC00073746174732E7368746D6C223E4E657417
:100DD000776F726B20737461746973746963733CA9
:100DE0002F613E3C2F6469763E0A20203C64697680
:100DF00020636C6173733D226D656E75626F78223E
:100E00003E3C6120687265663D227463702E736893
:100E1000746D6C223E4E6574776F726B0A2020638E
:100E20006F6E6E656374696F6E733C2F613E3C2F0D
:100E30006469763E0A20203C62723E0A20203C2FE4
:100E40006469763E0A20200A20203C64697620638B
:100E50006C6173733D22636F6E74656E74626C6F48
:100E6000636B223E0A002F696E6465782E68746D8C
:100E70006C003C21444F43545950452048544D4C3C
:100E8000205055424C494320222D2F2F5733432FBA
:100E90002F4454442048544D4C20342E303120549B
:100EA00072616E736974696F6E616C2F2F454E228B
:100EB0002022687474703A2F2F7777772E77332E2D
:100EC0006F72672F54522F68746D6C342F6C6F6F74
:100ED00073652E647464223E0D0A3C68746D6C3E2A
:100EE0000D0A20203C686561643E0D0A2020202008
:100EF0003C7469746C653E57656C636F6D652074F6
:100F00006F2074686520754950207765622073658D
:100F100072766572213C2F7469746C653E0D0A20EF
:100F20002020203C6C696E6B2072656C3D227374CE
:100F3000796C6573686565742220747970653D22EB
:100F4000746578742F6373732220687265663D221E
:100F50007374796C652E637373223E20200D0A2012
:100F6000203C2F686561643E0D0A20203C626F645E
:100F700079206267636F6C6F723D222366666665D7
:100F800065632220746578743D22626C61636B2214
:100F90003E0D0A0D0A20203C64697620636C617363
:100FA000733D226D656E75223E0D0A20203C6469FA
:100FB0007620636C6173733D226D656E75626F7828
:100FC000223E3C6120687265663D222F223E4672B9
:100FD0006F6E7420706167653C2F613E3C2F6469C1
:100FE000763E0D0A0D0A20203C64697620636C6110
:100FF00073733D226D656E75626F78223E3C612091
:10100000687265663D2266696C65732E7368746DDF
:101010006C223E46696C65207374617469737469EF
:1010200063733C2F613E3C2F6469763E0D0A20209D
:101030003C64697620636C6173733D226D656E75E7
:10104000626F78223E3C6120687265663D2273744F
:101050006174732E7368746D6C223E4E6574776F85
:10106000726B20737461746973746963733C2F616C
:101070003E3C2F6469763E0D0A20203C6469762050
:10108000636C6173733D226D656E75626F78223E8D
:101090003C6120687265663D227463702E736874CB
:1010A0006D6C223E4E6574776F726B20636F6E6E4F
:1010B000656374696F6E733C2F613E3C2F64697683
:1010C0003E0D0A093C64697620636C6173733D22AE
:1010D0006D656E75626F78223E3C61206872656650
:1010E0003D22696F2E7368746D6C223E494F3C2F10
:1010F000613E3C2F6469763E0D0A20203C62723EC0
:101100000D0A20203C2F6469763E0D0A0D0A20202E
:101110003C64697620636C6173733D22636F6E7407
:10112000656E74626C6F636B223E0D0A20203C700A
:101130003E0D0A53746566616E205065727A626F67
:10114000726E2773204372756D623634342D4E45AE
:101150005420576562736572766572206578616D9B
:10116000706C652076312E332E3C62723E54686579
:1011700073652077656220706167657320617265B1
:1011800020736572766564206279206120736D61D9
:101190006C6C20776562207365727665722072755B
:1011A0006E6E696E67206F6E20746F70206F6620A0
:1011B000746865203C6120687265663D22687474BD
:1011C000703A2F2F7777772E736963732E73652F9D
:1011D0007E6164616D2F7569702F223E75495020C4
:1011E000656D626564646564205443502F495020E6
:1011F000737461636B3C2F613E2E3C62723E0D0A3C
:10120000506F7274656420746F204372756D62361E
:1012100034342D4E4554206D6F64756C65206279B1
:101220002053746566616E205065727A626F726ECB
:10123000203C6120687265663D22687474703A2FA4
:101240002F7777772E7065727A626F726E2E6E6569
:1012500074223E287777772E7065727A626F726E8D
:101260002E6E6574293C2F610D0A20203C2F703EA4
:101270000D0A20203C703E0D0A2020436C69636BF0
:10128000206F6E20746865206C696E6B73206162DC
:101290006F766520666F722077656220736572765F
:1012A0006572207365727669636520616E64207370
:1012B0007461746973746963732E0D0A20203C2F66
:1012C000703E0D0A20203C2F626F64793E0D0A3C6F
:1012D0002F68746D6C3E0D0A002F7374796C652E47
:1012E000637373006831200A7B0A20207465787468
:1012F0002D616C69676E3A2063656E7465723B0A96
:101300002020666F6E742D73697A653A313470747B
:101310003B0A2020666F6E742D66616D696C793AA8
:10132000617269616C2C68656C7665746963613B98
:101330000A2020666F6E742D7765696768743A625B
:101340006F6C643B0A202070616464696E673A3197
:101350003070783B200A7D0A0A626F64790A7B0A42
:101360000A20206261636B67726F756E642D636F14
:101370006C6F723A20236666666565633B0A2020BF
:10138000636F6C6F723A626C61636B3B0A0A202078
:10139000666F6E742D73697A653A3870743B0A20F3
:1013A00020666F6E742D66616D696C793A61726941
:1013B000616C2C68656C7665746963613B0A7D0AB3
:1013C0000A2E6D656E750A7B0A20206D6172676951
:1013D0006E3A203470783B0A202077696474683A4A
:1013E0003730253B0A090A202070616464696E6702
:1013F0003A323070783B0A090A2020626F726465C5
:10140000723A20736F6C6964203170783B0A202037
:101410006261636B67726F756E642D636F6C6F7260
:101420003A20236666666364323B0A20207465783E
:10143000742D616C69676E3A6C6566743B0A202096
:101440000A2020666F6E742D73697A653A3970745C
:101450003B0A2020666F6E742D66616D696C793A67
:10146000617269616C2C68656C7665746963613B57
:1014700020200A7D0A0A6469762E6D656E75626F9A
:10148000780A7B0A202077696474683A2032302514
:101490003B0A090A2020626F726465723A20303B71
:1014A0000A2020666C6F61743A206C6566743B0A92
:1014B000746578742D616C69676E3A2063656E742B
:1014C00065723B0A7D0A0A2E636F6E74656E7462E4
:1014D0006C6F636B0A7B20200A20206D6172676944
:1014E0006E3A203470783B0A202077696474683A39
:1014F0003730253B0A0A202070616464696E673AC0
:10150000323070783B0A0A2020626F726465723A4A
:101510002031707820646F747465643B0A20206207
:1015200061636B67726F756E642D636F6C6F723A77
:101530002077686974653B0A0A2020666F6E742DF7
:1015400073697A653A3870743B0A2020666F6E744E
:101550002D66616D696C793A617269616C2C6865A0
:101560006C7665746963613B20200A0A7D0A0A7003
:101570002E696E74726F0A7B0A20206D6172676932
:101580006E2D6C6566743A323070783B0A20206D9F
:10159000617267696E2D72696768743A323070786B
:1015A0003B0A0A2020666F6E742D73697A653A31A2
:1015B0003070743B0A2F2A2020666F6E742D776579
:1015C000696768743A626F6C643B202A2F0A202096
:1015D000666F6E742D66616D696C793A61726961CE
:1015E0006C2C68656C7665746963613B20200A7DAC
:1015F0000A0A702E636C696E6B0A7B0A2020666F84
:101600006E742D73697A653A313270743B0A20200A
:10161000666F6E742D66616D696C793A636F757271
:101620006965722C6D6F6E6F73706163653B20200E
:101630000A2020746578742D616C69676E3A636561
:101640006E7465723B0A7D0A0A702E636C696E6B5C
:10165000390A7B0A2020666F6E742D73697A653AA9
:101660003970743B0A2020666F6E742D66616D6957
:101670006C793A636F75726965722C6D6F6E6F73FA
:10168000706163653B20200A2020746578742D61A9
:101690006C69676E3A63656E7465723B0A7D0A0A0F
:1016A0000A700A7B0A202070616464696E672D6C81
:1016B0006566743A313070783B0A7D0A0A702E7282
:1016C000696768740A7B0A2020746578742D616CE0
:1016D00069676E3A72696768743B200A7D0A002F59
:1016E0007463702E7368746D6C0025213A202F6826
:1016F00065616465722E68746D6C0A3C68313E43A6
:10170000757272656E7420636F6E6E656374696F57
:101710006E733C2F68313E3C62723E3C7461626C79
:10172000652077696474683D2231303025223E0A95
:101730003C74723E3C74683E4C6F63616C3C2F7429
:10174000683E3C74683E52656D6F74653C2F7468EA
:101750003E3C74683E53746174653C2F74683E3C33
:1017600074683E52657472616E736D697373696FEC
:101770006E733C2F74683E3C74683E54696D6572AC
:101780003C2F74683E3C74683E466C6167733C2F26
:1017900074683E3C2F74723E0A2521207463702DBC
:1017A000636F6E6E656374696F6E730A25213A20EC
:1017B0002F666F6F7465722E68746D6C0A0A002F45
:1017C000666164652E706E670089504E470D0A1A77
:1017D0000A0000000D4948445200000004000000C7
:1017E0000A08020000001C996859000000097048AE
:1017F000597300000B1300000B1301009A9C180092
:1018000000000774494D4507D60608141B39AF5B25
:10181000C0E30000001D74455874436F6D6D656E24
:10182000740043726561746564207769746820543C
:1018300068652047494D50EF64256E0000003A4925
:1018400044415408D7758C3112001010C42E379EB5
:101850004065FDFF83F40A1C8D549BC9CC9A3D90D2
:1018600073716791D47436A95501F82958C8BF48D7
:10187000C481740BA30F7CDB04E84005DFA1F3FCFB
:10188000730000000049454E44AE426082002F7351
:10189000746174732E7368746D6C0025213A202F67
:1018A0006865616465722E68746D6C0A3C68313ECF
:1018B0004E6574776F726B207374617469737469A9
:1018C00063733C2F68313E0A3C63656E7465723EFB
:1018D0000A3C7461626C652077696474683D2233E8
:1018E00030302220626F726465723D2230223E0ADF
:1018F0003C74723E3C74643E3C7072653E0A4950D2
:1019000020202020202020202020205061636B6593
:1019100074732072656365697665640A20202020EF
:101920002020202020202020205061636B657473CC
:101930002073656E740A0920202020205061636B9B
:101940006574732064726F707065640A4950206515
:1019500072726F7273202020204950207665727356
:10196000696F6E2F686561646572206C656E67745F
:10197000680A20202020202020202020202020490C
:1019800050206C656E6774682C20686967682062F7
:101990007974650A2020202020202020202020206B
:1019A000204950206C656E6774682C206C6F77201E
:1019B000627974650A202020202020202020202009
:1019C0002020495020667261676D656E74730A202D
:1019D0002020202020202020202020204865616415
:1019E000657220636865636B73756D0A2020202023
:1019F00020202020202020202057726F6E6720702A
:101A0000726F746F636F6C0A49434D500920202038
:101A100020205061636B657473207265636569761D
:101A200065640A2020202020202020202020202043
:101A30005061636B6574732073656E740A20202097
:101A4000202020202020202020205061636B6574FE
:101A5000732064726F707065640A2020202020203B
:101A60002020202020202054797065206572726F1C
:101A700072730A5443502020202020202020202050
:101A80005061636B65747320726563656976656424
:101A90000A202020202020202020202020205061EB
:101AA000636B6574732073656E740A202020202098
:101AB00020202020202020205061636B657473203B
:101AC00064726F707065640A20202020202020201E
:101AD0002020202020436865636B73756D2065723C
:101AE000726F72730A2020202020202020202020C6
:101AF000202044617461207061636B65747320778A
:101B00006974686F75742041434B730A202020204C
:101B10002020202020202020205265736574730A25
:101B200020202020202020202020202020526574EA
:101B300072616E736D697373696F6E730A09202029
:101B40002020204E6F20636F6E6E656374696F6E28
:101B5000206176616C6961626C650A092020202031
:101B600020436F6E6E656374696F6E206174746577
:101B70006D70747320746F20636C6F736564207074
:101B80006F7274730A3C2F7072653E3C2F74643E12
:101B90003C74643E3C7072653E2521206E65742D58
:101BA00073746174730A3C2F7072653E3C2F7461CC
:101BB000626C653E0A3C2F63656E7465723E0A2551
:101BC000213A202F666F6F7465722E68746D6C0AEF
:101BD000002F696F2E7368746D6C003C21444F4375
:101BE000545950452048544D4C205055424C49437F
:101BF00020222D2F2F5733432F2F44544420485455
:101C00004D4C20342E3031205472616E73697469EA
:101C10006F6E616C2F2F454E222022687474703ACB
:101C20002F2F7777772E77332E6F72672F54522F9F
:101C300068746D6C342F6C6F6F73652E64746422DE
:101C40003E0A3C68746D6C3E0A20203C6865616405
:101C50003E0A202020203C7469746C653E556970F2
:101C600020576562736572766572206F7574707542
:101C7000742064656D6F3C2F7469746C653E0A2036
:101C80002020203C6C696E6B2072656C3D22737461
:101C9000796C6573686565742220747970653D227E
:101CA000746578742F6373732220687265663D22B1
:101CB0007374796C652E637373223E20200A202092
:101CC0003C2F686561643E0A20203C626F64792085
:101CD0006267636F6C6F723D22236666666565633B
:101CE0002220746578743D22626C61636B223E0A27
:101CF0000A20203C64697620636C6173733D226D19
:101D0000656E75223E0A20203C64697620636C6112
:101D100073733D226D656E75626F78223E3C612063
:101D2000687265663D222F223E46726F6E74207087
:101D30006167653C2F613E3C2F6469763E0A202036
:101D40003C64697620636C6173733D226D656E75CA
:101D5000626F78223E3C6120687265663D2266694A
:101D60006C65732E7368746D6C223E46696C6520D9
:101D7000737461746973746963733C2F613E3C2FA3
:101D80006469763E0A20203C64697620636C617346
:101D9000733D226D656E75626F78223E3C612068EE
:101DA0007265663D2273746174732E7368746D6C12
:101DB000223E4E6574776F726B2073746174697321
:101DC000746963733C2F613E3C2F6469763E0A2040
:101DD000203C64697620636C6173733D226D656E8F
:101DE00075626F78223E3C6120687265663D2274A0
:101DF00063702E7368746D6C223E4E6574776F72DB
:101E00006B20636F6E6E656374696F6E733C2F61D8
:101E10003E3C2F6469763E0A093C64697620636C17
:101E20006173733D226D656E75626F78223E3C6111
:101E300020687265663D22696F2E7368746D6C222E
:101E40003E494F203C2F613E3C2F6469763E0A207C
:101E5000203C62723E0A20203C2F6469763E0A20B4
:101E6000203C64697620636C6173733D22636F6EFE
:101E700074656E74626C6F636B223E0A093C683154
:101E80003E537769746368204C45443C2F68313E6B
:101E90000A093C70207374796C653D22666F6E741C
:101EA0002D66616D696C793A417269616C2C736160
:101EB0006E732D73657269663B20666F6E742D7349
:101EC000697A653A313570783B20636F6C6F723A8E
:101ED000626C7565223E0A09095B3C612068726587
:101EE000663D222F696F2E7368746D6C3F4C4544BC
:101EF000313D31223E677265656E204C4544204F6E
:101F00004E3C2F613E5D3C62723E0A093C2F703EA2
:101F10000A093C703E0A09093C70207374796C65AB
:101F20003D22666F6E742D66616D696C793A4172FF
:101F300069616C2C73616E732D73657269663B20E9
:101F4000666F6E742D73697A653A313570783B200F
:101F5000636F6C6F723A626C7565223E0A09095BA9
:101F60003C6120687265663D222F696F2E7368742C
:101F70006D6C3F4C4544313D30223E677265656E65
:101F8000204C4544204F46463C2F613E5D3C6272EA
:101F90003E0A20203C2F703E0A20203C2F626F64B6
:101FA000793E0A3C2F68746D6C3E0A0011241FBEF6
:101FB000CFEFD0E1DEBFCDBF13E0A0E0B1E0E2E7BC
:101FC000F5E602C005900D92AA3AB107D9F71BE0D9
:101FD000AAEAB3E001C01D92AC3EB107E1F70E944E
:101FE0002D130C94B7320C9400001F920F920FB671
:101FF0000F9211248F939F938091AB038150809314
:10200000AB038823C1F48BE48093AB03809163041A
:10201000909164040196909364048093630480918A
:10202000AA03882329F4419881E08093AA0303C07E
:10203000419A1092AA039F918F910F900FBE0F901B
:102040001F9018951F920F920FB60F921124289887
:102050000F900FBE0F901F9018951092C50080E44E
:102060008093C40088E18093C10086E08093C20021
:102070001092C0000895FC018091C00085FFFCCF44
:1020800084918093C60080E090E00895982F80911D
:10209000C00085FFFCCF9093C60080E090E00895DB
:1020A000FC0107C08091C00085FFFCCF9093C60063
:1020B000319690819923B1F70895FC0108C0809171
:1020C000C00085FFFCCF84918093C6003196849137
:1020D0008823A9F708958091C00087FFFCCF8091E5
:1020E000C6000895DC01443010F420E00AC0872FB8
:1020F00082958F708A3010F0895C01C0805D8C936E
:1021000021E0433078F0872F8F70E22FF0E08A30A3
:1021100020F0EA0FFB1F895C03C0EA0FFB1F805D04
:1021200080832F5F4230A8F0CB01807F907034E035
:10213000959587953A95E1F7E22FF0E08A3020F007
:10214000EA0FFB1F895C03C0EA0FFB1F805D8083E1
:102150002F5F442371F06F70E22FF0E06A3020F0BF
:10216000EA0FFB1F695C03C0EA0FFB1F605D608321
:102170002F5FA20FB11D1C920895F89482E084BDD8
:1021800095E095BD90E897BD80936E007894089592
:10219000809163049091640408950E945010089502
:1021A00082E392E00E945D1088EF91E00E945D1052
:1021B0008AED91E00E945D1087EB91E00E945D1036
:1021C0008CE991E00E945D108EE891E00E945D1024
:1021D00089E491E00E945D108DE091E00E945D1025
:1021E00084ED90E00E945D108FEC90E00E945D1005
:1021F00084EF91E024EF31E0F9013197F1F7019795
:10220000D9F70895CF92DF92EF92FF920F931F9329
:10221000DF93CF93CDB7DEB72E970FB6F894DEBF1E
:102220000FBECDBF8C0180910006909101069A836C
:10223000898380910206909103069C838B836E01B3
:102240000894C11CD11CF8018081882319F0C801B1
:10225000FF2439C08E010B5F1F4F898190E0B801C8
:102260004AE050E00E94852F0E94501076016801DC
:102270008E010C5F1F4F8DE692E00E945D10F7010A
:10228000818190E0B6014AE050E00E94852F0E94D3
:1022900050100894E11CF11CE016F10661F78AE683
:1022A00092E00E945D1033C02E3259F4F801108282
:1022B0000E94D02EF601EF0DF11D8083F394C8012A
:1022C00001960F5F1F4FF8012081222319F0F3E0E0
:1022D000FF1550F7F80110820E94D02EF601EF0D85
:1022E000F11D8083F601928180E0438150E0482B0C
:1022F000592B218130E0908180E0282B392B3093BD
:1023000000062093010650930206409303062E9682
:102310000FB6F894DEBF0FBECDBFCF91DF911F91F6
:102320000F91FF90EF90DF90CF900895CF92DF92C2
:10233000EF92FF920F931F93DF93CF93CDB7DEB74A
:102340002E970FB6F894DEBF0FBECDBF8C018091E3
:102350000406909105069A838983809106069091E0
:1023600007069C838B836E010894C11CD11CF80165
:102370008081882319F0C801FF2439C08E010B5FCA
:102380001F4F898190E0B8014AE050E00E94852FFC
:102390000E945010760168018E010C5F1F4F82E78A
:1023A00092E00E945D10F701818190E0B6014AE061
:1023B00050E00E94852F0E9450100894E11CF11CEF
:1023C000E016F10661F78FE692E00E945D1033C0DF
:1023D0002E3259F4F80110820E94D02EF601EF0D32
:1023E000F11D8083F394C80101960F5F1F4FF80120
:1023F0002081222319F0F3E0FF1550F7F801108235
:102400000E94D02EF601EF0DF11D8083F60192811E
:1024100080E0438150E0482B592B218130E09081AE
:1024200080E0282B392B3093040620930506509327
:102430000606409307062E960FB6F894DEBF0FBE31
:10244000CDBFCF91DF911F910F91FF90EF90DF9063
:10245000CF900895EF92FF920F931F93DF93CF9346
:10246000CDB7DEB7C05AD0400FB6F894DEBF0FBE6E
:10247000CDBFAC01DE01119690E0EE24FF2401C037
:102480009F5FFA01E90FF11D2081822F8150803278
:10249000B8F31196FC93EE930894E11CF11C2223EF
:1024A00011F41AC09F5F292F30E0BA01620F731F29
:1024B000FB018081813218F4882339F40DC0FA01C0
:1024C0008081280F311D232B69F7FB0110821296A2
:1024D000FAE0EF16F104A1F619810A81812F902FFD
:1024E0000E947B2F812F902F6CEC70E00E94022FB6
:1024F000892BA9F4A12FB02FFD0101900020E9F74D
:102500003397EA17FB0759F481E0E816F10419F054
:102510008B819C8102C080E091E00E949611812F06
:10252000902F64EC70E00E94022F892BA9F4A12F58
:10253000B02FFD0101900020E9F73897EA17FB075B
:1025400059F4E1E0EE16F10419F08B819C8102C090
:1025500080E091E00E940211812F902F6CEB70E0DF
:102560000E94022F892BA1F4A12FB02FFD01019011
:102570000020E9F73897EA17FB0751F48BEA90E05F
:102580000E945D100E94C61683EA90E00E945D10D2
:10259000812F902F6EE970E00E94022F892B61F449
:1025A000A12FB02FFD0101900020E9F73597EA1720
:1025B000FB0711F40E94D010C056DF4F0FB6F894FD
:1025C000DEBF0FBECDBFCF91DF911F910F91FF9066
:1025D000EF900895EF92FF920F931F93DF93CF93A5
:1025E000CDB7DEB72A970FB6F894DEBF0FBECDBFCA
:1025F00040EAE42E4FE0F42EC7010E94CB2D009755
:1026000041F486EF9FEFE80EF91EE114F104A1F703
:1026100002C00E94782E8EE792E00E945D10C701F2
:102620008E010F5F1F4FB8014AE050E00E94852FD6
:10263000C8010E94501084E792E00E945D10C7011B
:102640002A960FB6F894DEBF0FBECDBFCF91DF91B3
:102650001F910F91FF90EF9008952F923F924F920C
:102660005F926F927F928F929F92AF92BF92CF9222
:10267000DF92EF92FF920F931F93DF93CF93CDB72B
:10268000DEB7C855D0400FB6F894DEBF0FBECDBF41
:1026900011B88FEF84B987B912B815B887EF88B928
:1026A000459A449A43984698479A1092C50080E408
:1026B0008093C40088E18093C10086E08093C200CB
:1026C0001092C0000E94D0100E94EA1284EF91E0A4
:1026D00024EF31E0F9013197F1F70197D9F7F89438
:1026E00088E08093690082E08DBB78948EE890E06A
:1026F0000E945D10B0E5CB2EB3ECDB2EC601019736
:10270000F1F70E94C61680E091E00E9496110E94A7
:10271000BD108E010F5F1F4FC80164EF71E00E9472
:10272000DA25A5E0EA2EF12CEC0EFD1EC70160E1D2
:1027300077E20E94DA2582E890E00E945D10C601EF
:102740000197F1F70E9404230E94F1170E94BA2614
:10275000CC24DD24702E812EF2E72F2EF4E03F2EC4
:10276000EFE14E2EE5E05E2E9E2CEF2C7AE0672EF8
:1027700069E0A62EB12CAC0EBD1E02C08601680118
:102780000E9488169093660480936504892B89F1D2
:10279000009114061091150680E098E00E94EB1855
:1027A0000817190779F40E94E92081E00E9417199F
:1027B0008091650490916604892B09F455C00E94AC
:1027C000D32114C0009114061091150686E098E0FC
:1027D0000E94EB180817190709F046C00E941D2136
:1027E0008091650490916604892BF1F10E943A155D
:1027F0003BC0872D982D0E94B825892BA9F1872DE4
:10280000982D0E94AE25309271042092700482E0CF
:102810000E9417198091650490916604892B21F01C
:102820000E94D3210E943A15509271044092700484
:1028300082E00E9417198091650490916604892BAB
:1028400021F00E94D3210E943A15892D9E2D0E94CD
:10285000B825892B31F0892D9E2D0E94AE250E942E
:10286000D72252E0C52ED12C8091C00087FF88CF9F
:102870008601F090C6008091C00085FFFCCFF092E9
:10288000C6008DE0F816A1F48091C00085FFFCCF52
:102890006092C600CA0CDB1CF6011082C5010E94C2
:1028A0002A1280E890E00E945D10CC24DD2414C040
:1028B000F8E0FF1661F4C114D10409F460CF860179
:1028C000015010408CE790E00E945D1058CF8EE4DC
:1028D000C816D1040CF052CFF501EC0DFD1DF082AD
:1028E00086010F5F1F4F4BCF439A9FEF91B982B97B
:1028F0004398449862B9449A62B911B808950F9305
:102900001F93282F192F062F89E090E0622F0E9435
:10291000741488E090E0612F0E94741482E090E0CB
:10292000602F0E9474141F910F9108950F931F93AD
:10293000282F192F062F89E090E0622F0E9474142F
:1029400088E090E0612F0E94741484E090E0602F92
:102950000E9474141F910F910895439A9FEF91B9AB
:1029600082B9439811B8459880B180B180B180B1E7
:1029700080B1459A08950F931F93CF93DF9384E519
:1029800090E00E94AD148823D1F789E590E060E0E3
:102990000E9474148AE590E060E00E94741480E064
:1029A00090E0EC012196FE01E95FF94F60810E9401
:1029B0009614CE01CE30D105A1F780916504909197
:1029C0006604C79760F013C08E010F5F1F4FF801B8
:1029D000E95FF94FCE0160810E949614E801809171
:1029E000650490916604C817D90770F325C0CE011D
:1029F0002196FE01E95FF94F60810E949614C6336B
:102A0000D105A9F70EC08E010F5F1F4FE0916E0434
:102A1000F0916F04E20FF31FCE0160810E949614C3
:102A2000E8019E0126533040809165049091660430
:102A3000C6972817390738F387E590E06D2F0E9475
:102A4000741488E590E06C2F0E94741489E590E07E
:102A500060E00E9474148AE590E060E00E947414C3
:102A600083E590E061E00E947414DF91CF911F91A3
:102A70000F9108950E94BB140895EF92FF920F9357
:102A80001F93CF93DF938FE190E00E94AD14182F36
:102A900000E080E290E00E94AD14E82EFF24E02ADE
:102AA000F12AC0E0D0E009C081E090E00E94AD14BE
:102AB000FE01E85FF94F80832196CE15DF05A0F374
:102AC000C701DF91CF911F910F91FF90EF90089573
:102AD0001F93682F192F89E090E00E94741488E0FA
:102AE00090E0612F0E94741482E090E00E94AD1487
:102AF0001F9108951F93682F192F89E090E00E947D
:102B0000741488E090E0612F0E94741484E090E0D7
:102B10000E94AD141F9108950F931F93282F8B01CE
:102B20008AE090E0622F0E947414612F772767FD7E
:102B30007A958BE090E00E9474148CE090E0602F16
:102B40000E9474148DE090E061E00E9474141F9163
:102B50000F9108950F931F93CF93DF9383E690E037
:102B60000E94AD1485E790E064E00E94741483E64F
:102B700090E00E94AD1485FFFACF89E790E06EEFF8
:102B80000E94741488E790E060E00E94741408E8E2
:102B900013E1C8010197F1F78FE790E00E94AD14AF
:102BA00088E790E060E80E947414C8010197F1F78B
:102BB00088E790E060EE0E9474148EEE92E024EFBD
:102BC00031E0F9013197F1F70197D9F7C8EBDBE074
:102BD00008E813E104C0C8010197F1F721978FE7D6
:102BE00090E00E94AD1480FD03C02097A1F702C0C1
:102BF000CD2B21F48EE992E00E945D10C8EBDBE062
:102C000008E813E104C0C8010197F1F7219788E7AC
:102C100090E00E94AD1480FD03C02097A1F702C090
:102C2000CD2B21F484E992E00E945D1081E063EBFA
:102C300070E40E948C1582E065E170E00E948C15C2
:102C400083E062E17CE00E948C1585E06EEE75E029
:102C50000E948C1588E690E06AEF0E94741489E661
:102C600090E06FE10E94741485E090E00E94AD1442
:102C7000082F10E085E090E00E94AD14782F60E00E
:102C8000602B712B82E10E948C1585E090E00E9400
:102C9000AD14082F10E085E090E00E94AD14782F6D
:102CA00060E0602B712B81E10E948C1585E090E043
:102CB0000E94AD14082F10E085E090E00E94AD1452
:102CC000782F60E0602B712B80E10E948C1580E7EB
:102CD00090E06CE00E94741480E061E070E00E947B
:102CE0008C1584E690E063E00E9474148DE790E018
:102CF00060E00E94741483E690E00E94AD148FE7B8
:102D000090E00E94AD14DF91CF911F910F91089533
:102D1000CF93DF9383E690E00E94AD148093AC03E1
:102D200081FF0EC082EB92E00E945D1081E190E095
:102D300061E00E94741481E190E060E00E947414EC
:102D40001092AC038DE190E00E94AD1487FF18C093
:102D50008EE190E00E94AD1487FF12C0289A87E1AF
:102D600090E00E94AD1488E190E00E94AD140E94B2
:102D70003D15EC0181E190E066E00E94741402C010
:102D8000C0E0D0E0CE01DF91CF910895EF92FF92A5
:102D90000F931F93DF93CF93CDB7DEB760970FB636
:102DA000F894DEBF0FBECDBF0E94AA1588E690E062
:102DB0006AEF0E94741489E690E06FE10E94741437
:102DC0008BEA92E00E945D108E010F5F1F4F97E02B
:102DD000E92EF12CEC0EFD1E85E090E00E94AD1472
:102DE000682FF80181938F01C70170E042E00E94D3
:102DF0007210C7010E9450100E151F0569F788EA6E
:102E000092E00E945D1089818093AD038A81809356
:102E1000AE038B818093AF038C818093B0038D814F
:102E20008093B1038E818093B2038FEF9FEF9093D5
:102E30000106809300068FEF90E090930306809345
:102E4000020620EC38EA30930506209304068AE255
:102E50009AE290930706809306063093D10520935B
:102E6000D0058AE292E09093D3058093D2056096D4
:102E70000FB6F894DEBF0FBECDBFCF91DF911F918B
:102E80000F91FF90EF9008959093B4038093B30354
:102E90000895FC015381560F50936C04272F33275C
:102EA0004281420F40936B04A181A0936A04E081A8
:102EB000E0936904842F90E08217930748F48A2FE7
:102EC0008F5F80936A04882319F4EF5FE0936904AD
:102ED000852F90E070708617970790F4842F8F5F8E
:102EE00080936B04882361F480916A048F5F8093E0
:102EF0006A04882329F4809169048F5F80936904B0
:102F000008959C0141505040460F571FFB010EC0D1
:102F1000708160E08181DB01A80FB11D2A0F3B1F8A
:102F20002A173B0710F42F5F3F4F3296E417F5073F
:102F300078F3E417F50749F4908180E0280F391FF2
:102F40002817390710F42F5F3F4FC90108959C01DE
:102F5000AB0180E090E0B9010E948117282F892FF2
:102F6000922F089580E090E066E176E044E150E041
:102F70000E948117009719F42FEF3FEF02C0382FFE
:102F8000292FC90108950F931F930091190610E08E
:102F9000045110403091180620E0020F131F9801D1
:102FA000280F311DC90162E276E048E050E00E943E
:102FB00081176AE276E0A8010E948117009719F450
:102FC0002FEF3FEF02C0382F292FC9011F910F911A
:102FD000089586E00E94C317089581E10E94C317F7
:102FE000089580E009C0E82FF0E0EE0FFF1FE453E2
:102FF000FA4F118210828F5F8230A8F320E04DEAF1
:1030000050E00DC0822F90E0849FF001859FF00D6D
:10301000949FF00D1124EE58FB4F118E2F5F22303C
:1030200088F32093BB0380E094E09093BA038093ED
:10303000B9030895CF93DF93EC014091B903509108
:10304000BA03BDEA4F5F5F4F8DE74030580710F07D
:1030500040E050E1342F252FA0E00EC0AB9FF001DF
:103060001124EE58FB4F818D882329F084819581AE
:103070008217930739F3AF5FA23081F74093B9030A
:103080005093BA031092BB03E0E0F0E020E03DEA89
:103090001AC0239FD0011124AE58BB4F59968C9172
:1030A0005997882321F42093BB03FD0110C087307A
:1030B00049F4309731F05A969C915A97828D89172E
:1030C00008F4FD012F5F223020F32093BB033097DB
:1030D00061F182E0818F8091B50384878091B6038E
:1030E00085878091B70386878091B803878786EAB2
:1030F00095E0938B828B958B848B81E090E0918B14
:10310000808B138E81E0828F83E0808F168A80E12E
:10311000878B5483458377836683888199819183E4
:1031200080838A819B8193838283CF01DF91CF91BA
:103130000895AC011092BB0320E013C0E22FF0E031
:10314000322F3F5FEE0FFF1FE453FA4F80819181D2
:103150008417950729F42093BB03118210820895E8
:10316000232F223058F32093BB030895AC01109213
:10317000BB0320E012C0E22FF0E0322F3F5FEE0FE2
:10318000FF1FE453FA4F80819181892B29F420930A
:10319000BB03518340830895232F223060F3209393
:1031A000BB030895BC01809170049091710408964E
:1031B0000E944917E0917004F091710480916904B4
:1031C000808780916A04818780916B0482878091D7
:1031D0006C0483870895282F892F922F0895AC01BE
:1031E000FB011616170684F46093E60BF093E70BC9
:1031F00020916704309168048217930729F0C90170
:10320000BA01AF010E94382F0895AC019B01161638
:10321000170664F46093E60B3093E70B8091670424
:1032200090916804BA01A9010E94EE2E08950F93AF
:103230001F93CF93DF93C0917004D09171042EE35C
:1032400036E030936F0420936E043093680420932B
:103250006704833059F4898D8F70833009F001C77A
:1032600088899989892B09F0FCC692C0823009F0BF
:1032700093C08091B8038F5F8093B803882399F43B
:103280008091B7038F5F8093B703882361F48091A7
:10329000B6038F5F8093B603882329F48091B5032A
:1032A0008F5F8093B50310926604109265041092AC
:1032B000E70B1092E60B298D273011F0253041F4F1
:1032C0008A8D8F5F8A8F883709F0CBC6198EC9C661
:1032D000222309F4C6C688899989892B09F454C028
:1032E0008A8D81508A8F8F5F09F0BBC63B8D383045
:1032F00029F02150223048F4353039F4198E80E815
:1033000080936D040E94692A50C5353010F080E327
:1033100007C083E090E002C0880F991F3A95E2F75A
:103320008A8F8B8D8F5F8B8F8091FA059091FB0533
:1033300001969093FB058093FA05898D90E08F703C
:10334000907083309105D1F08430910544F4813040
:10335000910509F40CC3029709F083C60CC08630AE
:10336000910509F4B5C48830910509F4B1C40497F6
:1033700009F077C6ADC410923706FCC284E0809392
:103380006D040E94692A46C52F70233009F069C672
:1033900088E080936D04FDC48091D6059091D70597
:1033A00001969093D7058093D60589010852104065
:1033B000809116068534A9F08091D4059091D505A9
:1033C00001969093D5058093D4058091DA0590916C
:1033D000DB0501969093DB058093DA0581E091E0AF
:1033E0001DC09091180680E020911906AC01420F93
:1033F000511D80916504909166048417950760F0D3
:10340000509366044093650480911C0690E08F738E
:103410009070892B31F009C087E291E00E94CD10B5
:1034200020C680911D068823A9F08091D405909133
:10343000D50501969093D5058093D4058091E0053C
:103440009091E10501969093E1058093E00586E572
:1034500091E0E4CF209104063091050680910702A7
:10346000909108022817390731F48091060690914F
:103470000706892BE1F08091260690912706821796
:10348000930759F420912806309129068091060669
:10349000909107062817390751F08091D405909133
:1034A000D50501969093D5058093D405DAC50E9481
:1034B000B2178F5F9F4FA9F08091D4059091D505E9
:1034C00001969093D5058093D4058091E205909163
:1034D000E30501969093E3058093E2058CE691E085
:1034E0009DCF80911F06863009F474C08130A9F009
:1034F0008091D4059091D50501969093D505809340
:10350000D4058091E4059091E50501969093E50539
:103510008093E4058EE791E081CF8091E80590915A
:10352000E90501969093E9058093E80580912A06C4
:103530008830A9F08091E6059091E7050196909377
:10354000E7058093E6058091EC059091ED050196E5
:103550009093ED058093EC0588E991E05FCF1092A0
:103560002A0680912C0690912D06EFEF873F9E074B
:1035700010F0099601C0089690932D0680932C06B2
:103580008091220690912306909327068093260629
:103590008091240690912506909329068093280611
:1035A000809104069091050690932306809322064D
:1035B0008091060690910706909325068093240635
:1035C0008091EA059091EB0501969093EB0580932D
:1035D000EA053DC58091F0059091F1050196909323
:1035E000F1058093F0050E94E9178F5F9F4FA9F0C6
:1035F0008091EE059091EF0501969093EF058093F1
:10360000EE058091F4059091F50501969093F505EE
:103610008093F4058DEA91E001CFC2E7D4E0898D73
:10362000882329F120912C0630912D068C819D81D3
:1036300028173907E1F420912A0630912B068E8154
:103640009F812817390799F420912206309123068B
:10365000888199812817390751F4209124063091E7
:1036600025068A819B812817390709F49CC1C35517
:10367000DF4F25E0CF31D20791F288F280913706F3
:103680008F73823059F580912C0690912D0690937E
:10369000BE038093BD031092BB0313C0E42FF0E080
:1036A000EE0FFF1FE453FA4F2091BD033091BE038C
:1036B000808191812817390709F483C04F5F4093B7
:1036C000BB034091BB03423048F38091FE059091CB
:1036D000FF0501969093FF058093FE0580913706C4
:1036E00082FDBFC48091F8059091F90501969093F1
:1036F000F9058093F80584E1F80181A388E290E060
:10370000909366048093650480E580A390913106D0
:1037100080913506838F3091300680913406828FF8
:10372000368F40912F0680913306818F458F2091EF
:103730002E062093BB0380913206808F248F9F5FDB
:10374000978F992361F4832F8F5F868F882339F4B5
:10375000842F8F5F858F882311F42F5F248F209112
:103760002A0630912B063093BE032093BD0380912F
:103770002C0690912D06F801958B848B378B268B28
:103780008091220690912306909327068093260627
:10379000809124069091250690932906809328060F
:1037A000809104069091050690932306809322064B
:1037B0008091060690910706909325068093240633
:1037C00000C41092BB03C0E0D0E04DEA50E03DEAF7
:1037D00025C0822F90E0849FF001859FF00D949F7B
:1037E000F00D1124EE58FB4F818D882339F48DEABA
:1037F000289FE0011124CE58DB4F14C0873059F4C4
:10380000209721F0928D8A8D891728F4239FE0015B
:103810001124CE58DB4F2F5F2093BB032091BB03B5
:103820002230B8F2209761F48091FC059091FD055B
:1038300001969093FD058093FC0580EC91E0EECD20
:10384000D0937104C093700483E08A8F888F1E8A9E
:1038500084E08F8B1B8E80912C0690912D069D838A
:103860008C8380912A0690912B069F838E83809172
:103870002206909123069983888380912406909153
:1038800025069B838A8381E0898F8091B5038C878D
:103890008091B6038D878091B7038E878091B8039E
:1038A0008F8781E090E0998B888B809131068B87A0
:1038B000809130068A8780912F06898780912E0615
:1038C000888781E090E00E94D2188091360690E0CF
:1038D000807F9070813591050CF449C01092BB0334
:1038E00034C0F901E85FF94F86A98093BC038823AF
:1038F000F1F1813021F44F5F4093BB0326C0823049
:10390000C1F487A98430A9F430AD20E081AD90E006
:10391000822B932B9093BE038093BD03F5E0873AEF
:103920009F0710F086EA95E09B8B8A8B9D8B8C8B92
:103930001EC09091BB03E92FF0E0E85FF94F87A923
:103940008823A9F0890F8093BB034091BB03242FE8
:1039500030E08091360682958F7090E00597880F51
:10396000991F880F991F281739070CF4BACF80E1E7
:10397000809337068091370682608093370682E015
:1039800080933E0684E080933F0685E08093400666
:1039900086EA809341068CE290E0909366048093DF
:1039A000650480E6BBC2D0937104C093700410928A
:1039B0006D0480913706482F50E082FF07C0198EB2
:1039C00082EE91E00E94CD1080E251C280913606D5
:1039D00082958F70880F880F8093BB0320916504B8
:1039E0003091660424513040281B3109309366041D
:1039F00020936504898D8F70823029F44F73507045
:103A00004231510509F1232B39F48091370690E0BA
:103A100083709070892BC1F090912E06888598173D
:103A200009F072C290912F068985981709F06CC22F
:103A3000909130068A85981709F066C290913106F8
:103A40008B85981709F060C28091370684FF51C0BA
:103A5000688979896115710509F44BC0CE010C960E
:103A60000E9449172091320680916904281709F0B5
:103A700040C09091330680916A049817D1F59091D7
:103A8000340680916B049817A1F5909135068091CA
:103A90006C04981771F52C8780916A048D8780914A
:103AA0006B048E8780916C048F878B8D8823D1F473
:103AB0002E89988D8A8D981B822F8695869586955E
:103AC000981B392F320F3E8B8F89282F26952695EC
:103AD000821B97FD9195890F8F8B3695369536957C
:103AE000830F888F81E080936D04888D8A8F198A77
:103AF000188A898D282F30E0C9018F70907084302A
:103B0000910509F4B9C1853091055CF482309105C5
:103B100091F1833091050CF0B1C0019709F0A1C279
:103B200010C08630910509F4E7C1863091050CF488
:103B3000C3C18730910509F4E7C1089709F091C224
:103B400090C180916D0480FF8CC283E0898F80E4F6
:103B500080936D04198A188A209165043091660457
:103B60002115310509F411C182E480936D04C90166
:103B70000E94D2180AC180916D0480FF74C08091A8
:103B800037068F73823109F06EC08091360690E05F
:103B9000807F9070813591050CF449C01092BB0371
:103BA00034C0F901E85FF94F86A98093BC038823EC
:103BB000F1F1813021F44F5F4093BB0326C0823086
:103BC000C1F487A98430A9F430AD20E081AD90E044
:103BD000822B932B9093BE038093BD0325E0873AFD
:103BE000920710F086EA95E09B8B8A8B9D8B8C8BDD
:103BF0001EC09091BB03E92FF0E0E85FF94F87A961
:103C00008823A9F0890F8093BB034091BB03242F25
:103C100030E08091360682958F7090E00597880F8E
:103C2000991F880F991F281739070CF4BACF83E022
:103C3000898F80912E06888780912F0689878091B1
:103C400030068A87809131068B8781E090E00E9460
:103C5000D21882E480936D04198A188A109266043F
:103C60001092650492C080E280936D040E94692ADC
:103C7000E0917004F0917104118E30CD809137067F
:103C800080FF2AC024FD28C088899989892B09F0E2
:103C9000E8C1809165049091660401960E94D21853
:103CA00020916D04822F806180936D048091650462
:103CB00090916604892B19F0226120936D040E9473
:103CC000692A81E090E0998B888B88E0898F1B8E30
:103CD00081E1809337061BC185FF21C060913C06BE
:103CE000362F20E040913D0650E0242B352B80916B
:103CF0006E0490916F04820F931F90936F048093D2
:103D00006E04962F80E0842B952B209165043091D2
:103D10006604281B390B30936604209365042091B8
:103D20006504309166042115310559F0898D84FDB3
:103D300008C080916D04826080936D04C9010E9467
:103D4000D2189091380680E020913906820F911D9B
:103D50009093BE038093BD032C893D8928173907B2
:103D600010F0892B21F43093BE032093BD03809182
:103D7000BD039091BE039B8B8A8B80916D0490E074
:103D800083709070892B09F46CC11092E70B10922C
:103D9000E60B0E94692A80916D04282F85FF07C0D9
:103DA0001092E70B1092E60B198E84E192CF84FFFC
:103DB0000AC01092E70B1092E60B81E090E0998B1D
:103DC000888B84E083CF8091E60B9091E70B892B61
:103DD00001F120FF02C0198A188A88899989009701
:103DE000A1F42A893B898091E60B9091E70B281773
:103DF000390720F43093E70B2093E60B8091E60B14
:103E00009091E70B998B888B04C09093E70B80937C
:103E1000E60B1B8E809167049091680490936F0469
:103E200080936E048091E60B9091E70B892B59F0FB
:103E300088899989009739F08896909366048093D1
:103E4000650488E10BC080916D0481FF0AC188E29E
:103E500090E0909366048093650480E18093370638
:103E60005CC080916D0480FFFCC0198E80E180935E
:103E70006D040E94692AF5C08091650490916604E2
:103E8000009711F00E94D2188091370690916D042E
:103E900080FF0BC090FF06C087E0898F1A8E198AB9
:103EA000188A19C086E0898F16C090FF1EC085E071
:103EB000898F198A188AD5C080916504909166040B
:103EC000009711F00E94D2188091370680FF0DC034
:103ED00087E0898F1A8E81E090E00E94D21880E1FD
:103EE00080936D040E94692A0FC0809165049091AF
:103EF0006604892B49F4B5C080916D0480FFB1C080
:103F000087E0898F1A8EADC080E1F80181A388E235
:103F100090E0909366048093650480E58093360674
:103F20008885809332068985809333068A858093BD
:103F300034068B85809335068C8580932E068D857F
:103F400080932F068E85809330068F85809331066F
:103F500086E080931F068C819D8190932B06809331
:103F60002A068E819F8190932D0680932C06809146
:103F70000406909105069093230680932206809173
:103F80000606909107069093250680932406888163
:103F9000998190932706809326068A819B8190932E
:103FA000290680932806898D84FF05C01092390662
:103FB0001092380606C085E08093380686EA809322
:103FC000390680E480931E0680916604809318066B
:103FD000809165048093190610923D0610923C066C
:103FE00010923B0610923A060E94E9178095909530
:103FF00090933B0680933A0685E4809316061092D0
:10400000170610921D0610921C068091B303909122
:10401000B40301969093B4038093B30390931A066C
:1040200080931B0610922106109220060E94B21760
:104030008095909590932106809320068091F205BB
:104040009091F30501969093F3058093F20580918A
:10405000D8059091D90501969093D9058093D805FC
:1040600004C0109266041092650410926D04DF91F2
:10407000CF911F910F910895DF92EF92FF920F93CE
:104080001F93CF93DF93DC01062FD72E1092EF03FF
:10409000E0E0F0E060E01BE02BC0619FF001112444
:1040A000E154FC4F408151814115510501F12281BC
:1040B000338121153105D9F08D919C911197841789
:1040C0009507A9F412968D919C91139782179307E7
:1040D00071F46093EF03EF012496802F9D2D9C01D6
:1040E000D90186E00D9009928150E1F767C06F5FBA
:1040F000643098F21092EF0320E03BE011C0239F60
:10410000F0011124E154FC4F80819181892B39F415
:1041100082819381892B19F42093EF033CC02F5F98
:10412000243068F32093EF032430A9F51092F203B2
:104130001092F0031091F103C12FD0E060E070E025
:1041400040E08BE0E82EF12C18C0842F90E08E9D8B
:10415000F0018F9DF00D9E9DF00D1124E154FC4F58
:1041600052859E01251B3109872F90E08217930706
:104170001CF4712F751B642F4F5F443030F3609334
:10418000F0037093F2036093EF038BE0689FF001FC
:104190001124E154FC4F8D919D910D90BC91A02D67
:1041A000EF0189939993A993B993202F3D2DC901CC
:1041B000DC0186E00D9009928150E1F78091F103D6
:1041C0008287DF91CF911F910F91FF90EF90DF9049
:1041D000089580916504909166040E97909366040B
:1041E0008093650480910406909105062091220633
:1041F00030912306822793272091000630910106F3
:1042000082239323892BC1F480910606909107069F
:1042100020912406309125068227932720910206BB
:104220003091030682239323892B31F482E296E0B6
:104230006EE076E00E943C200895CF93DF9380915A
:104240006504909166048A9728F41092660410928F
:104250006504A6C01092660410926504C8E0D6E01A
:1042600080911C0690911D0621E08030920729F074
:104270008050924009F094C076C020912E06309173
:104280002F0680910406909105062817390709F03A
:1042900087C02091300630913106809106069091BA
:1042A00007062817390709F07BC0CE014C96BE01DE
:1042B0006A5E7F4F0E943C2080E092E090931D0652
:1042C00080931C06DE019096FE01769686E00190B2
:1042D0000D928150E1F7AEE1B6E0EDEAF3E086E061
:1042E00001900D928150E1F7AEE0B6E0EDEAF3E027
:1042F00086E001900D928150E1F7E8E0F6E0DF0101
:10430000909686E00D9001928150E1F7809124060D
:104310009091250690932F0680932E068091260675
:104320009091270690933106809330068091040681
:1043300090910506909325068093240680910606A9
:1043400090910706909327068093260688E096E0D2
:1043500090931506809314068AE290E09093660489
:10436000809365041DC020912E0630912F06809108
:104370000406909105062817390791F4209130061C
:10438000309131068091060690910706281739076B
:1043900039F4CE014C96BE016A5E7F4F0E943C20EC
:1043A000DF91CF9108954091260650912706809184
:1043B0000B0290910C024817590789F48091280646
:1043C000909129068F5F9F4F51F4A8E0B6E0EFE08F
:1043D000F2E086E001900D928150E1F7CFC080912C
:1043E00004069091050684279527209100063091B8
:1043F000010682239323892B91F460912806709102
:104400002906809106069091070686279727209116
:1044100002063091030682239323892B89F0809131
:10442000D0059091D1059093EC038093EB0380919C
:10443000D2059091D3059093EE038093ED0308C0CD
:104440005093EC034093EB037093EE036093ED0302
:104450001092EF036091EB037091EC034091ED0338
:104460005091EE03E0E0F0E020E03BE013C0239F3A
:10447000F0011124E154FC4F808191816817790784
:1044800041F4828193814817590719F42093EF036F
:104490006DC02F5F243058F32093EF03243009F0D0
:1044A00065C088E096E06FEF70E046E050E00E9463
:1044B000412FE8E2F6E086E0DF011D928A95E9F7F8
:1044C0007A97ADEAB3E086E00D9001928150E1F772
:1044D000AEE1B6E0EDEAF3E086E001900D928150A6
:1044E000E1F78091EB039091EC0390932F0680937A
:1044F0002E068091ED039091EE0390933106809308
:1045000030068091040690910506909325068093CD
:1045100024068091060690910706909327068093C3
:10452000260680E091E090931D0680931C069093F0
:1045300017068093160688E090E090931906809302
:10454000180686E080931A0684E080931B0688E0B4
:1045500096E090931506809314068EE396E0909370
:104560006F0480936E048AE290E01CC0A8E0B6E07D
:10457000349686E001900D928150E1F7AEE0B6E00E
:10458000EDEAF3E086E001900D928150E1F788E0DA
:1045900090E09093150680931406809165049091A5
:1045A00066040E9690936604809365040895809146
:1045B000F1038F5F8093F1031092EF034BE01FC074
:1045C000249FF0011124E154FC4F828193812081CA
:1045D0003181822B932B892B69F08091F10390E03C
:1045E0002285821B91098837910524F0108211825F
:1045F000128213828091EF038F5F8093EF032091EB
:10460000EF032430E8F208951092EF039BE00CC012
:10461000899FF0011124E154FC4F10821182128213
:1046200013828F5F8093EF038091EF03843080F3D8
:104630000895FC01DB0120E040E05AE030E0808199
:104640003F5F3530C9F08E3211F0882319F42D9375
:1046500020E008C0982F90539A3070F4259F202DA9
:104660001124290F31968E3211F0882341F74F5FC4
:10467000443021F781E0089580E00895FC018489A9
:10468000863049F580916D0480FF25C08285938531
:10469000A0917004B091710452964D915C91539722
:1046A000248135814817590768F4841B950B93873B
:1046B000828752968D919C915397280F391F35838D
:1046C000248306C0280F391F35832483138612865E
:1046D00081E0848B089580E00895FC01228933896C
:1046E00080899189281B390BC9010895FC018485B3
:1046F0009585892B11F081E008958489823021F419
:1047000083E0848B80E0089580916D0490E096951D
:104710008795817008951F93CF93DF93EC01162F37
:104720008A819B81009729F08755914009F073C0D9
:1047300010C02A893B89888599859F878E87398B08
:10474000288B8C859D85892BB9F587E591E09B8326
:104750008A83CE010E947623882309F45FC082E019
:104760008C8B80916E0490916F049F838E838091D7
:104770006504909166049D878C871EC0EE81FF8141
:104780002081EE85FF8520838E819F8101969F8306
:104790008E838E859F8501969F878E878C859D85CC
:1047A00001979D878C87888999890197998B888B38
:1047B000211711F482E021C088899989892B21F081
:1047C0008C859D85892BD1F68C859D85892B79F4E7
:1047D00080E013C0EE81FF818191215030403D8700
:1047E0002C87FF83EE83811711F483E006C02C85AC
:1047F0003D852115310571F781E081FFA2CF2A891E
:104800003B89888999892817390729F41C8A1B82D2
:104810001A8280E003C01B821A8282E0DF91CF916E
:104820001F910895FC01148A15861486718760878C
:10483000538B428B77876687518B408B1182108216
:10484000138212820895CF93DF93EC018A819B81BA
:10485000009729F08257914009F086C010C02A893C
:104860003B89888599859F878E87398B288B8C8596
:104870009D85892BC1F482E791E09B838A83CE01D9
:104880000E947623882309F472C082E08C8B809189
:104890006E0490916F049F838E8380916504909144
:1048A00066049D878C87EC85FD8528893989E21708
:1048B000F307F0F46E817F818E859F85AF010E94A2
:1048C000382F8E859F852C853D85820F931F9F876E
:1048D0008E8788899989821B930B998B888B8E810F
:1048E0009F81820F931F9F838E831D861C86BFCF5F
:1048F0008E859F856E817F81E217F307B1F4AF014A
:104900000E94382F8E859F852C853D85820F931FB1
:104910009F878E87198A188A8E819F81820F931FA5
:104920009F838E831D861C8625C0A9010E94382F77
:104930008E859F8528893989820F931F9F878E874F
:104940008C859D85821B930B9D878C878E819F8193
:10495000820F931F9F838E83198A188A0BC01C8A2B
:104960001B821A8280E003C01B821A8282E0DF91E0
:10497000CF9108952A893B89888999892817390711
:1049800099F7EDCFCF93DF93EC018C89863031F42A
:1049900080916D0482FD02C080E013C02A853B85B2
:1049A000E0917004F0917104628973898C819D811A
:1049B0006217730708F0B9010E94EF1886E08C8B2C
:1049C00081E0DF91CF910895CF92DF92EF92FF9235
:1049D0001F93CF93DF93EC017B016A018A819B8156
:1049E000009721F08A52914079F51EC0611571053A
:1049F00021F41B821A8281E02AC0CA01FB010995B9
:104A00009B878A8780916E0490916F049D838C832D
:104A10001C8A80916D0482FF03C0C601F7010995CD
:104A20008AE291E09B838A83CE010E943E23182F65
:104A3000CE010E94C224182311F480E008C08A85A8
:104A40009B85892B31F71C8A1B821A8282E0DF91B9
:104A5000CF911F91FF90EF90DF90CF9008951F931B
:104A6000CF93DF93EC018A819B81009721F0823EF6
:104A7000910511F511C04115510521F41B821A82CF
:104A800081E01DC07D836C835B874A871C8A0FC0D1
:104A900082EE90E09B838A83CE010E943E23182FF2
:104AA000CE010E94C224182311F480E008C08A8538
:104AB0009B85892B69F71C8A1B821A8282E0DF9111
:104AC000CF911F9108951F93CF93DF93EC018A81BB
:104AD0009B81009721F08B509140C9F511C0411581
:104AE000510521F41B821A8281E034C07D836C83DE
:104AF0005B874A871C8A26C08BE091E09B838A8370
:104B0000CE010E943E23182F8C89863031F480918B
:104B10006D0482FD02C080E013C02A853B85E091D0
:104B20007004F0917104628973898C819D81621790
:104B3000730708F0B9010E94051986E08C8B81E0AB
:104B4000812341F08A859B85892BB1F61C8A1B82C3
:104B50001A8282E0DF91CF911F910895FC0180813C
:104B6000918122813381820F931F918380830895E5
:104B70000F931F938C010E94C81040E050E0F80191
:104B800020813181821B930B22813381821793070D
:104B900014F041E050E0CA011F910F9108950F9366
:104BA0001F938C010E94C810F801918380831F918C
:104BB0000F9108950F931F938C01FC0173836283FF
:104BC0000E94C810F801918380831F910F9108956E
:104BD000EDEFF3E080E880833B9694E0E535F9075C
:104BE000D1F70895EDEFF3E0808187FD02C08F5F7C
:104BF00080833B9684E0E535F807B1F70895DC0142
:104C00006D917C911197E3EFF3E040E050E08081FB
:104C1000918186179707B1F42281338112968D9185
:104C20009C9113972817390769F48BE090E0489F0F
:104C3000F001499FF00D589FF00D1124ED50FC4FED
:104C400041F408954F5F5F4F3B9648305105F9F6A8
:104C5000089512860895DC016D917C911197E3EF20
:104C6000F3E040E050E08081918186179707B1F42E
:104C70002281338112968D919C91139728173907C1
:104C800069F48BE090E0489F9001499F300D589F58
:104C9000300D11242D503C4F41F40AC04F5F5F4F3F
:104CA0003B9648305105F9F603C02C5F3F4F02C0D8
:104CB00020E030E0C9010895EF92FF920F931F9317
:104CC000CF93DF93EC01F62EE72EA3EFB3E040E0A5
:104CD00050E060E070E000E01A961C911A971038DE
:104CE00001F1EF2DFE2D2D913C9111978081918145
:104CF0002817390749F412962D913C911397828118
:104D000093812817390769F0011710F0102F01C09F
:104D1000BA014F5F5F4F1B964830510519F0012FC4
:104D2000DBCFBA018BE090E0689F9001699F300D66
:104D3000789F300D1124F901ED50FC4F12868881C7
:104D40009981918380838A819B8193838283D90116
:104D5000A950BC4F2F2D3E2DC901FC0186E00190CA
:104D60000D928150E1F7DF91CF911F910F91FF904C
:104D7000EF90089580E090E50E94B61808950F9393
:104D80001F93CF93DF938C01EB01FC0186899789F8
:104D9000893E910509F481C08A3E910588F48F3DD2
:104DA000910541F1803E910518F4892BF1F0D9C0AD
:104DB000843E9105D1F1873E910509F0D2C055C0DE
:104DC0008D3E910509F499C08E3E910528F48B3EE5
:104DD000910509F0C6C079C08F3E910509F4A5C0C0
:104DE000813F910509F0BDC0AFC08FED90E0F801A3
:104DF000978B868BCE010E94122FAC01C80146967C
:104E0000BE010E946325882309F4B0C0C8018059FF
:104E10009F4F6EE270E00E94702FEC01009779F4D2
:104E200084EE90E0F801978B868B8AEE94E00E94E6
:104E3000122FAC01C80146966AEE74E08EC065E19F
:104E400075E045E050E00E941B2F892B49F0CE0110
:104E50006BE175E046E050E00E941B2F892B79F44E
:104E600087EE90E0F801978B868B82E494E00E94B5
:104E7000122FAC01C801469662E474E06EC0CE0108
:104E800067E275E044E050E00E941B2F892B79F423
:104E900089EE90E0F801978B868B8EE594E00E9476
:104EA000122FAC01C80146966EE574E056C0CE01E3
:104EB0006CE275E044E050E00E941B2F892B79F4EE
:104EC0008BEE90E0F801978B868B85E994E00E9449
:104ED000122FAC01C801469665E974E03EC0CE01D0
:104EE00061E375E044E050E00E941B2F892B79F4C8
:104EF0008DEE90E0F801978B868B81EB94E00E9419
:104F0000122FAC01C801469661EB74E026C0CE01B9
:104F100066E375E044E050E00E941B2F892B79F492
:104F20008FEE90E0F801978B868B8DEC94E00E94D9
:104F3000122FAC01C80146966DEC74E00EC081EFF3
:104F400090E0F801978B868B85E294E00E94122F07
:104F5000AC01C801469665E274E00E94632588238F
:104F600029F0F801178A168A82E001C080E0DF91FB
:104F7000CF911F910F910895CF93DF93EC018E890C
:104F80009F89009721F08337910549F504C083E795
:104F900090E09F8B8E8BCE0146966AEB7AE2AE0153
:104FA0000E94E4248823F1F0FE01E957FF4FC75720
:104FB000DF4F2081318148815981C958D040241B5D
:104FC000350B31832083FE01EB57FF4F80819181A8
:104FD000840F951F9183808312161306C4F21F8AD3
:104FE0001E8A82E0DF91CF910895EF92FF920F9396
:104FF0001F93CF93DF93EC0189819A8121E08E3159
:105000009207A1F0A1E08F319A0718F4892B51F093
:10501000BEC0B1E084329B07F9F08753914009F09C
:10502000B6C053C08EE191E09A838983CE01019688
:1050300060E20E948B23882309F4ABC0CE018F96D7
:1050400062E173E044E050E00E941B2F892B91F451
:1050500084E291E09A8389837E010894E11CF11C2B
:10506000C70160E20E948B23882309F492C08FA5B8
:105070008F3221F080E180936D0489C088A98E0170
:1050800000591F4F803241F4C80167E573E044E1E5
:1050900050E00E94292F0FC0C7010E946D23FE011E
:1050A000E80FF91F16A6BE01615D7F4FC80144E1FC
:1050B00050E00E94612FCC57DF4F81E08883C458B5
:1050C000D04087E391E09A8389837E010894E11CB4
:1050D000F11CC7016AE00E948B23882309F459C0A0
:1050E0008E01015D1F4FC8016DE673E048E050E09E
:1050F0000E941B2F892B29F7C7010E946D23FE01F7
:10510000E80FF91F15A6C8010E94501085E192E032
:105110000E945010F80100E010E002C00F5F1F4F26
:105120008081882371F231968F33C1F7B9C187ED41
:1051300092E00E945D1078010894E11CF11C005D72
:105140001F4FCE01800F911F68E172E046E050E0F2
:105150000E94532F009729F440988FEC92E00E9410
:105160005D108FE290E0E80EF91ECE018E0D9F1DBE
:105170006FE172E046E050E00E94532F009709F083
:10518000A0CF409A87EC92E00E945D109ACF1A82DD
:105190001982CC57DF4F8881C458D040813009F044
:1051A00091C18BA59CA5A1E081309A0709F46DC13E
:1051B000B1E082309B0738F40097A1F08050914015
:1051C00009F06BC12BC0F1E08C309F0709F456C089
:1051D00021E08031920709F458C18550914009F0CF
:1051E0005CC12BC090E7E92EF12CEC0EFD1E8E0168
:1051F0000B571F4FC701B8010E94042B892BC9F41C
:1052000083E693E0B8010E94442BC70163E673E094
:105210000E940B2F80E091E09CA78BA7CE016AEC47
:1052200073E00E94BF26882309F44CC181E091E01D
:105230002AC185E091E09CA78BA7CE0166E773E0C9
:105240000E94BF26882309F43DC1CE0180599F4F9B
:105250006EE270E00E94482F009709F412C16BE1E2
:1052600075E046E050E00E941B2F892B09F009C130
:105270001EA61DA68CE091E09CA78BA78DA59EA5E0
:105280008F3A910509F43DC0803B910518F4892BB4
:1052900051F0F4C0823B910509F43BC0813D91057A
:1052A00009F0ECC0ABC082EF92E00E945D10DCC060
:1052B000DE01AB57BF4FED91FC9111978491853280
:1052C00009F05DC0319684913197813209F057C061
:1052D000C557DF4F3396E993F99323503040398314
:1052E0002883CD58D0403197849132978A3369F41E
:1052F000CF010496BD010E94442B8FEA90E09EA747
:105300008DA7CE010E94BC2712C082EB90E09EA721
:105310008DA78E0105571F4FF801808191810E9452
:10532000CF2BFC01D8016D917C91CE01099588238A
:1053300009F4C8C08BE8E82EF12CEC0EFD1EF70135
:1053400000811181C8016AE070E00E94F72E019689
:10535000FE01E357FF4F081B190B20813181020F1B
:10536000131F11830083D7018D939C93CB57DF4F7D
:105370008993999319830883C758D04075C0E091E9
:105380007004F091710482899389FE01E757FF4F01
:105390008217930718F49183808302C0318320839E
:1053A000CB57DF4F08811981C558D040F80184914F
:1053B000853219F4C801019601C0C80165E270E0A8
:1053C0000E94F72E0097B1F08017910799F0801B8B
:1053D000910BDE01A757BF4F11969C938E93E091DE
:1053E0007004F0917104228933898217930710F0B9
:1053F0002D933C9381ED90E09EA78DA78E899F8988
:10540000009721F087389105A9F404C087E890E05F
:105410009F8B8E8BCB57DF4F688179812496488193
:105420005981C958D040CE0146960E9463258823F1
:1054300009F448C01F8A1E8AFE01EB57FF4FC75769
:10544000DF4F8081918128813981C958D040820FF6
:10545000931F91838083FE01E957FF4F80819181E3
:10546000821B930B91838083C957DF4F2881398139
:10547000C758D040121613060CF41ACF1EA61DA64C
:1054800009C080E191E09CA78BA7CE010E94BC27B8
:105490008823C1F080E180936D041CA61BA612C076
:1054A00088EE92E00E945D10C80187968C0F9D1FC8
:1054B00066E272E048E050E00E94532F009709F046
:1054C00000CE35CEDF91CF911F910F91FF90EF90DD
:1054D0000895EF92FF920F931F93CF93DF93C091A4
:1054E0007004D091710490916D0494FD3CC095FDC1
:1054F0003AC097FD38C02CE1E22EF12CEC0EFD1ED7
:1055000096FF1BC08E01055B1F4FCE014D96B80163
:1055100040E450E00E941224CE01C296B80140E45B
:1055200050E00E941224C95BDF4F19821882C75ACB
:10553000DF4F1882C05AD0400EC0E114F10481F050
:1055400093FF09C08C8D8F5F8C8F843128F080E2AF
:1055500080936D0401C01C8EC7010E94F52703C013
:1055600080E280936D04DF91CF911F910F91FF90A6
:10557000EF9008950F931F93DC01A957BF4F2D9112
:105580003C911197A758B040E0917004F0917104DC
:1055900082899389FD01E757FF4F8217930718F41B
:1055A0009183808302C031832083AB57BF4F6D91BD
:1055B0007C9111978D010C5F1F4FF8014081518143
:1055C00080916E0490916F040E94EE2EF80180810C
:1055D00091811F910F91089530E0A32FB0E0FB015E
:1055E000EA0FFB1F4491442369F0A80FB91F2C91C7
:1055F0002D3041F02A3031F0241711F081E0089568
:105600003F5FEBCF80E00895CF92DF92EF92FF9261
:105610000F931F93CF93DF936C017B01C3E9D2E01B
:1056200000E010E023C06A817B81C6010E94EC2A61
:105630008823B1F48C819D81F701918380838E81D1
:105640009F8193838283F801EE0FFF1FE35BFB4F83
:105650008081918101969183808321E030E00AC0AE
:105660000F5F1F4F888199819C01E9012097D9F62E
:1056700020E030E0C901DF91CF911F910F91FF90A1
:10568000EF90DF90CF9008950F931F93CF93DF9308
:105690008C01EB01A3E9B2E040E050E032C0129689
:1056A0006D917C91139720E0822F90E0FB01E80F31
:1056B000F91F3491332361F0800F911FFC01849115
:1056C0008D3031F08A3021F0831729F52F5FECCF30
:1056D00014968D919C9115979983888316968D9138
:1056E0009C9117979B838A83FA01EE0FFF1FE35B60
:1056F000FB4F8081918101969183808321E030E08E
:1057000004C0109761F620E030E0C901DF91CF912D
:105710001F910F9108954F5F5F4F8C9111969C914F
:105720009C01D901EECFEDE4F4E01192119284E0F6
:10573000E336F807D1F70895EF92FF920F931F9386
:10574000CF93DF937C0103E912E0C0E0D0E015C005
:10575000F80162817381C7010E94EC2A882339F421
:10576000CC0FDD1FC35BDB4F288139810BC0219635
:10577000F801808191819C0189010115110541F792
:1057800020E030E0C901DF91CF911F910F91FF9090
:10579000EF900895FC01178A168A82E00895EF922F
:1057A000FF920F931F93CF93DF937C0103E013E0ED
:1057B00015C088819981FC01DF010D900020E9F777
:1057C0001197AE1BBF0BB701AD010E941B2F892B98
:1057D00019F42A813B8109C00E5F1F4FF801C08177
:1057E000D181209731F72AEC3BE2C901DF91CF91BB
:1057F0001F910F91FF90EF900895CF93DF93EC01ED
:105800008E899F89009721F0843C910529F50BC072
:10581000C157DF4F19821882CF58D04015C084EC91
:1058200090E09F8B8E8BCE01469669E77CE2AE01BD
:105830000E94E424882399F0FE01E157FF4F808104
:105840009181019691838083C157DF4F888199812F
:10585000CF58D040469718F31F8A1E8A82E0DF9106
:10586000CF910895CF93DF93EC018E899F890097A4
:1058700021F08C3A9105B9F51CC0C157DF4F198250
:105880001882CF58D04026C08DEA90E0289FF001C2
:10589000299FF00D389FF00D1124EE58FB4F818D9C
:1058A00090E08F709070892B69F08CEA90E09F8B6C
:1058B0008E8BCE01469665EB7CE2AE010E94E4241D
:1058C0008823A1F0FE01E157FF4F8081918101966D
:1058D00091838083C157DF4F28813981CF58D040D1
:1058E0002230310588F21F8A1E8A82E0DF91CF9133
:1058F00008952DB73EB7285030400FB6F8943EBFFC
:105900000FBE2DBFADB7BEB7119620916E0430917A
:105910006F04EDB7FEB73283218326EA35E0139694
:105920003C932E9312972DE932E015963C932E93DB
:105930001497FC01E157FF4F0190F081E02DEE0F2D
:10594000FF1FEC52FA4F8081918117969C938E93A2
:1059500016970E94AE2F2DB73EB7285F3F4F0FB668
:10596000F8943EBF0FBE2DBF08954F925F926F9285
:105970007F928F929F92AF92BF92CF92DF92EF92DF
:10598000FF920F931F93CF93DF93FC01E157FF4FDB
:10599000208131818DEA90E0289F8001299F100DA0
:1059A000389F100D11240E581B4FC0906E04D090DC
:1059B0006F04D80114968D919C9115970E94EB1855
:1059C0005C01F801808191810E94EB18692ED80159
:1059D0008D919C910E94EB187C01F801828193814A
:1059E0000E94EB18792ED80112968D919C911397F5
:1059F0000E94EB18EC01F801868197810E94EB1858
:105A00002C01D80159968C915997282F30E0F90133
:105A1000EF70F070EE0FFF1FE55FFC4F608171814A
:105A20005B969C905B975A968C905A9750968D9166
:105A30009C915197892B19F440E250E002C04AE250
:105A400050E024FD03C020E230E002C021E230E05B
:105A5000EDB7FEB77C970FB6F894FEBF0FBEEDBF53
:105A60003196ADB7BEB71296DC92CE92119786EA08
:105A700095E09383828382EA92E095838483B78260
:105A8000A68260861186BFEFEB22FF24F386E286B2
:105A900074861586D070D787C687518A408A738BE3
:105AA000628B948A158A868A178A518F408F338F2A
:105AB000228F0E94AE2FEDB7FEB77C960FB6F894FA
:105AC000FEBF0FBEEDBFDF91CF911F910F91FF90F1
:105AD000EF90DF90CF90BF90AF909F908F907F908E
