:100000000C94F2270C940F280C940F280C940F28B2
:100010000C940F280C940F280C940F280C940F2884
:100020000C940F280C940F280C940F280C940F2874
:100030000C940F280C940F280C940F280C940F2864
:100040000C94832B0C940F280C940F280C940F28DD
:100050000C940F280C940F280C940F280C940F2844
:100060000C940F280C940F280C940F280C940F2834
:100070000C940F280C940F280C940F286E616E00BE
:10008000696E660061757468207265717569726564
:10009000640A0061757468207265717569726564BF
:1000A0000A006661696C65640A006661696C656472
:1000B0000A004F6B0A004F6B0A0061757468006597
:1000C0007869740071756974002F6372756D62369A
:1000D00034346E65742E6A706700FFD8FFE000103C
:1000E0004A46494600010100000100010000FFDB13
:1000F0000043000302020302020303030304030399
:1001000004050805050404050A070706080C0A0C7F
:100110000C0B0A0B0B0D0E12100D0E110E0B0B100B
:1001200016101113141515150C0F17181614181294
:10013000141514FFDB00430103040405040509053D
:100140000509140D0B0D14141414141414141414A0
:10015000141414141414141414141414141414145F
:10016000141414141414141414141414141414144F
:100170001414141414141414FFC0001108004700C0
:100180006403012200021101031101FFC4001D00DC
:100190000002030101010101000000000000000055
:1001A00000080607090405030102FFC40039100016
:1001B0000201030302050302030509000000000118
:1001C00002030405110006120721081322315141D0
:1001D000617114321523A133428182910924346262
:1001E000637273B1C1FFC400190100020301000072
:1001F00000000000000000000000000301020405F0
:10020000FFC40026110002020104020104030000E1
:1002100000000000000102001103041221312241FC
:100220005171A1C1F0131481FFDA000C0301000227
:10023000110311003F00D53D1A5CFC50788ADCBDEB
:1002400017BF5AEDD68B7504B4D5F4A66155568EFA
:10025000EC1C390CA00651D8703DF3EFA56AFF00E5
:10026000E2F3AA17D2CAFB89EDF136709430C70EBB
:100270003F0C1797F5D45CA1602697BBAC6A5998E0
:100280002A819249C01A8A5EFAB7B2B6E72171DDB7
:10029000569A675F78CD5A338FF2824FF4D26F62ED
:1002A000F0D7D55EACD8E8AF376DE10C9455D025CA
:1002B0004C06B6E13D43B2BAF25ED8207B8FAF6FF9
:1002C0008D4DB68F80FA04A489F70EE8AB9AAB1F68
:1002D000CD86DB1AC6AA7E03B8627F3C47E34A3963
:1002E00044B72633DB2B7FEDFEA25BA6AFDBB7283E
:1002F000EE7490CA609244565E2E0038C3007D882A
:10030000EFEDA90E97DF0CDB65BA3B06F1DBF7AB2F
:100310009C51538BC33D0355CA88CF188D413F4C28
:10032000F60ADF60C06BDBEABF8A1DB5D3AB65247C
:10033000D40F05F6B6A2B1A8FF004E2730888A96E2
:1003400056766E07D21948EC3BFB8D5D5C103990F8
:10035000481DCB9F46952BE7897DFCD533C74B6C59
:10036000B2D144958D4438739A50FC39A331621749
:100370008B023D813F4C03AF5E9BC51D7DFE9A46BF
:10038000A6868EDD1B2ABB4B23287A63C5792932CA
:10039000BAA31E5E67B1F6C7D7519322E216F2BF29
:1003A000C8BEA32DAF94D53153A3BCB2A46B1AF32E
:1003B00076660028F93F6EC749FEE3F11177A29CEB
:1003C0009BF5D604A59A05496DF4B51E54B223F9E0
:1003D0008010A80B21F704E32085C8D43A3EA94F2A
:1003E000D44AE6B7C15AC936390AB97CC49E4521F8
:1003F000C842CE7B80338C63B9F7EFD907502AC04F
:10040000E22CE623A531F48E459503A30746190C8B
:10041000A720EBFAD40FA497C15F625A52D5522A93
:10042000A89A09AB028796360093E9F827EDD9869A
:10043000A79AD08DB96E395B70B868D1A3579688EA
:10044000F7FB41AB0D3EF5D9F44E70B5F6CAA96085
:10045000FA92F4F247CD47E52A0B1FFC7A55692A38
:10046000682112BD5C324E78FF002D564E2397DF77
:10047000B671F8D3D7E3ABA4974EA1D8B62DDEC79B
:100480006EADB95C6C97BFE7434109964347342F83
:100490001CFE91DFDB88CFDF59E5B92BA92C324C4C
:1004A000973AB8E95A9E468A405B20303820E3D814
:1004B000E47D75047110FDCD0DF083D5EB34BD17CF
:1004C0008E8AF779A2B74965A87A5E55D5091031A9
:1004D00037AD082C476F532FF97535BEF8AAE9865A
:1004E000DD92449373435AE3DA3A28DE6C9FB328D3
:1004F000E3FD7590B74EBB6D9B66628AAA5AB71D25
:10050000B8C2B907F073FF00CD46AB3C405430266B
:100510008AC73C51E0FAEA988503E72389D28E0224
:100520004DCB07204D01EB2F887D9DBE377C55D6E6
:100530008A5BBC34D34421AA95FCA8B938C8570BB0
:10054000872D818CFA9090A0646AB3EAF598DB76E7
:1005500035156C1542E26A98D52D48117A2504B7F5
:1005600095E6924E5B327A4B23371EC1CE06927BC4
:10057000E7582F9FAA31C75029F1EA5E03DC7CFDC2
:100580007E9FE1A7936C4336E4F0F36A8A4A94AC09
:10059000BA456DA6B9532ABA49292E8A648C2B7A9A
:1005A000CB311DD0725C49FD991A465C6315308AC7
:1005B0006E583192AB35655EE5D9F67B95AE6960D4
:1005C00086EF4F1C49515CAACAF554EA1D1830FF4A
:1005D00000B641C8904610100039F6368DFE9E4692
:1005E000B8436EF2E22163BA471AA404C7139E35DA
:1005F0000849E4EBC5D59BF6BE321B863DD173E2BC
:100600007AF9B32C15FB576EAD34B678AB5E586BE8
:10061000A672AEC012000404380091DB1907B81EA0
:10062000C26FE14BA97B9774F566D924FF00EF36C2
:10063000E99268AAA1A4811800CBD8E5C316F505F4
:10064000EC093F51DC69F9E8E3B6E242820DC65796
:10065000AE3B3AE32494F55151C6F7A8E512BB35F9
:10066000742AA237EFC4BB98C1C37B2AAFC855C94F
:10067000EF13D9B63DD16BDDD66AAA9A4A08E80FC6
:100680003F30C72B48CABC4B06F522FB388FDB2313
:10069000BEA5BBB2B05928112E2E2EF4D1CC92C3D8
:1006A0004D5312F27A858BCB5978E3B3150A4FA9D3
:1006B000BD89F73A885BAEF7C8256AF8EE0F3CB201
:1006C0008E6D1CC9CE37FB01DB88C9FA63FF005968
:1006D000E521764DABD41EDEC24687A15BDA3B3501
:1006E000D5A2A96A4A414F39899A4918CB2C4C485E
:1006F000C28F6C0383DBB7A47B7D5AF072323DB5A9
:100700009D7D26EA1CF06EC2F70ADBE4533AB2493B
:1007100089126448DF1C638814C20ECA40C1C852E3
:10072000739EFA79FA5DBAA9B766D4827A63371AEA
:100730007634F8A9004B85FDA5B1F5E38EFF0039AD
:10074000D6CD331168DDC31781D9725DA3468D6F95
:100750009AE725D64961B6D4C904427992366488AD
:10076000B710EC07619C1C64FD7075929D42F0818E
:10077000D56EB5EE4BA565A368534343577292AD52
:100780003F8BD4A470C61998E46486703963217BCA
:100790008EFAD7397F61D5575D4F73B2D5D73B54A9
:1007A00053252BBB79681247F467B0203A8538F897
:1007B000C8FB7D35CCD7AEA8A2FF00514137ECD79E
:1007C000EFDFE905281BCE623757BC34EFFE92DE1F
:1007D0006ED6BBB2524D2DB72D514D65AFA5E51A62
:1007E00071E41CC4B279A10A90D9641D8E4EAA9BF3
:1007F00075B5DE1491A9E2862219BCF96A0CAE71B6
:10080000EFE9538EDF8FA1D6B9F887D93B5EF3BAF3
:100810002DDBBABF6AD1DC6B24AC8ADD573C149265
:100820001AAF22646847011CB18662CC8B97E5D968
:10083000FEC0692CA0E91EDFB06E7BE5B2EB63ADB4
:1008400026CB54B52D154D6C712D1C0D3AF3E714C4
:10085000DDE4668D800B18639392AC3B6B4A6A3281
:1008600026351957CE85D7CFB99CB02FB565127AEA
:100870007974A9B5545DE6B0EE06B5D2A0696E15DF
:10088000140F0D32A92117D7839C92A077F723E785
:100890004FFF0049ACD557AE8E6CDA9ABBED35B23E
:1008A000956921B74D155577E951A111A0284F1F22
:1008B000DBC56139CFA8B31E20FA9FC8ADABBB50D2
:1008C000EE3B6C0374CBB86C559098D61F2116196B
:1008D00088426288F2C7981D5410E15B3D88527BC4
:1008E0002C0635B49B3452DD16926AD88085A69DBD
:1008F000E12731B607A98B211E9FA161F9D6239369
:100900002EA14834083F58D231EEA3C8FCC905A334
:10091000C37ECAB4EECA38A92D9433D4DCAB27B356
:10092000C73DC8994BB5416862916368D465566408
:1009300094712C07153CF9615BDDD8BB9E97A75DD0
:100940002BBDCD1BC28F61B98A3B7C31C0ACDE7C34
:1009500081E7F31588CAF78C7718380304630D0A0A
:10096000EB5EFF00A7D95B8B646E3A5AA64A687C9F
:10097000AAAA6A7492478BCD88A10416F7C0854154
:100980002A5B0703B0C014455758EAAE54372B3DD5
:10099000A6D970BA9FD70A98228603FCCF75E7F3D1
:1009A0008E0CC076F7D49C2CE393C71F98232AADF6
:1009B0005475FAC36BDBDB9778D551C370BED5DEB7
:1009C0002DA569D45BCAF14CC708E5231279BFA1F4
:1009D0004F7423D64E4939D56F71B36EAD92B6A917
:1009E000E2717BB6D771FD3C94A087F5314E2E9D08
:1009F000C762A41218118FDA31A8BF4FEFDBB4DF42
:100A0000A83735CA89E8E6BD99296A16E937E95752
:100A1000CD880224959B884CA9271FF22000938D36
:100A20005E5B621B852B6E182E54B4344F6DAA7119
:100A30002A5138901CB76604E0E1999D4640390C74
:100A400008FAE93B8E25F0E62F23AED2CBDCF7F691
:100A50005581526B4DB52BE0A192AA6E4F5F51C5E7
:100A60000F9F8CB31620803030010C3B2839D343C4
:100A7000D3292DBB2B70416EA7DC12DDA1B9A8458F
:100A8000F3E065669147EFF33015B3903E72DA57A5
:100A90009ADB502B67A7AB6682B69E8CD7AA44BD63
:100AA000847C03794738C9CF63D8F71F5D5B949B7B
:100AB000FB744D55640D4EB6BDB8D4E85E968A8180
:100AC0005529DCB10A0171C97B713907B1CF7D4667
:100AD0003DCA77B77138DCB020F71ADD1AE1B1DC16
:100AE0000DD6CD435A78E6A214972872A7201C820F
:100AF0003DC7C1F8D1AEE0362E6D9DA464635E356E
:100B0000E2C30DC2360626627E0EBDAD1AB0352A8E
:100B100045CA3B7974F165A7A880D1CCD0CCB83C4C
:100B2000F054104329FF00065539FB6B383AD7B40F
:100B30008EDDEB05D2868A1692AAEAC2B618200488
:100B4000C8F952DFB4039EEA4FE06B60AED4E2A274
:100B5000958633DB59F3D51EADDBACFD4B31D4EDBF
:100B6000D9AAEB2DECF46AE020C48B9380E49E2B91
:100B7000FDA1CF0272DF0140CF9010C1916EF88BC2
:100B800022B895F74D629370F4B6C90D745574751B
:100B900036AB84B022CB4E49E014360A6090079CF5
:100BA000AA548190C47CEBB6FF00D0FDB515E6F7E2
:100BB000555B46D7DAC8522A832C92BBC5286629D2
:100BC000C52362A303860715C630704633D951D6B4
:100BD0000DDD2DA1D2C9B1E9EDB47E6A440D524BB1
:100BE00032B8E2139061E5212232700A9F6FAEB8ED
:100BF00026A6EAB5E6AAF94D0D54F433D26237A71A
:100C0000B64290CCAE58A920C2A0BE081FDE235821
:100C1000CE8B2E462CE6AFD026A24D7CFDA48EF5C1
:100C2000D3BA7BADB22B7D5586DC96A4B609A292D1
:100C3000A69966A786A0C580092117D2E58F7EC533
:100C40007031927516826B0ED54DA0CF7BB7C2F670
:100C5000C9A47ACA4B6CA8C92B86E51A914C19888D
:100C60000320A9F7098EC33A925AFC23EFCDDB7516
:100C70004A9ADA6AEAC2685658AB6B4FBCCC88DC39
:100C80001CC84B02A4B293F63F3AB2F697805B8839
:100C900016592E953474EB4F1BFEAA9D9DA5E52198
:100CA00069006523DB08C9DBE41F9D357418939246
:100CB0007F7FD9344FCCA069B7F6D0B0580DB69A23
:100CC00086E37845B809B934602F26014465E666A5
:100CD00062B9E39CC5FDDF6F71AEFA8EA96E3BBBB6
:100CE000DD67B3ED0A50F33209A4AB32D4C5552900
:100CF000CB28703CB41FB49031EE093CB074E2EDE7
:100D00000F053B5F6F53D08ACAF9EB2A28EADAB1A4
:100D100026862589998F0F4B1EFC8031E47C723F1B
:100D20003AB3AC7D0AD95618A68E0B2C52A4D20920
:100D30006459D8B86719C360F6CFA8FF00AEB50CE8
:100D40003897A1246323800088B5058FAC7BA6E18A
:100D5000530C978FE0F045188E5A7A511533AB64D7
:100D60002F66853CCEDF67CFBFB76D4EF67F826AB8
:100D7000DDCF596CAADD7B8EBAE7340985A89A19B4
:100D80002A73C972DEB9989539CFB7D49F9D3C14A8
:100D9000967A1A0FF86A38203F291807FD75D9A6E8
:100DA000501D08D09F2672DAADD15A2D747414E309
:100DB0008C14B0A4118F85550A3FA0D1AEAD1A2373
:100DC00061A3468D109F8CA19483EC7509ACE92535
:100DD0008AAEF6D745A78A96A9DC4924B4F0223C0E
:100DE000AC083976C65BB81EFF001A346890403DE7
:100DF000CFAD0F48B6AD14650DAA3A952DCC8A92A9
:100E00006405BE707B6A4F496AA2A018A6A4860139
:100E1000FF004E303468D10000EA75E8D1A3449851
:100E200068D1A34421A3468D10868D1A34427FFFDA
:100E3000D9002F73746174732E7368746D6C002500
:100E4000213A202F6865616465722E68746D6C0AA2
:100E50003C68313E495020547261666669633C2F9C
:100E600068313E0A3C703E0A20203C7461626C6529
:100E70003E0A202020203C74723E0A2020202020A0
:100E8000203C74643E0A20202020202020203C703A
:100E900072653E4950202020202020202020205014
:100EA00061636B6574732072656365697665640A56
:100EB0002020202020202020202020205061636B33
:100EC0006574732073656E740A2020202020202012
:100ED00020202020205061636B6574732064726F42
:100EE000707065640A2020202020202020202020EF
:100EF000200A4950206572726F7273202020495079
:100F00002076657273696F6E2F6865616465722003
:100F10006C656E6774680A20202020202020202025
:100F20002020204950206C656E6774682C20686909
:100F3000676820627974650A202020202020202004
:100F4000202020204950206C656E6774682C206C2E
:100F50006F7720627974650A2020202020202020CD
:100F600020202020495020667261676D656E747381
:100F70000A202020202020202020202020486561D9
:100F800064657220636865636B73756D0A20202049
:100F900020202020202020202057726F6E67207094
:100FA000726F746F636F6C0A202020202020202035
:100FB0002020202057726F6E6720686F7374206145
:100FC0006464726573730A0A49434D5020202020DF
:100FD000202020205061636B657473207265636507
:100FE000697665640A2020202020202020202020EF
:100FF000205061636B6574732073656E740A2020E2
:10100000202020202020202020205061636B657448
:10101000732064726F707065640A20202020202085
:1010200020202020202054797065206572726F7214
:10103000730A0A54435020202020202020202050D2
:1010400061636B6574732072656365697665640AB4
:101050002020202020202020202020205061636B91
:101060006574732073656E740A2020202020202070
:1010700020202020205061636B6574732064726FA0
:10108000707065640A0A544350206572726F7273FF
:101090002020436865636B73756D206572726F7293
:1010A000730A2020202020202020202020204143BF
:1010B0004B20776974682077726F6E672073657153
:1010C00075656E6365206E756D6265720A202020FD
:1010D0002020202020202020205265736574730A70
:1010E00020202020202020202020202052657472E3
:1010F000616E736D697373696F6E730A20202020AF
:1011000020202020202020204E6F20636F6E6E65EF
:101110006374696F6E206176616C6961626C650AE7
:10112000202020202020202020202020436F6E6EB1
:101130002E20617474656D70747320746F20636CFD
:101140006F73656420706F7274730A0A554450207F
:1011500020202020202020205061636B65747320A4
:1011600072656365697665640A202020202020204E
:1011700020202020205061636B6574732073656E9E
:10118000740A2020202020202020202020205061B0
:10119000636B6574732064726F707065640A2020DD
:1011A00020202020202020202020436865636B73AE
:1011B000756D206572726F72730A202020202020C6
:1011C00020202020202057726F6E6720636F6E6E84
:1011D000656374696F6E3C2F7072653E0A20202033
:1011E0002020203C2F74643E0A2020202020203C18
:1011F00074643E0A20202020202020203C7072654C
:101200003E2521206E65742D7374617473203C2F0C
:101210007072653E0A2020202020203C2F74643EFE
:101220000A202020203C2F74723E0A20203C2F747C
:1012300061626C653E0A3C2F703E0A0A2020202025
:101240003C2F6469763E0A20203C2F626F64793E11
:101250000A3C2F68746D6C3E002F65636F6E666983
:10126000672E7368746D6C0025213A202F686561C4
:101270006465722E68746D6C0A0A3C68313E654D77
:1012800061696C204170706C69636174696F6E3C58
:101290002F68313E0A0A54686520654D61696C20EB
:1012A0006170706C69636174696F6E206D6F6E69D7
:1012B000746F7273207468652070696E73206F6636
:1012C00020506F7274204420616E642073656E64D8
:1012D0007320616E20654D61696C207768656E20B2
:1012E000610A70696E206368616E6765732066725B
:1012F0006F6D204C6F7720746F20486967682E20CF
:101300004F6E6C7920534D54502073657276657220
:101310007320776974686F75742061757468656E81
:101320007469636174696F6E206F72200A776974E3
:10133000682041555448204C4F47494E20617574F0
:1013400068656E7469636174696F6E20617265208F
:10135000737570706F727465642E0A0A3C703E0A71
:101360003C7461626C653E0A20203C74723E0A2027
:101370002020203C74643E49502D416464726573A2
:1013800073206F6620534D545020736572766572DA
:101390003A3C2F74643E0A202020203C74643E0AAC
:1013A0002020202020203C666F726D206D657468BF
:1013B0006F643D226765742220616374696F6E3DBE
:1013C0002265636F6E6669672E7368746D6C223E6A
:1013D0000A20202020202020203C696E7075742077
:1013E000747970653D227465787422206E616D6534
:1013F0003D22736D74704970222076616C75653D75
:1014000022252120736D74704970222073697A65DA
:101410003D22313622206D61786C656E6774683DBF
:10142000223136223E0A20202020202020203C6924
:101430006E70757420747970653D227375626D6984
:1014400074222076616C75653D224F6B223E0A2026
:1014500020202020203C2F666F726D3E0A20202025
:10146000203C2F74643E0A20203C2F74723E0A20D8
:10147000203C74723E0A202020203C74643E534D70
:10148000545020757365726E616D653A3C2F7464BB
:101490003E0A202020203C74643E0A202020202088
:1014A000203C666F726D206D6574686F643D2267C5
:1014B00065742220616374696F6E3D2265636F6E8F
:1014C0006669672E7368746D6C223E0A20202020A6
:1014D000202020203C696E70757420747970653D01
:1014E000227465787422206E616D653D22736D747F
:1014F0007055736572222076616C75653D222521D9
:1015000020736D747055736572222073697A653D1E
:1015100022333022206D61786C656E6774683D22DD
:101520003330223E0A20202020202020203C696EDB
:1015300070757420747970653D227375626D69747D
:10154000222076616C75653D224F6B223E0A202079
:10155000202020203C2F666F726D3E0A2020202024
:101560003C2F74643E0A20203C2F74723E0A2020D7
:101570003C74723E0A202020203C74643E534D543B
:10158000502070617373776F72643A3C2F74643EBD
:101590000A202020203C74643E0A202020202020A5
:1015A0003C666F726D206D6574686F643D2267657F
:1015B000742220616374696F6E3D2265636F6E668D
:1015C00069672E7368746D6C223E0A2020202020EB
:1015D0002020203C696E70757420747970653D22FE
:1015E0007465787422206E616D653D22736D747030
:1015F0005077222076616C75653D22252120736D20
:1016000074705077222073697A653D22333022202E
:101610006D61786C656E6774683D223330223E0AD6
:1016200020202020202020203C696E7075742074BA
:101630007970653D227375626D6974222076616CE4
:1016400075653D224F6B223E0A2020202020203C41
:101650002F666F726D3E0A202020203C2F74643E5E
:101660000A20203C2F74723E0A20203C74723E0AED
:10167000202020203C74643E46726F6D3A3C2F74EB
:10168000643E0A202020203C74643E0A2020202052
:1016900020203C666F726D206D6574686F643D221A
:1016A0006765742220616374696F6E3D2265636FA4
:1016B0006E6669672E7368746D6C223E0A20202066
:1016C00020202020203C696E70757420747970652C
:1016D0003D227465787422206E616D653D226672CC
:1016E0006F6D222076616C75653D22252120667222
:1016F0006F6D222073697A653D22333022206D613F
:10170000786C656E6774683D223830223E0A20206E
:101710002020202020203C696E7075742074797020
:10172000653D227375626D6974222076616C756502
:101730003D224F6B223E0A2020202020203C2F6695
:101740006F726D3E0A202020203C2F74643E0A20D8
:10175000203C2F74723E0A20203C74723E0A2020E6
:1017600020203C74643E546F3A3C2F74643E0A203F
:101770002020203C74643E0A2020202020203C664B
:101780006F726D206D6574686F643D2267657422A9
:1017900020616374696F6E3D2265636F6E66696771
:1017A0002E7368746D6C223E0A2020202020202099
:1017B000203C696E70757420747970653D22746583
:1017C000787422206E616D653D22746F22207661EF
:1017D0006C75653D22252120746F222073697A651E
:1017E0003D22333022206D61786C656E6774683DF0
:1017F000223830223E0A20202020202020203C6950
:101800006E70757420747970653D227375626D69B0
:1018100074222076616C75653D224F6B223E0A2052
:1018200020202020203C2F666F726D3E0A20202051
:10183000203C2F74643E0A20203C2F74723E0A3CE8
:101840002F7461626C653E0A3C703E0A4D6573738D
:10185000616765732073656E7420617320737562B0
:101860006A6563743A0A3C703E0A3C666F726D208A
:101870006D6574686F643D226765742220616374CE
:10188000696F6E3D2265636F6E6669672E7368745B
:101890006D6C223E0A20205044303A203C696E7024
:1018A000757420747970653D227465787422206E99
:1018B000616D653D227465787430222076616C75A7
:1018C000653D222521207465787430222073697A61
:1018D000653D22363022206D61786C656E677468D4
:1018E0003D223830223E3C696E70757420747970E8
:1018F000653D227375626D6974222076616C756531
:101900003D224F6B223E0A3C2F666F726D3E0A3CB1
:10191000666F726D206D6574686F643D22676574D3
:101920002220616374696F6E3D2265636F6E666924
:10193000672E7368746D6C223E0A20205044313A41
:10194000203C696E70757420747970653D227465F1
:10195000787422206E616D653D2274657874312241
:101960002076616C75653D2225212074657874317F
:10197000222073697A653D22363022206D61786CB1
:10198000656E6774683D223830223E3C696E707522
:101990007420747970653D227375626D69742220BC
:1019A00076616C75653D224F6B223E0A3C2F666F57
:1019B000726D3E0A3C666F726D206D6574686F646F
:1019C0003D226765742220616374696F6E3D2265F4
:1019D000636F6E6669672E7368746D6C223E0A20B1
:1019E000205044323A203C696E70757420747970CE
:1019F000653D227465787422206E616D653D2274A8
:101A000065787432222076616C75653D222521202F
:101A10007465787432222073697A653D22363022EB
:101A2000206D61786C656E6774683D223830223EA7
:101A30003C696E70757420747970653D22737562AF
:101A40006D6974222076616C75653D224F6B223E74
:101A50000A3C2F666F726D3E0A3C666F726D206D98
:101A60006574686F643D22676574222061637469E0
:101A70006F6E3D2265636F6E6669672E7368746D65
:101A80006C223E0A20205044333A203C696E707527
:101A90007420747970653D227465787422206E61BB
:101AA0006D653D227465787433222076616C7565AE
:101AB0003D222521207465787433222073697A656C
:101AC0003D22363022206D61786C656E6774683D0A
:101AD000223830223E3C696E7075742074797065CE
:101AE0003D227375626D6974222076616C75653D67
:101AF000224F6B223E0A3C2F666F726D3E0A3C6697
:101B00006F726D206D6574686F643D226765742225
:101B100020616374696F6E3D2265636F6E666967ED
:101B20002E7368746D6C223E0A20205044343A2093
:101B30003C696E70757420747970653D22746578A7
:101B40007422206E616D653D2274657874342220A4
:101B500076616C75653D2225212074657874342288
:101B60002073697A653D22363022206D61786C657C
:101B70006E6774683D223830223E3C696E70757421
:101B800020747970653D227375626D6974222076C8
:101B9000616C75653D224F6B223E0A3C2F666F7269
:101BA0006D3E0A3C666F726D206D6574686F643DB2
:101BB000226765742220616374696F6E3D226563DC
:101BC0006F6E6669672E7368746D6C223E0A202002
:101BD0005044353A203C696E707574207479706594
:101BE0003D227465787422206E616D653D227465B6
:101BF000787435222076616C75653D22252120742C
:101C000065787435222073697A653D22363022204A
:101C10006D61786C656E6774683D223830223E3C99
:101C2000696E70757420747970653D227375626D8C
:101C30006974222076616C75653D224F6B223E0AE5
:101C40003C2F666F726D3E0A3C666F726D206D654B
:101C500074686F643D226765742220616374696FE4
:101C60006E3D2265636F6E6669672E7368746D6C76
:101C7000223E0A20205044363A203C696E7075742A
:101C800020747970653D227465787422206E616DD0
:101C9000653D227465787436222076616C75653DE9
:101CA000222521207465787436222073697A653D77
:101CB00022363022206D61786C656E6774683D2233
:101CC0003830223E3C696E70757420747970653DC1
:101CD000227375626D6974222076616C75653D2290
:101CE0004F6B223E0A3C2F666F726D3E0A3C666F58
:101CF000726D206D6574686F643D22676574222083
:101D0000616374696F6E3D2265636F6E6669672EED
:101D10007368746D6C223E0A20205044373A203C90
:101D2000696E70757420747970653D22746578747D
:101D300022206E616D653D227465787437222076AD
:101D4000616C75653D2225212074657874372220E9
:101D500073697A653D22363022206D61786C656E3C
:101D60006774683D223830223E3C696E707574207D
:101D7000747970653D227375626D69742220766195
:101D80006C75653D224F6B223E0A3C2F666F726D6B
:101D90003E0A3C703E0A4E6F74653A204465706599
:101DA0006E64696E67206F6E20746865206861726A
:101DB0006477617265206C61796F75742C20736F24
:101DC0006D652050494E2773206F6620706F7274C6
:101DD000204420636F756C642062652072657365B2
:101DE0007276656420666F72207370656369616CDA
:101DF0002066756E6374696F6E73200A0A20202056
:101E0000203C2F6469763E0A20203C2F626F647963
:101E10003E0A3C2F68746D6C3E002F696F2E73680C
:101E2000746D6C0025213A202F6865616465722EFF
:101E300068746D6C0A0A3C7363726970743E0A0AB6
:101E400066756E6374696F6E20616A61785F726532
:101E500071756573742875726C29207B0A20207453
:101E60007279207B0A2020202076617220726571B1
:101E700075657374203D2077696E646F772E584DB9
:101E80004C4874747052657175657374203F206E90
:101E9000657720584D4C4874747052657175657340
:101EA000742829203A206E6577204163746976652D
:101EB000584F626A65637428224D53584D4C322E38
:101EC000584D4C485454502E332E3022293B0A2072
:101ED000202020726571756573742E6F70656E2891
:101EE00022474554222C2075726C2C2066616C733D
:101EF00065293B0A20202020726571756573742E58
:101F000073656E64286E756C6C293B0A2020202056
:101F100072657475726E20726571756573742E7258
:101F20006573706F6E7365546578743B0A20207D0D
:101F30000A2020636174636820286529207B0A20B9
:101F4000202020616C6572742822414A4158207219
:101F5000657175657374206661696C65643A5C6E61
:101F6000222B65293B0A2020202072657475726E31
:101F70002022223B0A20207D0A7D0A0A66756E63B4
:101F800074696F6E20657865637574652829207B98
:101F90000A202076617220696E7075746669656CBE
:101FA000643D646F63756D656E742E676574456C12
:101FB000656D656E74427949642822696E70757426
:101FC0006669656C6422293B0A2020766172206F65
:101FD00075747075746669656C643D646F63756D66
:101FE000656E742E676574456C656D656E744279B7
:101FF000496428226F75747075746669656C642213
:10200000293B0A202076617220726573756C743DDD
:10201000616A61785F726571756573742822696F92
:102020003F222B696E7075746669656C642E7661EB
:102030006C7565293B0A20206F757470757466692C
:10204000656C642E76616C75653D726573756C7434
:102050003B0A7D0A0A3C2F7363726970743E0A0A58
:102060003C68313E492F4F205374617475733C2F87
:1020700068313E0A3C703E0A2020506F7274204145
:1020800020697320252120706F72747374617475D8
:10209000733F410A20203C62723E0A2020506F723A
:1020A00074204220697320252120706F727473742C
:1020B000617475733F420A20203C62723E0A202000
:1020C000506F7274204320697320252120706F7235
:1020D000747374617475733F430A20203C62723ECE
:1020E0000A2020506F72742044206973202521201B
:1020F000706F72747374617475733F440A20203C6E
:1021000062723E0A2020506F72742045206973204D
:10211000252120706F72747374617475733F450A62
:1021200020203C62723E0A2020506F7274204620AC
:10213000697320252120706F7274737461747573D4
:102140003F460A20203C62723E0A2020506F727483
:10215000204720697320252120706F727473746189
:102160007475733F470A20203C62723E0A2020505B
:102170006F7274204820697320252120706F72745B
:102180007374617475733F480A3C2F703E0A3C704B
:102190003E0A20204144432030206973202521201D
:1021A0006164637374617475733F300A20203C620C
:1021B000723E0A20204144432031206973202521AA
:1021C000206164637374617475733F310A20203C2D
:1021D00062723E0A20204144432032206973202548
:1021E00021206164637374617475733F320A202027
:1021F0003C62723E0A202041444320332069732010
:102200002521206164637374617475733F330A2000
:10221000203C62723E0A20204144432034206973EE
:10222000202521206164637374617475733F340ADF
:1022300020203C62723E0A20204144432035206920
:1022400073202521206164637374617475733F3555
:102250000A20203C62723E0A20204144432036205E
:102260006973202521206164637374617475733F01
:10227000360A20203C62723E0A2020414443203727
:102280002069732025212061646373746174757300
:102290003F370A3C2F703E0A3C703E0A20205468AB
:1022A0006520666F6C6C6F77696E6720666F726D04
:1022B00020657865637574657320492F4F20636FBF
:1022C0006D6D616E647320766961204A6176615339
:1022D00063726970743A0A20203C666F726D2061E7
:1022E0006374696F6E3D226A6176617363726970AF
:1022F000743A657865637574652829223E0A202042
:1023000020203C7461626C653E0A20202020202041
:102310003C74723E0A20202020202020203C74643F
:102320003E436F6D6D616E643A3C2F74643E0A20CB
:10233000202020202020203C74643E3C696E707573
:10234000742069643D22696E7075746669656C6499
:102350002220747970653D22746578742220736937
:102360007A653D223230223E3C696E70757420746D
:102370007970653D227375626D6974222076616C97
:1023800075653D224F6B223E3C2F74643E0A20202F
:10239000202020203C2F74723E0A20202020202064
:1023A0003C74723E0A20202020202020203C7464AF
:1023B0003E526573756C743A3C2F74643E0A20205B
:1023C0002020202020203C74643E3C696E7075748F
:1023D0002069643D226F75747075746669656C64FC
:1023E0002220747970653D227465787422207369A7
:1023F0007A653D2232302220726561646F6E6C799D
:102400003E3C2F74643E0A2020202020203C2F7464
:10241000723E0A202020203C2F7461626C653E0AC7
:1024200020203C2F666F726D3E0A3C2F703E0A3CA6
:10243000703E0A202054686520737461747573209F
:10244000646973706C61792061626F766520726572
:1024500066726573686573206F6E6C792077686546
:102460006E20796F7520636C69636B206F6E2074CA
:1024700068652072656C6F616420627574746F6E3C
:102480002E0A3C2F703E0A0A202020203C2F64692F
:10249000763E0A20203C2F626F64793E0A3C2F680A
:1024A000746D6C3E0A0A002F7261737465722E702F
:1024B0006E670089504E470D0A1A0A0000000D4948
:1024C000484452000000080000000801030000001A
:1024D000FEC12CC8000000017352474200AECE1C62
:1024E000E900000006504C5445F0F0F0FAFAFA7595
:1024F000CF021F000000097048597300000B130041
:10250000000B1301009A9C180000000774494D4508
:1025100007D8031F08113006704BFF0000001B494D
:10252000444154081D011000EFFF0000007F007FB0
:10253000007F007F007F007F007F185F037A1923F0
:10254000D7750000000049454E44AE426082002F1E
:10255000636F6E6669672E7368746D6C0025213A2F
:10256000202F6865616465722E68746D6C0A0A3C80
:1025700068313E495020436F6E66696775726174B9
:10258000696F6E3C2F68313E0A0A3C666F726D209F
:102590006D6574686F643D226765742220616374A1
:1025A000696F6E3D22636F6E6669672E7368746D26
:1025B0006C223E0A20203C703E0A20202020444805
:1025C000435020436C69656E740A202020203C73C0
:1025D000656C656374206E616D653D22646863702F
:1025E000223E0A2020202020203C6F7074696F6EEC
:1025F0002076616C75653D2230223E6469736162AC
:102600006C65643C2F6F7074696F6E3E0A202020E9
:102610002020203C6F7074696F6E2076616C756548
:102620003D223122202521206468637073656C206F
:102630003E656E61626C65643C2F6F7074696F6E8D
:102640003E0A202020203C2F73656C6563743E0A8F
:1026500020203C2F703E0A20203C703E0A20202083
:10266000203C7461626C653E0A2020202020203CC2
:1026700074723E0A20202020202020203C74643EDA
:1026800049502D416464726573733C2F74643E0A33
:1026900020202020202020203C74643E3C696E7065
:1026A000757420747970653D227465787422206E8B
:1026B000616D653D226970222076616C75653D22F1
:1026C00025212063757272656E74697022207369AA
:1026D0007A653D22313622206D61786C656E6774B3
:1026E000683D223136223E3C2F74643E0A20202071
:1026F0002020203C2F74723E0A2020202020203CE5
:1027000074723E0A20202020202020203C74643E49
:102710004E65746D61736B3C2F74643E0A202020FB
:1027200020202020203C74643E3C696E707574202B
:10273000747970653D227465787422206E616D65D0
:102740003D226D61736B222076616C75653D22259B
:10275000212063757272656E746D61736B222073D4
:10276000697A653D22313622206D61786C656E672D
:1027700074683D223136223E3C2F74643E0A20208C
:10278000202020203C2F74723E0A20202020202070
:102790003C74723E0A20202020202020203C7464BB
:1027A0003E476174657761793C2F74643E0A20204E
:1027B0002020202020203C74643E3C696E7075749B
:1027C00020747970653D227465787422206E616D85
:1027D000653D226777222076616C75653D22252153
:1027E0002063757272656E746777222073697A65EB
:1027F0003D22313622206D61786C656E6774683DCC
:10280000223136223E3C2F74643E0A2020202020B4
:10281000203C2F74723E0A202020203C2F746162DD
:102820006C653E0A20203C2F703E0A20203C702020
:102830007374796C653D2225212063616E61757426
:102840006820223E0A2020202020204175746865DF
:102850006E7469636174696F6E203C696E70757423
:1028600020747970653D227465787422206E616DE4
:10287000653D2261757468222076616C75653D2224
:1028800025212067657461757468222073697A65F3
:102890003D22323022206D61786C656E6774683D30
:1028A000223230223E3C62723E0A2020202020202C
:1028B00028696E20666F726D617420757365726E23
:1028C000616D653A70617373776F7264290A2020B5
:1028D0003C2F703E0A20203C703E0A202020203CE5
:1028E000696E70757420747970653D227375626DC0
:1028F0006974223E0A20203C2F703E0A3C2F666FEE
:10290000726D3E0A3C703E0A202053746F726564FB
:102910002073657474696E67733A3C62723E0A2074
:1029200020495020616464726573733A2025212028
:102930006765746970202F202521206765746D619B
:10294000736B202C206761746577617920252120C5
:1029500067657467770A0A202020203C2F64697617
:102960003E0A20203C2F626F64793E0A3C2F687437
:102970006D6C3E002F6865616465722E68746D6CC5
:10298000003C21444F43545950452048544D4C205D
:102990005055424C494320222D2F2F5733432F2F80
:1029A0004454442048544D4C20342E30312F2F4570
:1029B0004E223E0A3C68746D6C3E0A20203C6865DD
:1029C00061643E0A202020203C7469746C653E429C
:1029D0007574746572666C7920492F4F2046697250
:1029E0006D7761726520322E382E313C2F746974F8
:1029F0006C653E0A202020203C6D657461206E616C
:102A00006D653D22617574686F722220636F6E740C
:102A1000656E743D2253746566616E204672696E00
:102A20006773223E0A202020203C6D657461206877
:102A30007474702D65717569763D22636F6E74656F
:102A40006E742D747970652220636F6E74656E7478
:102A50003D22746578742F68746D6C3B20636861E7
:102A6000727365743D7574662D38223E0A202020ED
:102A7000203C6D65746120687474702D6571756992
:102A8000763D22507261676D612220636F6E7465BE
:102A90006E743D226E6F2D6361636865223E0A206D
:102AA0002020203C6D65746120687474702D657100
:102AB0007569763D2243616368652D436F6E74725C
:102AC0006F6C2220636F6E74656E743D226E6F2D85
:102AD0006361636865223E0A202020203C7374797C
:102AE0006C6520747970653D22746578742F63730A
:102AF00073223E0A20202020202020200A626F64BA
:102B000079207B0A2020636F6C6F723A626C61637C
:102B10006B3B0A20206261636B67726F756E642D78
:102B2000696D6167653A75726C287261737465725C
:102B30002E706E67293B0A2020706F736974696F6D
:102B40006E3A6162736F6C7574653B0A20206C6528
:102B500066743A303B0A2020746F703A303B0A208A
:102B60002070616464696E673A303B0A20206D61B1
:102B70007267696E3A303B0A7D0A0A7461626C655D
:102B8000207B0A20206261636B67726F756E642D13
:102B9000636F6C6F723A77686974653B0A202062D4
:102BA0006F726465722D636F6C6C617073653A63EC
:102BB0006F6C6C617073653B0A2020626F72646594
:102BC000722D7374796C653A646F747465643B0A32
:102BD0002020626F726465722D77696474683A317F
:102BE00070783B0A2020626F726465722D636F6C8F
:102BF0006F723A626C61636B3B0A7D0A0A746420EF
:102C00007B0A202070616464696E673A302E3565F6
:102C10006D3B0A2020626F726465722D7374796C4B
:102C2000653A646F747465643B0A2020626F726455
:102C300065722D77696474683A3170783B0A202098
:102C4000626F726465722D636F6C6F723A626C6151
:102C5000636B3B0A7D0A0A6469762E6C696E6B733E
:102C6000207B0A202070616464696E672D746F7028
:102C70003A31656D3B0A202070616464696E672D8E
:102C80006C6566743A302E35656D3B0A20207061A4
:102C90006464696E672D72696768743A302E3565B1
:102CA0006D3B0A202070616464696E672D626F74E9
:102CB000746F6D3A302E35656D3B0A20206D617260
:102CC00067696E3A303B0A2020706F736974696FD0
:102CD0006E3A66697865643B0A2020776964746897
:102CE0003A3130656D3B0A2020666C6F61743A6C36
:102CF0006566743B0A7D0A0A6469762E72656368AC
:102D00007473207B0A202077696474683A313065D7
:102D10006D3B0A2020666C6F61743A726967687453
:102D20003B0A20206D617267696E3A303B0A2020B1
:102D300070616464696E673A302E35656D3B0A7D5B
:102D40000A0A6469762E696E68616C74207B0A20B9
:102D500020636F6C6F723A6E6176793B0A20206D4A
:102D6000617267696E2D6C6566743A3131656D3BD1
:102D70000A20206D617267696E2D72696768743A06
:102D80003131656D3B0A20206D617267696E2D746B
:102D90006F703A303B0A20206D617267696E2D6258
:102DA0006F74746F6D3A303B0A20207061646469FF
:102DB0006E673A302E35656D3B0A20206D696E2DA9
:102DC00077696474683A3230656D3B0A20206D6122
:102DD000782D77696474683A3630656D3B0A7D0AF0
:102DE0000A6831207B0A2020666F6E742D73697A21
:102DF000653A313430253B0A7D0A0A6832207B0A65
:102E00002020666F6E742D73697A653A31323025F1
:102E10003B0A7D0A0A6469762E6E61766967617481
:102E2000696F6E207B0A20206261636B67726F7529
:102E30006E642D636F6C6F723A23433043304330BE
:102E40003B0A202070616464696E673A302E3265F7
:102E50006D3B0A20206D617267696E2D746F703A48
:102E6000302E35656D3B0A20206D617267696E2DCD
:102E7000626F74746F6D3A302E35656D3B0A202099
:102E8000666F6E742D7765696768743A626F6C64FB
:102E90003B0A7D0A0A6469762E6E61766967617401
:102EA000696F6E2061207B0A2020646973706C61F9
:102EB000793A20626C6F636B3B0A202074657874EA
:102EC0002D6465636F726174696F6E3A6E6F6E65C3
:102ED0003B0A2020636F6C6F723A626C61636B3BDC
:102EE0000A2020626F726465722D7374796C653A82
:102EF0006E6F6E653B0A20206F75746C696E652D70
:102F00007374796C653A6E6F6E653B0A7D0A0A646C
:102F100069762E6E617669676174696F6E20612EC5
:102F2000616374697665207B0A2020666F6E742D5C
:102F30007765696768743A626F6C643B0A20206346
:102F40006F6C6F723A7265643B0A7D0A0A64697637
:102F50002E6E617669676174696F6E20613A686F81
:102F6000766572207B0A20206261636B67726F75E1
:102F70006E642D636F6C6F723A233830383038309E
:102F80003B0A7D0A0A0A6469762E6E61766967617A
:102F900074696F6E20756C207B0A20206261636B00
:102FA00067726F756E642D636F6C6F723A23463073
:102FB000463046303B0A20206C6973742D73747957
:102FC0006C653A6E6F6E653B0A20207061646469BF
:102FD0006E672D6C6566743A31656D3B0A20207012
:102FE000616464696E672D72696768743A303B0A80
:102FF000202070616464696E672D746F703A31656A
:103000006D3B0A202070616464696E672D626F7485
:10301000746F6D3A31656D3B0A20206D617267698E
:103020006E3A303B0A2020666F6E742D77656967B3
:1030300068743A6E6F726D616C3B0A2020666F6E29
:10304000742D73697A653A3830253B0A7D0A0A6423
:1030500069762E6E617669676174696F6E20756C32
:1030600020756C207B0A202070616464696E672D76
:10307000746F703A303B0A202070616464696E6737
:103080002D626F74746F6D3A303B0A2020666F6E4C
:10309000742D73697A653A3939253B0A7D0A0A64C9
:1030A00069762E6E617669676174696F6E20756CE2
:1030B0002E68696464656E207B0A202064697370E1
:1030C0006C61793A6E6F6E653B0A7D0A0A646976B7
:1030D0002E6E617669676174696F6E20756C2E76ED
:1030E000697369626C65207B0A2020646973706C67
:1030F00061793A626C6F636B3B0A7D0A0A64697698
:103100002E6E617669676174696F6E206C69207BD1
:103110000A20206D617267696E2D746F703A302ECF
:1031200034656D3B0A20206D617267696E2D626F98
:1031300074746F6D3A302E34656D3B0A20206C69D3
:1031400073742D7374796C653A206E6F6E653B0AEB
:103150007D0A0A3C2F7374796C653E0A3C73637276
:103160006970743E0A0A2F2A20416374697661747B
:1031700065207468652063757272656E7420646F73
:1031800063756D656E7420696E20746865206E616C
:103190007669676174696F6E20646976202A2F0AE8
:1031A00066756E6374696F6E206E6176695F6163C8
:1031B0007469766174655F63757272656E7428698F
:1031C0006429207B0A20207661722064657374690B
:1031D0006E6174696F6E3D646F63756D656E742E9C
:1031E000676574456C656D656E74427949642869DC
:1031F00064293B0A202076617220726571756573BF
:103200007465723D646F63756D656E742E6C6F636B
:103210006174696F6E2E687265663B0A2020766164
:103220007220616C6C654C697374656E3D64657386
:1032300074696E6174696F6E2E676574456C656D37
:10324000656E747342795461674E616D65282275AD
:103250006C22293B0A2020666F7220286A3D303B91
:10326000206A3C616C6C654C697374656E2E6C658C
:103270006E6774683B206A2B2B29207B0A20202054
:1032800020766172206C697374653D616C6C654C6D
:10329000697374656E5B6A5D3B0A2020202076614D
:1032A0007220616C6C6545696E7472616567653D1D
:1032B0006C697374652E676574456C656D656E74B5
:1032C0007342795461674E616D6528226C692229C9
:1032D0003B0A20202020666F7220286B3D303B2067
:1032E0006B3C616C6C6545696E7472616567652ED7
:1032F0006C656E6774683B206B2B2B29207B0A2042
:1033000020202020207661722065696E74726167CA
:103310003D616C6C6545696E7472616567655B6B78
:103320005D3B0A20202020202076617220616C6C99
:10333000654C696E6B733D65696E747261672E676B
:103340006574456C656D656E747342795461674E42
:10335000616D6528226122293B0A2020202020203F
:10336000666F722028693D303B20693C616C6C655A
:103370004C696E6B732E6C656E6774683B20692BAD
:103380002B29207B0A2020202020202020766172FB
:10339000206C696E6B3D616C6C654C696E6B735B28
:1033A000695D3B0A202020202020202069662028FB
:1033B0006C696E6B2E687265663D3D7265717565F0
:1033C0007374657229207B0A202020202020202071
:1033D00020202F2F20666F756E6420746865206C26
:1033E000696E6B20616E642074686520706172651F
:1033F0006E74206C697374206974656D20616E64ED
:103400002074686520706172656E74206C697374D5
:103410000A202020202020202020206C696E6B2E86
:10342000636C6173734E616D653D2261637469768F
:1034300065223B0A202020202020202020206C69AB
:103440007374652E636C6173734E616D653D227696
:10345000697369626C65223B0A20202020202020AD
:103460002020202F2F2066696E64207468652064F8
:103470006972656374207375622D6C69737473204F
:10348000616E64206D616B65207468656D20616399
:10349000746976650A2020202020202020202076B4
:1034A000617220616C6C654B696E6465723D656923
:1034B0006E747261672E6368696C644E6F646573C5
:1034C0003B0A20202020202020202020666F722010
:1034D000286C3D303B206C3C616C6C654B696E64C4
:1034E00065722E6C656E6774683B206C2B2B2920EF
:1034F0007B0A2020202020202020202020207661F0
:1035000072206B696E643D616C6C654B696E6465BD
:10351000725B6C5D3B0A2020202020202020202090
:103520002020696620286B696E642E7461674E6185
:103530006D65213D6E756C6C202626206B696E646E
:103540002E7461674E616D652E746F4C6F77657276
:103550004361736528293D3D22756C2229207B0A31
:1035600020202020202020202020202020206B69C7
:103570006E642E636C6173734E616D653D22766976
:103580007369626C65223B0A2020202020202020C5
:10359000202020207D0A20202020202020202020E4
:1035A0007D0A20202020202020207D0A202020208D
:1035B00020207D0A202020207D0A20207D0A7D0AEF
:1035C0000A2F2A2068616E646C65206B6C69636BDE
:1035D000206576656E7473206F6E206120666F6C57
:1035E00064657220696E20746865206E6176696713
:1035F0006174696F6E206469762A2F0A66756E633E
:1036000074696F6E206E6176695F6B6C69636B5F66
:10361000666F6C64657228696429207B0A202076B5
:103620006172206C697374653D646F63756D656E5E
:10363000742E676574456C656D656E744279496476
:10364000286964293B0A2020696620286C69737404
:10365000652E636C6173734E616D653D3D226869D3
:103660006464656E22290A202020206C69737465C9
:103670002E636C6173734E616D653D22766973696B
:10368000626C65223B0A2020656C73650A2020204D
:10369000206C697374652E636C6173734E616D6524
:1036A0003D2268696464656E223B0A7D0A0A3C2FEC
:1036B0007363726970743E0A0A3C2F686561643EE8
:1036C0000A3C626F6479206F6E6C6F61643D226E9C
:1036D0006176695F61637469766174655F63757251
:1036E00072656E7428276E617669676174696F6EA2
:1036F0002729223E0A0A3C64697620636C61737351
:103700003D226C696E6B73223E0A20203C64697610
:1037100020636C6173733D226E61766967617469C1
:103720006F6E222069643D226E61766967617469FB
:103730006F6E223E0A2020202020204E617669678D
:103740006174696F6E0A2020202020203C756C3E39
:103750000A20202020202020203C6C693E3C612053
:10376000687265663D22696E6465782E7368746D53
:103770006C223E46726F6E7420706167653C2F61EB
:103780003E3C2F6C693E0A20202020202020203C37
:103790006C693E3C6120687265663D22636F6E66AF
:1037A00069672E7368746D6C223E495020436F6EBA
:1037B00066696775726174696F6E3C2F613E3C2F5C
:1037C0006C693E0A20202020202020203C6C693E8D
:1037D0003C6120687265663D2265636F6E6669674D
:1037E0002E7368746D6C223E654D61696C2041706A
:1037F000703C2F613E3C2F6C693E0A202020202027
:103800002020203C6C693E3C6120687265663D2248
:103810006A6176617363726970743A6E6176695F2A
:103820006B6C69636B5F666F6C6465722827737479
:103830006174732729223E537461746973746963D8
:10384000733C2F613E3C756C2069643D227374614A
:1038500074732220636C6173733D226869646465CC
:103860006E223E0A20202020202020202020202000
:103870003C6C693E3C6120687265663D22737461F0
:1038800074732E7368746D6C223E495020547261BB
:10389000666669633C2F613E3C2F6C693E0A2020BE
:1038A000202020202020202020203C6C693E3C61EC
:1038B00020687265663D227463702E7368746D6C47
:1038C000223E54435020436F6E6E656374696F6E81
:1038D000733C2F613E3C2F6C693E0A202020202043
:1038E000202020202020203C6C693E3C6120687212
:1038F00065663D2266696C65732E7368746D6C2213
:103900003E485454502046696C653C2F613E3C2F24
:103910006C693E0A2020202020202020202020200A
:103920003C6C693E3C6120687265663D22736D7433
:103930007073746174732E7368746D6C223E534D92
:10394000545020436F756E746572733C2F613E3C1A
:103950002F6C693E0A202020202020202020203C9F
:103960002F756C3E0A20202020202020203C2F6C28
:10397000693E0A20202020202020203C6C693E3C0B
:103980006120687265663D22696F2E7368746D6C84
:10399000223E492F4F205374617475733C2F613E52
:1039A0003C2F6C693E0A20202020202020203C6CE7
:1039B000693E3C6120687265663D22696F5F68659B
:1039C0006C702E7368746D6C223E492F4F20436FCC
:1039D0006D6D616E64733C2F613E3C2F6C693E0AD5
:1039E0002020202020203C2F756C3E0A2020202003
:1039F0003C2F6469763E0A3C2F6469763E0A0A3C95
:103A000064697620636C6173733D227265636874C8
:103A100073223E0A202020203C696D672073726368
:103A20003D226372756D623634346E65742E6A7031
:103A300067223E0A3C2F6469763E0A0A3C64697636
:103A400020636C6173733D22696E68616C74223E01
:103A50000A002F696E6465782E7368746D6C00259A
:103A6000213A202F6865616465722E68746D6C0D53
:103A70000A3C703E0D0A2020546865736520706111
:103A80006765732061726520736572766564206274
:103A900079206120736D616C6C20656D6265646472
:103AA00065642077656273657276657220776974E4
:103AB00068204156522D524953432070726F6365FE
:103AC00073736F722E0D0A3C2F703E0D0A3C703ED0
:103AD0000D0A20203C7461626C653E0D0A20202096
:103AE000203C74723E3C74643E0D0A20202020204D
:103AF0002048617264776172653A204372756D6225
:103B00003634342D4E45542066726F6D203C612052
:103B1000687265663D22687474703A2F2F777777E4
:103B20002E6368697034352E636F6D223E77777728
:103B30002E6368697034352E636F6D3C2F613E0DC6
:103B40000A202020203C2F74643E3C2F74723E0DCE
:103B50000A202020203C74723E3C74643E0D0A20F2
:103B6000202020202045746865726E657420647280
:103B7000697665723A2053746566616E205065728D
:103B80007A626F726E203C6120687265663D2268C1
:103B90007474703A2F2F7777772E7065727A626F10
:103BA000726E2E6E65742F223E7777772E70657257
:103BB0007A626F726E2E6E65743C2F613E0D0A2024
:103BC0002020203C2F74643E3C2F74723E0D0A204E
:103BD0002020203C74723E3C74643E0D0A2020205C
:103BE0002020205443502F495020737461636B3A56
:103BF000204164616D2044756E6B656C73203C617F
:103C000020687265663D22687474703A2F2F77774A
:103C1000772E736963732E73652F7E6164616D2FD8
:103C20007569702F223E754950205443502F4950DA
:103C300020737461636B3C2F613E0D0A20202020AD
:103C40003C2F74643E3C2F74723E0D0A20202020CD
:103C50003C74723E3C74643E0D0A202020202020DB
:103C6000416C6C206F746865722070617274733A75
:103C70002053746566616E204672696E6773203CDE
:103C80006120687265663D22687474703A2F2F6DEA
:103C900065696E656D756C6C656D6175732E6465B7
:103CA000223E6D65696E656D756C6C656D617573D1
:103CB0002E64653C2F613E0D0A202020203C2F748D
:103CC000643E3C2F74723E0D0A20203C2F746162CA
:103CD0006C653E0D0A3C2F703E0D0A3C703E0D0A8D
:103CE00020204C6172676573742066726565206D73
:103CF000656D6F727920626C6F636B3A20252120AD
:103D0000667265656D656D2062797465730D0A2054
:103D1000203C62723E0D0A202044484350205374D8
:103D2000617475733A20252120646863702D737463
:103D3000617475730D0A20203C62723E0D0A2020CA
:103D40004D414320616464726573733A20252120DC
:103D50006765746D61630D0A20203C62723E0D0A36
:103D60002020495020616464726573733A202521D4
:103D70002063757272656E746970202F2025212072
:103D800063757272656E746D61736B202C20676150
:103D900074657761792025212063757272656E7470
:103DA00067770D0A3C2F703E0D0A0D0A2020202057
:103DB0003C2F6469763E0D0A20203C2F626F6479A7
:103DC0003E0D0A3C2F68746D6C3E002F66696C6571
:103DD000732E7368746D6C0025213A202F6865611D
:103DE0006465722E68746D6C0A3C68313E485454A8
:103DF000502046696C65733C2F68313E0A3C746103
:103E0000626C653E0A2020202025212066696C65B1
:103E10002D73746174730A3C2F7461626C653E0A81
:103E20000A202020203C2F6469763E0A20203C2F67
:103E3000626F64793E0A3C2F68746D6C3E0A0A001A
:103E40002F3430342E68746D6C003C68746D6C3E99
:103E50000A20203C626F6479206267636F6C6F7226
:103E60003D227768697465223E0A202020203C6349
:103E7000656E7465723E0A2020202020203C683147
:103E80003E343034202D2066696C65206E6F7420BE
:103E9000666F756E643C2F68313E0A20202020201A
:103EA000203C68333E476F203C6120687265663D68
:103EB000222F223E686572653C2F613E20696E7339
:103EC000746561642E3C2F68333E0A202020203C1C
:103ED0002F63656E7465723E0A20203C2F626F640A
:103EE000793E0A3C2F68746D6C3E002F696F5F68E5
:103EF000656C702E7368746D6C0025213A202F68F4
:103F000065616465722E68746D6C0A0A3C68313EA6
:103F1000492F4F20636F6D6D616E64733C2F683164
:103F20003E0A3C703E0A202054686520492F4F20ED
:103F3000636F6D6D616E647320636F6E6669677524
:103F400072652074686520492F4F206C696E657317
:103F50002C207175657279207468652073746174A2
:103F600075730A20206F6620696E70757473206106
:103F70006E6420736574207468652076616C756565
:103F8000206F66206F7574707574732E0A3C2F70E5
:103F90003E0A3C703E0A202043616C6C20746865C8
:103FA00020696F20636F6D6D616E64732076696147
:103FB00020736F636B657420636F6E6E65637469E5
:103FC0006F6E206F6E20706F7274203233202874F1
:103FD000656C6E657429206F72207669610A2020F5
:103FE00055524C3A20687474703A2F2F69702D61C5
:103FF0006464726573732F696F3F3C623E636F6DDB
:104000006D616E643C2F623E2E0A3C2F703E0A3C6E
:10401000703E3C7072653E0A436F6D6D616E6473F5
:1040200020746861742061666665637420616C6CDD
:1040300020706F72742070696E733A0A642C444465
:1040400043434242414120205365742064697265B4
:104050006374696F6E206F6620616C6C20706F7284
:10406000742070696E732C20686967683D6F757481
:104070007075742C206C6F773D696E7075740A7062
:104080002C44444343424241412020436F6E6669C1
:10409000677572652070756C6C2D75702072657314
:1040A0006973746F72732C20686967683D6F6E2C3A
:1040B000206C6F773D6F66660A6F2C444443434221
:1040C00042414120204F75747075742064617461A1
:1040D000206F6E20616C6C20706F72742070696E3E
:1040E000730A6920202020202020202020205265D3
:1040F00061642066726F6D20616C6C20706F7274E9
:104100002070696E730A0A436F6D6D616E6473206F
:104110007468617420616666656374206F6E6520E3
:10412000706F72743A0A6450422C787820202020F4
:10413000202053657420646972656374696F6E2012
:104140006F6620706F727420420A7050422C78782B
:10415000202020202020436F6E66696775726520DD
:1041600070756C6C2D7570207265736973746F72E5
:1041700073206F6620706F727420420A6F50422C59
:1041800078782020202020204F757470757420646A
:10419000617461206F6E20706F727420420A6950E2
:1041A00042202020202020202020526561642066AB
:1041B000726F6D20706F727420420A0A436F6D6DCA
:1041C000616E6473207468617420616666656374EF
:1041D00020612073696E676C6520706F7274207047
:1041E000696E3A0A645042302C3120202020202071
:1041F00053657420646972656374696F6E206F66BD
:1042000020706F727420422070696E203020746FAD
:1042100020696E707574202830206F7220693D69A6
:104220006E7075742C2031206F72206F3D6F757425
:10423000707574290A705042302C312020202020C3
:1042400020456E61626C652070756C6C2D757020F8
:104250007265736973746F7273206F6620706F720A
:104260007420422070696E2030202830206F722028
:10427000643D64697361626C65642C2031206F72E7
:1042800020653D656E61626C6564290A6F5042303D
:104290002C312020202020204F75747075742068E8
:1042A000696768206F6E20706F7274204220706999
:1042B0006E2030202830206F72206C3D6C6F772C80
:1042C0002031206F7220683D68696768290A69504B
:1042D000423020202020202020205265616420666A
:1042E000726F6D20706F727420422070696E203082
:1042F0000A0A416E616C6F6720696E707574733A5B
:104300000A72564343202020202020202055736528
:1043100020564343206173207265666572656E6343
:104320006520283556290A72312E3156202020204A
:1043300020202055736520696E7465726E616C2053
:10434000312E3156207265666572656E63650A723C
:10435000322E3536562020202020205573652069C6
:104360006E7465726E616C20322E35365620726521
:10437000666572656E63650A724558542020202078
:10438000202020205573652065787465726E616CFD
:10439000207265666572656E63650A613320202050
:1043A00020202020202020526561642066726F6DDD
:1043B00020616E616C6F672070696E20330A0A7825
:1043C0007820616E6420444443434242414120616D
:1043D00072652068657861646563696D616C206EE3
:1043E000756D626572732E0A4F6E206D6F64756C09
:1043F00065732077697468206D6F726520746861D9
:104400006E203420706F7274732C20796F75206366
:10441000616E20616C736F20757365203634206285
:104420006974206E756D626572730A696E20666FBD
:10443000726D6174204848474746464545444443A9
:1044400043424241412E0A0A42696E6172792061FB
:104450006E642068657861646563696D616C206471
:1044600069676974732063616E206265206769768D
:10447000656E20696E20757070657220616E6420B3
:104480006C6F77657220636173652E0A496E737471
:10449000656164206F6620222C2220796F7520636D
:1044A000616E20616C736F20656E74657220223DB1
:1044B000222E3B0A3C2F7072653E3C2F703E0A3C18
:1044C000703E0A2020466F72206578616D706C65C1
:1044D0002C203C6120687265663D22696F3F6F50F9
:1044E00043302C30223E6F5043302C303C2F613E05
:1044F00020737769746368657320746865206772D8
:1045000065656E204C4544206F6E20696620746896
:1045100069732070696E0A2020696620636F6E6679
:1045200069677572656420666F72206F7574707547
:104530007420646972656374696F6E2E0A3C2F7013
:104540003E0A0A202020203C2F6469763E0A202063
:104550003C2F626F64793E0A3C2F68746D6C3E0A92
:104560000A002F7463702E7368746D6C0025213AF5
:10457000202F6865616465722E68746D6C0A3C68F2
:10458000313E54435020636F6E6E656374696F6E85
:10459000733C2F68313E0A3C703E0A20203C746117
:1045A000626C653E0A20203C7472206267636F6C07
:1045B0006F723D226C6967687467726579223E3C50
:1045C00074643E4C6F63616C3C2F74643E3C746455
:1045D0003E52656D6F74653C2F74643E3C74643E5E
:1045E00053746174653C2F74643E3C74643E526540
:1045F0007472616E736D697373696F6E733C2F743F
:10460000643E3C74643E54696D65723C2F74643E34
:104610003C74643E466C6167733C2F74643E3C2F6F
:1046200074723E0A2521207463702D636F6E6E0ACA
:1046300020203C2F7461626C653E0A3C2F703E0A5C
:104640000A202020203C2F6469763E0A20203C2F3F
:10465000626F64793E0A3C2F68746D6C3E0A002FCD
:10466000736D747073746174732E7368746D6C0001
:1046700025213A202F6865616465722E68746D6C1F
:104680000A3C68313E534D545020436F756E74653B
:1046900072733C2F68313E0A3C703E0A20203C7405
:1046A00061626C653E0A202020203C74723E0A2024
:1046B00020202020203C74643E0A2020202020203E
:1046C00020203C7072653E456D61696C7320736596
:1046D0006E740A54696D656F75740A45484C4F20B5
:1046E000636F6D6D616E64206661696C65640A61FB
:1046F000757468656E7469636174696F6E20666154
:10470000696C65640A73656E6465722072656A65BA
:10471000637465640A726563697069656E7420729A
:10472000656A65637465640A636F6E74656E742090
:1047300072656A65637465643C2F7072653E0A2019
:1047400020202020203C2F74643E0A20202020209E
:10475000203C74643E0A20202020202020203C7031
:1047600072653E252120736D74702D7374617473AE
:10477000203C2F7072653E0A2020202020203C2FF4
:1047800074643E0A202020203C2F74723E0A2020B0
:104790003C2F7461626C653E0A3C2F703E0A0A2011
:1047A0002020203C2F6469763E0A20203C2F626F37
:1047B00064793E0A3C2F68746D6C3E00696F006638
:1047C000696C652D7374617473006E65742D7374F8
:1047D000617473007463702D636F6E6E0066726532
:1047E000656D656D00646863702D737461747573B5
:1047F000006468637073656C006765746970006756
:1048000065746D61736B00676574677700676574C5
:10481000617574680063757272656E7469700063A7
:10482000757272656E746D61736B0063757272651B
:104830006E74677700636F6E6669672E7368746D58
:104840006C006765746D616300706F72747374617E
:10485000747573006164637374617475730063616C
:104860006E6175746800556E6B6E6F776E2066753D
:104870006E6374696F6E2025732C20706172616D98
:10488000733D25730A003C74723E3C74643E003CE8
:104890002F74643E3C74643E2535753C2F74643E31
:1048A0003C2F74723E0A002535750A2535750A2598
:1048B00035750A0A2535750A2535750A2535750AAF
:1048C0002535750A2535750A2535750A2535750A84
:1048D0000A2535750A2535750A2535750A25357574
:1048E0000A0A2535750A2535750A2535750A0A25FA
:1048F00035750A2535750A2535750A2535750A2554
:1049000035750A2535750A0A2535750A2535750A5E
:104910002535750A2535750A253575003C74723EB6
:104920003C74643E25643C2F74643E3C74643E25B4
:10493000752E25752E25752E25753A25753C2F74F7
:10494000643E3C74643E00636C6F7365640073790D
:104950006E2D726376640073796E2D73656E7400CC
:1049600065737461626C69736865640066696E2D55
:10497000776169742D310066696E2D776169742DD8
:104980003200636C6F73696E670074696D652D77B3
:10499000616974006C6173742D61636B003C2F74EA
:1049A000643E3C74643E25753C2F74643E3C7464E4
:1049B0003E25753C2F74643E3C74643E256320257F
:1049C000633C2F74643E3C2F74723E0A002535759B
:1049D000006E6F7420737461727465640073656E29
:1049E0007420646973636F766572006F66666572C2
:1049F0002072656365697665640073656E74207204
:104A000065717565737400636F6E666967207265A2
:104A1000636569766564006E616B207265636569C4
:104A20007665640074696D656F75740073656E7486
:104A30002072656672657368007265667265736878
:104A4000207375636365656465640073656C656395
:104A50007465640025752E25752E25752E25750027
:104A6000646863703D0069703D006D61736B3D006B
:104A700067773D00617574683D00253032783A25CE
:104A80003032783A253032783A253032783A25304B
:104A900032783A2530327800307825303258203D4F
:104AA0002025632563256325632563256325632509
:104AB00063006E2E612E006E2E612E00256425632C
:104AC000256425632564256325640047455420003B
:104AD0002F696E6465782E7368746D6C0048545449
:104AE000502F312E3120323030204F4B0D0A436F82
:104AF0006E6E656374696F6E3A20636C6F73650DDB
:104B00000A002E7368746D6C002F3430342E687474
:104B10006D6C00485454502F312E312034303420E5
:104B20004E6F7420666F756E640D0A436F6E6E650E
:104B30006374696F6E3A20636C6F73650D0A00438E
:104B4000616368652D436F6E74726F6C3A206E6F8F
:104B50002D63616368650D0A507261676D613A206B
:104B60006E6F2D63616368650D0A0D0A002E68740F
:104B70006D6C00436F6E74656E742D747970653A58
:104B800020746578742F68746D6C0D0A0D0A002E00
:104B900063737300436F6E74656E742D7479706502
:104BA0003A20746578742F6373730D0A0D0A002E12
:104BB000706E6700436F6E74656E742D74797065E6
:104BC0003A20696D6167652F706E670D0A0D0A00E6
:104BD0002E67696600436F6E74656E742D7479700C
:104BE000653A20696D6167652F6769660D0A0D0A70
:104BF000002E6A706700436F6E74656E742D747951
:104C000070653A20696D6167652F6A7065670D0A86
:104C10000D0A002E6A706567002E74787400436F69
:104C20006E74656E742D747970653A20746578744D
:104C30002F706C61696E0D0A43616368652D436F67
:104C40006E74726F6C3A206E6F2D63616368650DD0
:104C50000D0A507261676D613A206E6F2D6361635A
:104C600068650D0A0D0A004F6B0A004261642063FB
:104C70006F6D6D616E640A00496E76616C696420C7
:104C8000706F72740A00496E76616C696420706995
:104C90006E0A00496E76616C696420686578206EE2
:104CA000756D6265720A00496E76616C6964206296
:104CB0006F6F6C65616E2076616C75650A00496E78
:104CC00076616C6964206368616E6E656C206E75D8
:104CD0006D6265720A00496E76616C696420726566
:104CE000666572656E6365206E616D650A005025AC
:104CF0006325693D25690A005025633D25303258FA
:104D00000A00693D25303258253032582530325856
:104D1000253032580A00515549540D0A0051554961
:104D2000540D0A000D0A2E0D0A000D0A2E0D0A0060
:104D300053656E7420627920427574746572666C76
:104D40007920492F4F206669726D77617265005333
:104D5000656E7420627920427574746572666C7930
:104D600020492F4F206669726D77617265000D0AC8
:104D70000D0A000D0A0D0A003E0D0A5375626A65A0
:104D800063743A20003E0D0A5375626A6563743A93
:104D900020003E0D0A546F3A203C003E0D0A546F2D
:104DA0003A203C0046726F6D3A203C0046726F6DAF
:104DB0003A203C00444154410D0A00444154410D05
:104DC0000A000D0A000D0A005243505420544F3A75
:104DD00020005243505420544F3A20000D0A000D39
:104DE0000A004D41494C2046524F4D3A20004D415A
:104DF000494C2046524F4D3A20000D0A000D0A0042
:104E00000D0A000D0A0041555448204C4F47494EA9
:104E10000D0A0041555448204C4F47494E0D0A0099
:104E200045484C4F20627574746572666C790D0A42
:104E30000045484C4F20627574746572666C790D3C
:104E40000A0065636F6E6669672E7368746D6C0027
:104E5000736D74702D737461747300736D74704925
:104E60007000736D74705573657200736D7470505B
:104E7000770066726F6D00746578743000746578C1
:104E8000743100746578743200746578743300741A
:104E90006578743400746578743500746578743698
:104EA00000746578743700746F002535750A2535F0
:104EB000750A2535750A2535750A2535750A25358E
:104EC000750A253575002671756F743B0026677469
:104ED0003B00266C743B0026616D703B0000407AFD
:104EE00010F35A00A0724E18090010A5D4E8000073
:104EF000E87648170000E40B54020000CA9A3B0011
:104F00000000E1F505000080969800000040420F87
:104F1000000000A08601000000102700000000E84B
:104F200003000000006400000000000A0000000010
:104F3000000100000000002C76D888DC674F0823B1
:104F4000DFC1DFAE59E1B1B796E5E3E453C63AE617
:104F500051997696E8E6C28426EB898C9B62ED40F7
:104F60007C6FFCEFBC9C9F40F2BAA56FA5F4900546
:104F70005A2AF75C936B6CF9676DC11BFCE0E40D7A
:104F800047FEF520E6B500D0ED902E03009435776E
:104F9000050080841E080000204E0A000000C80C96
:104FA000333333330F986E12831141EF8D211489FF
:104FB0003BE65516CFFEE6DB18D1844B381BF77C59
:104FC0001D901DA4BBE424203284725E228100C99E
:104FD000F124ECA1E53D276364696E6F7073757809
:104FE000585B000011241FBECFEFD0E1DEBFCDBF64
:104FF00011E0A0E0B1E0ECE4F2ED02C005900D920A
:10500000AA3CB107D9F71DE0AAECB1E001C01D929E
:10501000AE31B107E1F70E9477550C9424690C94E6
:1050200000004698439A9FEF91B982B980B14398A6
:1050300080B1449862B980B180B180B180B14498A8
:1050400062B9449A80B1469A11B808950F931F939C
:10505000282F8B018AE090E0622F0E941128612F97
:10506000772767FD7A958BE090E00E9411288CE00D
:1050700090E0602F0E9411288DE090E061E00E9496
:1050800011281F910F9108950F931F93282F192F07
:10509000062F89E090E0622F0E94112888E090E0BE
:1050A000612F0E94112882E090E0602F0E94112859
:1050B0001F910F9108950F931F93282F192F062FDB
:1050C00089E090E0622F0E94112888E090E0612F33
:1050D0000E94112884E090E0602F0E9411281F9107
:1050E0000F9108954698439A9FEF91B982B980B184
:1050F000439880B111B8459880B180B180B180B13A
:1051000080B1459A469A08950F931F93CF93DF93EA
:1051100084E590E00E9472288823D1F789E590E029
:1051200060E00E9411288AE590E060E00E9411286A
:1051300080E090E0EC012196FE01EC57F84F608191
:105140000E945B28CE01CE30D105A1F7809192025A
:1051500090919302C79760F013C08E010F5F1F4FAD
:10516000F801EC57F84FCE0160810E945B28E801FE
:105170008091920290919302C817D90770F325C0CD
:10518000CE012196FE01EC57F84F60810E945B280A
:10519000C633D105A9F70EC08E010F5F1F4FE091F6
:1051A0009D02F0919E02E20FF31FCE0160810E94EA
:1051B0005B28E8019E012653304080919202909135
:1051C0009302C6972817390738F387E590E06D2FCB
:1051D0000E94112888E590E06C2F0E94112889E533
:1051E00090E060E00E9411288AE590E060E00E9473
:1051F000112883E590E061E00E941128DF91CF91B2
:105200001F910F9108950E9484280895EF92FF92B4
:105210000F931F93CF93DF938FE190E00E9472284A
:10522000182F00E080E290E00E947228E82EFF2410
:10523000E02AF12AC0E0D0E009C081E090E00E94BD
:105240007228FE01EB57F84F80832196CE15DF05BB
:10525000A0F3C701DF91CF911F910F91FF90EF90C5
:105260000895CF93DF9383E690E00E94722881FF38
:105270000AC081E190E061E00E94112881E190E0A4
:1052800060E00E9411288DE190E00E94722887FF63
:1052900017C08EE190E00E94722887FF11C087E15D
:1052A00090E00E94722888E190E00E9472280E949B
:1052B0000629EC0181E190E066E00E94112802C01D
:1052C000C0E0D0E0CE01DF91CF9108951F93682F09
:1052D000192F89E090E00E94112888E090E0612F6A
:1052E0000E94112882E090E00E9472281F91089588
:1052F0001F93682F192F89E090E00E94112888E001
:1053000090E0612F0E94112884E090E00E947228B2
:105310001F910895CF93DF9388E690E060E00E94AC
:10532000112889E690E060E00E941128C6E6D2E0EC
:1053300005C085E090E00E947228899382E0C2391E
:10534000D807B9F7DF91CF910895FF920F931F937C
:10535000182F092FF62EF89487E690E065EA0E9450
:10536000112887E690E061EF0E94112888E690E01E
:10537000612F0E94112889E690E0602F0E94112879
:1053800086E090E06F2D0E94112878948BE790E0E2
:105390000E94722883FDFACF1F910F91FF9008950C
:1053A000CF93DF93F89487E690E065EA0E94112896
:1053B00087E690E061EF0E94112888E690E060E0C7
:1053C0000E94112889E690E060E00E9411288AE698
:1053D00090E061E00E94112878948BE790E00E94B1
:1053E000722883FDFACFC0E0D0E008C0FE01EA5980
:1053F000FD4FCE0160810E94A5292196CC32D105B6
:10540000A9F7DF91CF9108951F93682F192F88E690
:1054100090E00E94112889E690E0612F0E941128F7
:1054200085E090E00E9472288F3F09F480E01F9190
:1054300008951F93CF93DF93EC01172F88E690E038
:105440000E94112889E690E0612F0E94112885E0D2
:1054500090E00E9472288F3F09F480E088838823BF
:1054600011F02196F4CFDF91CF911F910895CF9243
:10547000DF92FF920F931F93CF93DF936C01EB01A9
:10548000CB018050924080509C4198F5F89487E67B
:1054900090E065EA0E94112887E690E061EF0E94A3
:1054A000112888E690E06C2F0E94112889E690E090
:1054B0006D2F0E9411288AE690E061E00E94112879
:1054C00078948BE790E00E94722883FDFACFF60172
:1054D000F1906F018E010F5F1F4FCE016F2D0E9463
:1054E000A529FEE100301F0720F4FF2011F0E8019C
:1054F000EECFDF91CF911F910F91FF90DF90CF9072
:105500000895EF92FF920F931F93DF93CF9300D0F4
:1055100000D000D0CDB7DEB782E692E068E873E154
:105520000E94043C80E790E06CE00E94112888E72C
:1055300090E060E00E94112888E790E060E10E941E
:10554000112889E790E062EE0E94112800E513EC33
:10555000C8010197F1F788E790E060E90E941128FF
:10556000C8010197F1F788E790E060EF0E941128E9
:1055700088EE93E024EF31E0F9013197F1F70197DC
:10558000D9F711C082E692E00E94E23B892B19F024
:1055900020E030E0AAC088EE93E0F8013197F1F7FF
:1055A0000197D9F702C004EF11E088E790E00E946C
:1055B000722880FFE7CF0E948A2981E063EB70E4C4
:1055C0000E94262882E065E170E00E94262881E0A2
:1055D00063EB70E40E94262885E06EEE75E00E9481
:1055E000262888E690E06AEF0E94112889E690E07C
:1055F0006FE10E94112885E090E00E947228082F38
:1056000010E085E090E00E947228782F60E0602B27
:10561000712B82E10E94262885E090E00E9472288A
:10562000082F10E085E090E00E947228782F60E05B
:10563000602B712B81E10E94262885E090E00E947A
:105640007228082F10E085E090E00E947228782FE1
:1056500060E0602B712B80E10E94262880E061E0F1
:1056600070E00E94262884E690E063E00E94112802
:105670008DE790E060E00E94112883E690E00E94B0
:1056800072288FE790E00E94722888E690E06AEF27
:105690000E94112889E690E06FE10E9411288E0196
:1056A0000F5F1F4F97E0E92EF12CEC0EFD1E85E0F9
:1056B00090E00E947228F80181938F01EE15FF059A
:1056C000B1F789818093CC018A818093CD018B8150
:1056D0008093CE018C818093CF018D818093D00106
:1056E0008E818093D10121E030E0C90126960FB66A
:1056F000F894DEBF0FBECDBFCF91DF911F910F9108
:10570000FF90EF9008951F920F920FB60F92112401
:105710008F939F938091CA019091CB0101969093B2
:10572000CB018093CA019F918F910F900FBE0F9074
:105730001F901895F89482E084BD95E095BD94E1A2
:1057400097BD80936E00789408958091CA019091DE
:10575000CB0108959093D3018093D2010895FC0169
:105760005381560F50939902272F33274281420FBE
:1057700040939802A181A0939702E081E093960262
:10578000842F90E08217930748F48A2F8F5F8093CD
:105790009702882319F4EF5FE0939602852F90E03B
:1057A00070708617970790F4842F8F5F809398020C
:1057B000882361F4809197028F5F809397028823FA
:1057C00029F4809196028F5F8093960208959C0140
:1057D00041505040460F571FFB010EC0708160E0E2
:1057E0008181DB01A80FB11D2A0F3B1F2A173B0740
:1057F00010F42F5F3F4F3296E417F50778F3E41764
:10580000F50749F4908180E0280F391F28173907E0
:1058100010F42F5F3F4FC90108959C01AB0180E058
:1058200090E0B9010E94E72B282F892F922F08952D
:1058300080E090E063E977E044E150E00E94E72BEC
:10584000009719F42FEF3FEF02C0382F292FC9011D
:1058500008950F931F930091960710E00451104094
:105860003091950720E0020F131F9801280F311D7A
:10587000C9016FE977E048E050E00E94E72B67EA52
:1058800077E0A8010E94E72B009719F42FEF3FEF74
:1058900002C0382F292FC9011F910F91089586E06A
:1058A0000E94292C089581E10E94292C0895E5E4A5
:1058B000F7E001C0119287E0ED37F807D9F780E0F3
:1058C00009C0E82FF0E0EE0FFF1FE75CF84F1182F0
:1058D00010828F5F8430A8F320E046E251E00DC0D3
:1058E000822F90E0849FF001859FF00D949FF00D32
:1058F0001124EF55FD4F118E2F5F243088F380E087
:1059000094E09093D9018093D8011092060D1092E3
:10591000050D81E08093DA0108950F931F93CF93D3
:10592000DF93EC018B014091D8015091D90166E2DF
:1059300071E04F5F5F4F8DE74030580710F040E057
:1059400050E1342F252FA0E014C08A2F90E0869FCD
:10595000F001879FF00D969FF00D1124EF55FD4F3C
:10596000818D882329F0848195818217930709F31B
:10597000AF5FA43051F74093D8015093D9011092F2
:10598000DA01E0E0F0E020E066E271E020C0822F82
:1059900090E0869FD001879FB00D969FB00D112497
:1059A000AF55BD4F59968C915997882321F4209378
:1059B000DA01FD0110C0873049F4309731F05A9672
:1059C0009C915A97828D891708F4FD012F5F24302E
:1059D000F0F22093DA01309761F182E0818F8091BB
:1059E000D40184878091D50185878091D6018687EF
:1059F0008091D701878782E495E0938B828B958B8A
:105A0000848B81E090E0918B808B138E81E0828F7C
:105A100083E0808F168A80E1878B548345831783C8
:105A2000068388819981918380838A819B81938376
:105A30008283CF01DF91CF911F910F910895AC0127
:105A40001092DA0120E013C0E22FF0E0322F3F5F26
:105A5000EE0FFF1FE75CF84F808191818417950757
:105A600029F42093DA01118210820895232F243023
:105A700058F32093DA010895AC011092DA0120E086
:105A800012C0E22FF0E0322F3F5FEE0FFF1FE75C06
:105A9000F84F80819181892B29F42093DA01518379
:105AA00040830895232F243060F32093DA01089572
:105AB000BC0180919F029091A00208960E94AF2B9A
:105AC000E0919F02F091A0028091960280878091E0
:105AD00097028187809198028287809199028387BB
